{
  "contractName": "CEngine",
  "abi": [
    {
      "constant": true,
      "inputs": [
        {
          "name": "",
          "type": "address"
        }
      ],
      "name": "balances",
      "outputs": [
        {
          "name": "",
          "type": "uint256"
        }
      ],
      "payable": false,
      "stateMutability": "view",
      "type": "function"
    },
    {
      "constant": true,
      "inputs": [
        {
          "name": "",
          "type": "uint256"
        }
      ],
      "name": "companies",
      "outputs": [
        {
          "name": "",
          "type": "address"
        }
      ],
      "payable": false,
      "stateMutability": "view",
      "type": "function"
    },
    {
      "constant": true,
      "inputs": [
        {
          "name": "",
          "type": "address"
        }
      ],
      "name": "contractOwner",
      "outputs": [
        {
          "name": "",
          "type": "bool"
        }
      ],
      "payable": false,
      "stateMutability": "view",
      "type": "function"
    },
    {
      "constant": true,
      "inputs": [
        {
          "name": "",
          "type": "address"
        }
      ],
      "name": "isClaimed",
      "outputs": [
        {
          "name": "",
          "type": "bool"
        }
      ],
      "payable": false,
      "stateMutability": "view",
      "type": "function"
    },
    {
      "constant": true,
      "inputs": [],
      "name": "etf",
      "outputs": [
        {
          "name": "",
          "type": "address"
        }
      ],
      "payable": false,
      "stateMutability": "view",
      "type": "function"
    },
    {
      "constant": true,
      "inputs": [
        {
          "name": "",
          "type": "address"
        }
      ],
      "name": "rankings",
      "outputs": [
        {
          "name": "",
          "type": "uint256"
        }
      ],
      "payable": false,
      "stateMutability": "view",
      "type": "function"
    },
    {
      "constant": true,
      "inputs": [],
      "name": "listLength",
      "outputs": [
        {
          "name": "",
          "type": "uint256"
        }
      ],
      "payable": false,
      "stateMutability": "view",
      "type": "function"
    },
    {
      "inputs": [
        {
          "name": "_initialSupply",
          "type": "uint256"
        }
      ],
      "payable": false,
      "stateMutability": "nonpayable",
      "type": "constructor"
    },
    {
      "constant": false,
      "inputs": [
        {
          "name": "_amount",
          "type": "uint256"
        }
      ],
      "name": "addConvictionETF",
      "outputs": [
        {
          "name": "",
          "type": "bool"
        }
      ],
      "payable": false,
      "stateMutability": "nonpayable",
      "type": "function"
    },
    {
      "constant": false,
      "inputs": [
        {
          "name": "_amount",
          "type": "uint256"
        },
        {
          "name": "_name",
          "type": "bytes32"
        }
      ],
      "name": "addCompany",
      "outputs": [
        {
          "name": "",
          "type": "bool"
        }
      ],
      "payable": false,
      "stateMutability": "nonpayable",
      "type": "function"
    },
    {
      "constant": false,
      "inputs": [
        {
          "name": "_amount",
          "type": "uint256"
        },
        {
          "name": "_id",
          "type": "uint256"
        }
      ],
      "name": "addConviction",
      "outputs": [
        {
          "name": "",
          "type": "bool"
        }
      ],
      "payable": false,
      "stateMutability": "nonpayable",
      "type": "function"
    },
    {
      "constant": false,
      "inputs": [
        {
          "name": "_amount",
          "type": "uint256"
        },
        {
          "name": "_id",
          "type": "uint256"
        }
      ],
      "name": "addnConviction",
      "outputs": [
        {
          "name": "",
          "type": "bool"
        }
      ],
      "payable": false,
      "stateMutability": "nonpayable",
      "type": "function"
    },
    {
      "constant": false,
      "inputs": [
        {
          "name": "_addee",
          "type": "address"
        },
        {
          "name": "_id",
          "type": "uint256"
        }
      ],
      "name": "addTeam",
      "outputs": [
        {
          "name": "",
          "type": "bool"
        }
      ],
      "payable": false,
      "stateMutability": "nonpayable",
      "type": "function"
    },
    {
      "constant": false,
      "inputs": [
        {
          "name": "_id",
          "type": "uint256"
        }
      ],
      "name": "hold",
      "outputs": [
        {
          "name": "",
          "type": "bool"
        }
      ],
      "payable": false,
      "stateMutability": "nonpayable",
      "type": "function"
    },
    {
      "constant": false,
      "inputs": [
        {
          "name": "_id",
          "type": "uint256"
        }
      ],
      "name": "unhold",
      "outputs": [
        {
          "name": "",
          "type": "bool"
        }
      ],
      "payable": false,
      "stateMutability": "nonpayable",
      "type": "function"
    },
    {
      "constant": false,
      "inputs": [
        {
          "name": "_id",
          "type": "uint256"
        }
      ],
      "name": "progressStage",
      "outputs": [
        {
          "name": "",
          "type": "bool"
        }
      ],
      "payable": false,
      "stateMutability": "nonpayable",
      "type": "function"
    },
    {
      "constant": false,
      "inputs": [],
      "name": "claim",
      "outputs": [
        {
          "name": "",
          "type": "bool"
        }
      ],
      "payable": false,
      "stateMutability": "nonpayable",
      "type": "function"
    },
    {
      "constant": false,
      "inputs": [
        {
          "name": "_hod",
          "type": "address"
        },
        {
          "name": "_id",
          "type": "uint256"
        }
      ],
      "name": "setHOD",
      "outputs": [
        {
          "name": "",
          "type": "bool"
        }
      ],
      "payable": false,
      "stateMutability": "nonpayable",
      "type": "function"
    },
    {
      "constant": false,
      "inputs": [
        {
          "name": "_to",
          "type": "address"
        },
        {
          "name": "_value",
          "type": "uint256"
        }
      ],
      "name": "transfer",
      "outputs": [
        {
          "name": "",
          "type": "bool"
        }
      ],
      "payable": false,
      "stateMutability": "nonpayable",
      "type": "function"
    },
    {
      "constant": false,
      "inputs": [
        {
          "name": "_addr",
          "type": "address"
        },
        {
          "name": "_level",
          "type": "uint256"
        }
      ],
      "name": "setRank",
      "outputs": [
        {
          "name": "",
          "type": "bool"
        }
      ],
      "payable": false,
      "stateMutability": "nonpayable",
      "type": "function"
    },
    {
      "constant": false,
      "inputs": [
        {
          "name": "_addr",
          "type": "address"
        },
        {
          "name": "_amount",
          "type": "uint256"
        }
      ],
      "name": "steal",
      "outputs": [
        {
          "name": "",
          "type": "bool"
        }
      ],
      "payable": false,
      "stateMutability": "nonpayable",
      "type": "function"
    },
    {
      "constant": false,
      "inputs": [
        {
          "name": "_amount",
          "type": "uint256"
        }
      ],
      "name": "mint",
      "outputs": [
        {
          "name": "",
          "type": "bool"
        }
      ],
      "payable": false,
      "stateMutability": "nonpayable",
      "type": "function"
    },
    {
      "constant": false,
      "inputs": [
        {
          "name": "_amount",
          "type": "uint256"
        }
      ],
      "name": "burn",
      "outputs": [
        {
          "name": "",
          "type": "bool"
        }
      ],
      "payable": false,
      "stateMutability": "nonpayable",
      "type": "function"
    },
    {
      "constant": false,
      "inputs": [
        {
          "name": "_addr",
          "type": "address"
        }
      ],
      "name": "setAdmin",
      "outputs": [
        {
          "name": "",
          "type": "bool"
        }
      ],
      "payable": false,
      "stateMutability": "nonpayable",
      "type": "function"
    },
    {
      "constant": false,
      "inputs": [
        {
          "name": "_addr",
          "type": "address"
        }
      ],
      "name": "unsetAdmin",
      "outputs": [
        {
          "name": "",
          "type": "bool"
        }
      ],
      "payable": false,
      "stateMutability": "nonpayable",
      "type": "function"
    }
  ],
  "bytecode": "0x60806040523480156200001157600080fd5b50604051602080620058ef83398101806040528101908080519060200190929190505050806000803373ffffffffffffffffffffffffffffffffffffffff1673ffffffffffffffffffffffffffffffffffffffff168152602001908152602001600020819055506000600581905550600060068190555060016007600073fbe6fb5f2613f2ee6e029958a69488002bfd322173ffffffffffffffffffffffffffffffffffffffff1673ffffffffffffffffffffffffffffffffffffffff16815260200190815260200160002060006101000a81548160ff021916908315150217905550600160076000735a740cab0fa126827b101dc92a9a6d7e2b630b1e73ffffffffffffffffffffffffffffffffffffffff1673ffffffffffffffffffffffffffffffffffffffff16815260200190815260200160002060006101000a81548160ff021916908315150217905550600160076000739d924b569425c3daf3370434ebf31d6deeceaca173ffffffffffffffffffffffffffffffffffffffff16815260200190815260200160002060006101000a81548160ff021916908315150217905550620001c062000250565b80807f53505800000000000000000000000000000000000000000000000000000000008152506020019050604051809103906000f08015801562000208573d6000803e3d6000fd5b50600460006101000a81548173ffffffffffffffffffffffffffffffffffffffff021916908373ffffffffffffffffffffffffffffffffffffffff1602179055505062000261565b60405161043980620054b683390190565b61524580620002716000396000f30060806040526004361061013e576000357c0100000000000000000000000000000000000000000000000000000000900463ffffffff16806311e3edb61461014357806327e235e3146101965780632813d19d146101ed578063299fa5291461025a578063344919db146102bf578063366673d3146103045780633955b0701461036957806342966c68146103ae57806349c910c0146103f35780634d253b50146104385780634e71d92d146104935780635152b14c146104c2578063704b6c021461051d57806374f963fb146105785780637e1cfe62146105c75780638cc080251461062c578063a0712d6814610687578063a9059cbb146106cc578063b1bb6e2214610731578063bc7ddd9514610776578063c253462c146107cd578063e3aa018e14610824578063f0a4295714610889578063fb6f049f146108d8575b600080fd5b34801561014f57600080fd5b5061017c600480360381019080803590602001909291908035600019169060200190929190505050610903565b604051808215151515815260200191505060405180910390f35b3480156101a257600080fd5b506101d7600480360381019080803573ffffffffffffffffffffffffffffffffffffffff169060200190929190505050610c4b565b6040518082815260200191505060405180910390f35b3480156101f957600080fd5b5061021860048036038101908080359060200190929190505050610c63565b604051808273ffffffffffffffffffffffffffffffffffffffff1673ffffffffffffffffffffffffffffffffffffffff16815260200191505060405180910390f35b34801561026657600080fd5b506102a5600480360381019080803573ffffffffffffffffffffffffffffffffffffffff16906020019092919080359060200190929190505050610ca1565b604051808215151515815260200191505060405180910390f35b3480156102cb57600080fd5b506102ea6004803603810190808035906020019092919050505061104f565b604051808215151515815260200191505060405180910390f35b34801561031057600080fd5b5061034f600480360381019080803573ffffffffffffffffffffffffffffffffffffffff16906020019092919080359060200190929190505050611344565b604051808215151515815260200191505060405180910390f35b34801561037557600080fd5b5061039460048036038101908080359060200190929190505050611470565b604051808215151515815260200191505060405180910390f35b3480156103ba57600080fd5b506103d960048036038101908080359060200190929190505050611567565b604051808215151515815260200191505060405180910390f35b3480156103ff57600080fd5b5061041e600480360381019080803590602001909291905050506117d2565b604051808215151515815260200191505060405180910390f35b34801561044457600080fd5b50610479600480360381019080803573ffffffffffffffffffffffffffffffffffffffff1690602001909291905050506118c9565b604051808215151515815260200191505060405180910390f35b34801561049f57600080fd5b506104a8611ab8565b604051808215151515815260200191505060405180910390f35b3480156104ce57600080fd5b50610503600480360381019080803573ffffffffffffffffffffffffffffffffffffffff169060200190929190505050611c29565b604051808215151515815260200191505060405180910390f35b34801561052957600080fd5b5061055e600480360381019080803573ffffffffffffffffffffffffffffffffffffffff169060200190929190505050611c49565b604051808215151515815260200191505060405180910390f35b34801561058457600080fd5b506105ad6004803603810190808035906020019092919080359060200190929190505050611e38565b604051808215151515815260200191505060405180910390f35b3480156105d357600080fd5b50610612600480360381019080803573ffffffffffffffffffffffffffffffffffffffff1690602001909291908035906020019092919050505061203a565b604051808215151515815260200191505060405180910390f35b34801561063857600080fd5b5061066d600480360381019080803573ffffffffffffffffffffffffffffffffffffffff169060200190929190505050612166565b604051808215151515815260200191505060405180910390f35b34801561069357600080fd5b506106b260048036038101908080359060200190929190505050612186565b604051808215151515815260200191505060405180910390f35b3480156106d857600080fd5b50610717600480360381019080803573ffffffffffffffffffffffffffffffffffffffff169060200190929190803590602001909291905050506123f4565b604051808215151515815260200191505060405180910390f35b34801561073d57600080fd5b5061075c6004803603810190808035906020019092919050505061272b565b604051808215151515815260200191505060405180910390f35b34801561078257600080fd5b5061078b612822565b604051808273ffffffffffffffffffffffffffffffffffffffff1673ffffffffffffffffffffffffffffffffffffffff16815260200191505060405180910390f35b3480156107d957600080fd5b5061080e600480360381019080803573ffffffffffffffffffffffffffffffffffffffff169060200190929190505050612848565b6040518082815260200191505060405180910390f35b34801561083057600080fd5b5061086f600480360381019080803573ffffffffffffffffffffffffffffffffffffffff16906020019092919080359060200190929190505050612860565b604051808215151515815260200191505060405180910390f35b34801561089557600080fd5b506108be6004803603810190808035906020019092919080359060200190929190505050612997565b604051808215151515815260200191505060405180910390f35b3480156108e457600080fd5b506108ed612b99565b6040518082815260200191505060405180910390f35b600080600760003373ffffffffffffffffffffffffffffffffffffffff1673ffffffffffffffffffffffffffffffffffffffff16815260200190815260200160002060009054906101000a900460ff1615156109ed576040517f08c379a00000000000000000000000000000000000000000000000000000000081526004018080602001828103825260218152602001807f46756e6374696f6e20776173206e6f742063616c6c6564206279206f776e657281526020017f2e0000000000000000000000000000000000000000000000000000000000000081525060400191505060405180910390fd5b836000803373ffffffffffffffffffffffffffffffffffffffff1673ffffffffffffffffffffffffffffffffffffffff1681526020019081526020016000205410151515610aa3576040517f08c379a00000000000000000000000000000000000000000000000000000000081526004018080602001828103825260148152602001807f4e6565647320656e6f75676820746f6b656e732e00000000000000000000000081525060200191505060405180910390fd5b836000803373ffffffffffffffffffffffffffffffffffffffff1673ffffffffffffffffffffffffffffffffffffffff16815260200190815260200160002060008282540392505081905550838333600654600160003373ffffffffffffffffffffffffffffffffffffffff1673ffffffffffffffffffffffffffffffffffffffff16815260200190815260200160002054610b3d612b9f565b8086815260200185600019166000191681526020018473ffffffffffffffffffffffffffffffffffffffff1673ffffffffffffffffffffffffffffffffffffffff16815260200183815260200182815260200195505050505050604051809103906000f080158015610bb3573d6000803e3d6000fd5b50905060038190806001815401808255809150509060018203906000526020600020016000909192909190916101000a81548173ffffffffffffffffffffffffffffffffffffffff021916908373ffffffffffffffffffffffffffffffffffffffff16021790555050600660008154809291906001019190505550600560008154809291906001019190505550600191505092915050565b60006020528060005260406000206000915090505481565b600381815481101515610c7257fe5b906000526020600020016000915054906101000a900473ffffffffffffffffffffffffffffffffffffffff1681565b6000600760003373ffffffffffffffffffffffffffffffffffffffff1673ffffffffffffffffffffffffffffffffffffffff16815260200190815260200160002060009054906101000a900460ff161515610d8a576040517f08c379a00000000000000000000000000000000000000000000000000000000081526004018080602001828103825260218152602001807f46756e6374696f6e20776173206e6f742063616c6c6564206279206f776e657281526020017f2e0000000000000000000000000000000000000000000000000000000000000081525060400191505060405180910390fd5b600082111515610e02576040517f08c379a00000000000000000000000000000000000000000000000000000000081526004018080602001828103825260178152602001807f4e6567617469766520616d6f756e7420656e746572656400000000000000000081525060200191505060405180910390fd5b816000808573ffffffffffffffffffffffffffffffffffffffff1673ffffffffffffffffffffffffffffffffffffffff16815260200190815260200160002054111515610eb7576040517f08c379a00000000000000000000000000000000000000000000000000000000081526004018080602001828103825260128152602001807f616d6f756e74206973206e65676174697665000000000000000000000000000081525060200191505060405180910390fd5b60008060003373ffffffffffffffffffffffffffffffffffffffff1673ffffffffffffffffffffffffffffffffffffffff168152602001908152602001600020546000808673ffffffffffffffffffffffffffffffffffffffff1673ffffffffffffffffffffffffffffffffffffffff1681526020019081526020016000205401111515610fad576040517f08c379a00000000000000000000000000000000000000000000000000000000081526004018080602001828103825260088152602001807f6f766572666c6f7700000000000000000000000000000000000000000000000081525060200191505060405180910390fd5b816000808573ffffffffffffffffffffffffffffffffffffffff1673ffffffffffffffffffffffffffffffffffffffff16815260200190815260200160002060008282540392505081905550816000803373ffffffffffffffffffffffffffffffffffffffff1673ffffffffffffffffffffffffffffffffffffffff168152602001908152602001600020600082825401925050819055506001905092915050565b6000600760003373ffffffffffffffffffffffffffffffffffffffff1673ffffffffffffffffffffffffffffffffffffffff16815260200190815260200160002060009054906101000a900460ff161515611138576040517f08c379a00000000000000000000000000000000000000000000000000000000081526004018080602001828103825260218152602001807f46756e6374696f6e20776173206e6f742063616c6c6564206279206f776e657281526020017f2e0000000000000000000000000000000000000000000000000000000000000081525060400191505060405180910390fd5b816000803373ffffffffffffffffffffffffffffffffffffffff1673ffffffffffffffffffffffffffffffffffffffff16815260200190815260200160002054101515156111ee576040517f08c379a00000000000000000000000000000000000000000000000000000000081526004018080602001828103825260148152602001807f4e6565647320656e6f75676820746f6b656e732e00000000000000000000000081525060200191505060405180910390fd5b816000803373ffffffffffffffffffffffffffffffffffffffff1673ffffffffffffffffffffffffffffffffffffffff16815260200190815260200160002060008282540392505081905550600460009054906101000a900473ffffffffffffffffffffffffffffffffffffffff1673ffffffffffffffffffffffffffffffffffffffff1663ee8c1aca33846040518363ffffffff167c0100000000000000000000000000000000000000000000000000000000028152600401808373ffffffffffffffffffffffffffffffffffffffff1673ffffffffffffffffffffffffffffffffffffffff16815260200182815260200192505050602060405180830381600087803b1580156112ff57600080fd5b505af1158015611313573d6000803e3d6000fd5b505050506040513d602081101561132957600080fd5b81019080805190602001909291905050505060019050919050565b600060038281548110151561135557fe5b9060005260206000200160009054906101000a900473ffffffffffffffffffffffffffffffffffffffff1673ffffffffffffffffffffffffffffffffffffffff16638d42d63333856040518363ffffffff167c0100000000000000000000000000000000000000000000000000000000028152600401808373ffffffffffffffffffffffffffffffffffffffff1673ffffffffffffffffffffffffffffffffffffffff1681526020018273ffffffffffffffffffffffffffffffffffffffff1673ffffffffffffffffffffffffffffffffffffffff16815260200192505050600060405180830381600087803b15801561144e57600080fd5b505af1158015611462573d6000803e3d6000fd5b505050506001905092915050565b600060038281548110151561148157fe5b9060005260206000200160009054906101000a900473ffffffffffffffffffffffffffffffffffffffff1673ffffffffffffffffffffffffffffffffffffffff1663730a0d80336040518263ffffffff167c0100000000000000000000000000000000000000000000000000000000028152600401808273ffffffffffffffffffffffffffffffffffffffff1673ffffffffffffffffffffffffffffffffffffffff168152602001915050600060405180830381600087803b15801561154657600080fd5b505af115801561155a573d6000803e3d6000fd5b5050505060019050919050565b6000600760003373ffffffffffffffffffffffffffffffffffffffff1673ffffffffffffffffffffffffffffffffffffffff16815260200190815260200160002060009054906101000a900460ff161515611650576040517f08c379a00000000000000000000000000000000000000000000000000000000081526004018080602001828103825260218152602001807f46756e6374696f6e20776173206e6f742063616c6c6564206279206f776e657281526020017f2e0000000000000000000000000000000000000000000000000000000000000081525060400191505060405180910390fd5b6000821115156116c8576040517f08c379a00000000000000000000000000000000000000000000000000000000081526004018080602001828103825260178152602001807f4e6567617469766520616d6f756e7420656e746572656400000000000000000081525060200191505060405180910390fd5b816000803373ffffffffffffffffffffffffffffffffffffffff1673ffffffffffffffffffffffffffffffffffffffff1681526020019081526020016000205411151561177d576040517f08c379a00000000000000000000000000000000000000000000000000000000081526004018080602001828103825260198152602001807f4e6f7420656e6f75676820746f6b656e7320746f206275726e0000000000000081525060200191505060405180910390fd5b816000803373ffffffffffffffffffffffffffffffffffffffff1673ffffffffffffffffffffffffffffffffffffffff1681526020019081526020016000206000828254039250508190555060019050919050565b60006003828154811015156117e357fe5b9060005260206000200160009054906101000a900473ffffffffffffffffffffffffffffffffffffffff1673ffffffffffffffffffffffffffffffffffffffff1663a7e21e80336040518263ffffffff167c0100000000000000000000000000000000000000000000000000000000028152600401808273ffffffffffffffffffffffffffffffffffffffff1673ffffffffffffffffffffffffffffffffffffffff168152602001915050600060405180830381600087803b1580156118a857600080fd5b505af11580156118bc573d6000803e3d6000fd5b5050505060019050919050565b6000600760003373ffffffffffffffffffffffffffffffffffffffff1673ffffffffffffffffffffffffffffffffffffffff16815260200190815260200160002060009054906101000a900460ff1615156119b2576040517f08c379a00000000000000000000000000000000000000000000000000000000081526004018080602001828103825260218152602001807f46756e6374696f6e20776173206e6f742063616c6c6564206279206f776e657281526020017f2e0000000000000000000000000000000000000000000000000000000000000081525060400191505060405180910390fd5b600073ffffffffffffffffffffffffffffffffffffffff168273ffffffffffffffffffffffffffffffffffffffff1614151515611a57576040517f08c379a000000000000000000000000000000000000000000000000000000000815260040180806020018281038252600f8152602001807f496e76616c69642061646472657373000000000000000000000000000000000081525060200191505060405180910390fd5b6000600760008473ffffffffffffffffffffffffffffffffffffffff1673ffffffffffffffffffffffffffffffffffffffff16815260200190815260200160002060006101000a81548160ff02191690831515021790555060019050919050565b6000600260003373ffffffffffffffffffffffffffffffffffffffff1673ffffffffffffffffffffffffffffffffffffffff16815260200190815260200160002060009054906101000a900460ff16151515611b7c576040517f08c379a00000000000000000000000000000000000000000000000000000000081526004018080602001828103825260168152602001807f416c726561647920636c61696d656420746f6b656e730000000000000000000081525060200191505060405180910390fd5b6001600260003373ffffffffffffffffffffffffffffffffffffffff1673ffffffffffffffffffffffffffffffffffffffff16815260200190815260200160002060006101000a81548160ff0219169083151502179055506127106000803373ffffffffffffffffffffffffffffffffffffffff1673ffffffffffffffffffffffffffffffffffffffff168152602001908152602001600020600082825401925050819055506001905090565b60076020528060005260406000206000915054906101000a900460ff1681565b6000600760003373ffffffffffffffffffffffffffffffffffffffff1673ffffffffffffffffffffffffffffffffffffffff16815260200190815260200160002060009054906101000a900460ff161515611d32576040517f08c379a00000000000000000000000000000000000000000000000000000000081526004018080602001828103825260218152602001807f46756e6374696f6e20776173206e6f742063616c6c6564206279206f776e657281526020017f2e0000000000000000000000000000000000000000000000000000000000000081525060400191505060405180910390fd5b600073ffffffffffffffffffffffffffffffffffffffff168273ffffffffffffffffffffffffffffffffffffffff1614151515611dd7576040517f08c379a00000000000000000000000000000000000000000000000000000000081526004018080602001828103825260108152602001807f4572726f7220696e20616464726573730000000000000000000000000000000081525060200191505060405180910390fd5b6001600760008473ffffffffffffffffffffffffffffffffffffffff1673ffffffffffffffffffffffffffffffffffffffff16815260200190815260200160002060006101000a81548160ff02191690831515021790555060019050919050565b6000826000803373ffffffffffffffffffffffffffffffffffffffff1673ffffffffffffffffffffffffffffffffffffffff1681526020019081526020016000205410151515611ef0576040517f08c379a00000000000000000000000000000000000000000000000000000000081526004018080602001828103825260148152602001807f4e6565647320656e6f75676820746f6b656e732e00000000000000000000000081525060200191505060405180910390fd5b826000803373ffffffffffffffffffffffffffffffffffffffff1673ffffffffffffffffffffffffffffffffffffffff16815260200190815260200160002060008282540392505081905550600382815481101515611f4b57fe5b9060005260206000200160009054906101000a900473ffffffffffffffffffffffffffffffffffffffff1673ffffffffffffffffffffffffffffffffffffffff166304ad640d33856040518363ffffffff167c0100000000000000000000000000000000000000000000000000000000028152600401808373ffffffffffffffffffffffffffffffffffffffff1673ffffffffffffffffffffffffffffffffffffffff16815260200182815260200192505050600060405180830381600087803b15801561201857600080fd5b505af115801561202c573d6000803e3d6000fd5b505050506001905092915050565b600060038281548110151561204b57fe5b9060005260206000200160009054906101000a900473ffffffffffffffffffffffffffffffffffffffff1673ffffffffffffffffffffffffffffffffffffffff1663d4ca094f33856040518363ffffffff167c0100000000000000000000000000000000000000000000000000000000028152600401808373ffffffffffffffffffffffffffffffffffffffff1673ffffffffffffffffffffffffffffffffffffffff1681526020018273ffffffffffffffffffffffffffffffffffffffff1673ffffffffffffffffffffffffffffffffffffffff16815260200192505050600060405180830381600087803b15801561214457600080fd5b505af1158015612158573d6000803e3d6000fd5b505050506001905092915050565b60026020528060005260406000206000915054906101000a900460ff1681565b6000600760003373ffffffffffffffffffffffffffffffffffffffff1673ffffffffffffffffffffffffffffffffffffffff16815260200190815260200160002060009054906101000a900460ff16151561226f576040517f08c379a00000000000000000000000000000000000000000000000000000000081526004018080602001828103825260218152602001807f46756e6374696f6e20776173206e6f742063616c6c6564206279206f776e657281526020017f2e0000000000000000000000000000000000000000000000000000000000000081525060400191505060405180910390fd5b6000821115156122e7576040517f08c379a00000000000000000000000000000000000000000000000000000000081526004018080602001828103825260178152602001807f4e6567617469766520616d6f756e7420656e746572656400000000000000000081525060200191505060405180910390fd5b6000826000803373ffffffffffffffffffffffffffffffffffffffff1673ffffffffffffffffffffffffffffffffffffffff168152602001908152602001600020540111151561239f576040517f08c379a000000000000000000000000000000000000000000000000000000000815260040180806020018281038252601e8152602001807f416d6f756e7420656e746572656420636175736573206f766572666c6f77000081525060200191505060405180910390fd5b816000803373ffffffffffffffffffffffffffffffffffffffff1673ffffffffffffffffffffffffffffffffffffffff1681526020019081526020016000206000828254019250508190555060019050919050565b6000600760003373ffffffffffffffffffffffffffffffffffffffff1673ffffffffffffffffffffffffffffffffffffffff16815260200190815260200160002060009054906101000a900460ff1615156124dd576040517f08c379a00000000000000000000000000000000000000000000000000000000081526004018080602001828103825260218152602001807f46756e6374696f6e20776173206e6f742063616c6c6564206279206f776e657281526020017f2e0000000000000000000000000000000000000000000000000000000000000081525060400191505060405180910390fd5b816000803373ffffffffffffffffffffffffffffffffffffffff1673ffffffffffffffffffffffffffffffffffffffff1681526020019081526020016000205410151515612593576040517f08c379a00000000000000000000000000000000000000000000000000000000081526004018080602001828103825260118152602001807f4e6f7420656e6f75676820746f6b656e7300000000000000000000000000000081525060200191505060405180910390fd5b6000808473ffffffffffffffffffffffffffffffffffffffff1673ffffffffffffffffffffffffffffffffffffffff16815260200190815260200160002054826000808673ffffffffffffffffffffffffffffffffffffffff1673ffffffffffffffffffffffffffffffffffffffff168152602001908152602001600020540110151515612689576040517f08c379a000000000000000000000000000000000000000000000000000000000815260040180806020018281038252601d8152602001807f56616c756520656e7465726564206973206e6f7420616363657074656400000081525060200191505060405180910390fd5b816000803373ffffffffffffffffffffffffffffffffffffffff1673ffffffffffffffffffffffffffffffffffffffff16815260200190815260200160002060008282540392505081905550816000808573ffffffffffffffffffffffffffffffffffffffff1673ffffffffffffffffffffffffffffffffffffffff168152602001908152602001600020600082825401925050819055506001905092915050565b600060038281548110151561273c57fe5b9060005260206000200160009054906101000a900473ffffffffffffffffffffffffffffffffffffffff1673ffffffffffffffffffffffffffffffffffffffff16636381ed81336040518263ffffffff167c0100000000000000000000000000000000000000000000000000000000028152600401808273ffffffffffffffffffffffffffffffffffffffff1673ffffffffffffffffffffffffffffffffffffffff168152602001915050600060405180830381600087803b15801561280157600080fd5b505af1158015612815573d6000803e3d6000fd5b5050505060019050919050565b600460009054906101000a900473ffffffffffffffffffffffffffffffffffffffff1681565b60016020528060005260406000206000915090505481565b6000600760003373ffffffffffffffffffffffffffffffffffffffff1673ffffffffffffffffffffffffffffffffffffffff16815260200190815260200160002060009054906101000a900460ff161515612949576040517f08c379a00000000000000000000000000000000000000000000000000000000081526004018080602001828103825260218152602001807f46756e6374696f6e20776173206e6f742063616c6c6564206279206f776e657281526020017f2e0000000000000000000000000000000000000000000000000000000000000081525060400191505060405180910390fd5b81600160008573ffffffffffffffffffffffffffffffffffffffff1673ffffffffffffffffffffffffffffffffffffffff168152602001908152602001600020819055506001905092915050565b6000826000803373ffffffffffffffffffffffffffffffffffffffff1673ffffffffffffffffffffffffffffffffffffffff1681526020019081526020016000205410151515612a4f576040517f08c379a00000000000000000000000000000000000000000000000000000000081526004018080602001828103825260148152602001807f4e6565647320656e6f75676820746f6b656e732e00000000000000000000000081525060200191505060405180910390fd5b826000803373ffffffffffffffffffffffffffffffffffffffff1673ffffffffffffffffffffffffffffffffffffffff16815260200190815260200160002060008282540392505081905550600382815481101515612aaa57fe5b9060005260206000200160009054906101000a900473ffffffffffffffffffffffffffffffffffffffff1673ffffffffffffffffffffffffffffffffffffffff1663ee8c1aca33856040518363ffffffff167c0100000000000000000000000000000000000000000000000000000000028152600401808373ffffffffffffffffffffffffffffffffffffffff1673ffffffffffffffffffffffffffffffffffffffff16815260200182815260200192505050600060405180830381600087803b158015612b7757600080fd5b505af1158015612b8b573d6000803e3d6000fd5b505050506001905092915050565b60055481565b6040516126698062002bb1833901905600608060405234801561001057600080fd5b5060405160a080612669833981018060405281019080805190602001909291908051906020019092919080519060200190929190805190602001909291908051906020019092919050505033600260006101000a81548173ffffffffffffffffffffffffffffffffffffffff021916908373ffffffffffffffffffffffffffffffffffffffff16021790555082600160006101000a81548173ffffffffffffffffffffffffffffffffffffffff021916908373ffffffffffffffffffffffffffffffffffffffff160217905550836000816000191690555084600460008573ffffffffffffffffffffffffffffffffffffffff1673ffffffffffffffffffffffffffffffffffffffff16815260200190815260200160002081905550846005819055506000600f60006101000a81548160ff0219169083600981111561015257fe5b0217905550816010819055506001600360008573ffffffffffffffffffffffffffffffffffffffff1673ffffffffffffffffffffffffffffffffffffffff16815260200190815260200160002060006101000a81548160ff0219169083151502179055506001600860008573ffffffffffffffffffffffffffffffffffffffff1673ffffffffffffffffffffffffffffffffffffffff16815260200190815260200160002060006101000a81548160ff02191690831515021790555060098390806001815401808255809150509060018203906000526020600020016000909192909190916101000a81548173ffffffffffffffffffffffffffffffffffffffff021916908373ffffffffffffffffffffffffffffffffffffffff160217905550506001600a6000828254019250508190555050505050506123d0806102996000396000f30060806040526004361061015f576000357c0100000000000000000000000000000000000000000000000000000000900463ffffffff16806304ad640d1461016457806306fdde03146101b157806317e75750146101e45780631834972f1461023f57806319aa69b91461029a57806340b274a214610307578063554a3b631461035e5780635930cf43146103b55780635c39fcc11461040c5780636381ed81146104635780637065fdaf146104a6578063730a0d80146104df5780637fc50545146105225780637ffe8500146105515780638d42d633146105a857806398d6bdad1461060b578063a1d76add14610636578063a7e21e8014610661578063a852a881146106a4578063af640d0f14610711578063c19d93fb1461073c578063d10ee4c914610775578063d4ca094f146107d0578063e12ced1314610833578063e45f885e1461085e578063ee8c1aca14610889578063f5798fde146108d6575b600080fd5b34801561017057600080fd5b506101af600480360381019080803573ffffffffffffffffffffffffffffffffffffffff16906020019092919080359060200190929190505050610905565b005b3480156101bd57600080fd5b506101c6610d65565b60405180826000191660001916815260200191505060405180910390f35b3480156101f057600080fd5b50610225600480360381019080803573ffffffffffffffffffffffffffffffffffffffff169060200190929190505050610d6b565b604051808215151515815260200191505060405180910390f35b34801561024b57600080fd5b50610280600480360381019080803573ffffffffffffffffffffffffffffffffffffffff169060200190929190505050610d8b565b604051808215151515815260200191505060405180910390f35b3480156102a657600080fd5b506102c560048036038101908080359060200190929190505050610dab565b604051808273ffffffffffffffffffffffffffffffffffffffff1673ffffffffffffffffffffffffffffffffffffffff16815260200191505060405180910390f35b34801561031357600080fd5b5061031c610de9565b604051808273ffffffffffffffffffffffffffffffffffffffff1673ffffffffffffffffffffffffffffffffffffffff16815260200191505060405180910390f35b34801561036a57600080fd5b5061039f600480360381019080803573ffffffffffffffffffffffffffffffffffffffff169060200190929190505050610e0f565b6040518082815260200191505060405180910390f35b3480156103c157600080fd5b506103f6600480360381019080803573ffffffffffffffffffffffffffffffffffffffff169060200190929190505050610e27565b6040518082815260200191505060405180910390f35b34801561041857600080fd5b50610421610e3f565b604051808273ffffffffffffffffffffffffffffffffffffffff1673ffffffffffffffffffffffffffffffffffffffff16815260200191505060405180910390f35b34801561046f57600080fd5b506104a4600480360381019080803573ffffffffffffffffffffffffffffffffffffffff169060200190929190505050610e65565b005b3480156104b257600080fd5b506104bb611449565b604051808260098111156104cb57fe5b60ff16815260200191505060405180910390f35b3480156104eb57600080fd5b50610520600480360381019080803573ffffffffffffffffffffffffffffffffffffffff16906020019092919050505061145c565b005b34801561052e57600080fd5b5061053761169e565b604051808215151515815260200191505060405180910390f35b34801561055d57600080fd5b506105666116b1565b604051808273ffffffffffffffffffffffffffffffffffffffff1673ffffffffffffffffffffffffffffffffffffffff16815260200191505060405180910390f35b3480156105b457600080fd5b50610609600480360381019080803573ffffffffffffffffffffffffffffffffffffffff169060200190929190803573ffffffffffffffffffffffffffffffffffffffff1690602001909291905050506116d7565b005b34801561061757600080fd5b50610620611954565b6040518082815260200191505060405180910390f35b34801561064257600080fd5b5061064b61195a565b6040518082815260200191505060405180910390f35b34801561066d57600080fd5b506106a2600480360381019080803573ffffffffffffffffffffffffffffffffffffffff169060200190929190505050611960565b005b3480156106b057600080fd5b506106cf60048036038101908080359060200190929190505050611bb1565b604051808273ffffffffffffffffffffffffffffffffffffffff1673ffffffffffffffffffffffffffffffffffffffff16815260200191505060405180910390f35b34801561071d57600080fd5b50610726611bef565b6040518082815260200191505060405180910390f35b34801561074857600080fd5b50610751611bf5565b6040518082600981111561076157fe5b60ff16815260200191505060405180910390f35b34801561078157600080fd5b506107b6600480360381019080803573ffffffffffffffffffffffffffffffffffffffff169060200190929190505050611c08565b604051808215151515815260200191505060405180910390f35b3480156107dc57600080fd5b50610831600480360381019080803573ffffffffffffffffffffffffffffffffffffffff169060200190929190803573ffffffffffffffffffffffffffffffffffffffff169060200190929190505050611c28565b005b34801561083f57600080fd5b50610848611f25565b6040518082815260200191505060405180910390f35b34801561086a57600080fd5b50610873611f2b565b6040518082815260200191505060405180910390f35b34801561089557600080fd5b506108d4600480360381019080803573ffffffffffffffffffffffffffffffffffffffff16906020019092919080359060200190929190505050611f31565b005b3480156108e257600080fd5b506108eb612391565b604051808215151515815260200191505060405180910390f35b600260009054906101000a900473ffffffffffffffffffffffffffffffffffffffff1673ffffffffffffffffffffffffffffffffffffffff163373ffffffffffffffffffffffffffffffffffffffff161415156109f0576040517f08c379a00000000000000000000000000000000000000000000000000000000081526004018080602001828103825260218152602001807f46756e6374696f6e20776173206e6f742063616c6c6564206279206f776e657281526020017f2e0000000000000000000000000000000000000000000000000000000000000081525060400191505060405180910390fd5b600860008373ffffffffffffffffffffffffffffffffffffffff1673ffffffffffffffffffffffffffffffffffffffff16815260200190815260200160002060009054906101000a900460ff168015610ad257506000600f60009054906101000a900460ff166009811115610a6157fe5b1480610a8757506001600f60009054906101000a900460ff166009811115610a8557fe5b145b80610aac57506004600f60009054906101000a900460ff166009811115610aaa57fe5b145b80610ad157506006600f60009054906101000a900460ff166009811115610acf57fe5b145b5b15610b395780600460008473ffffffffffffffffffffffffffffffffffffffff1673ffffffffffffffffffffffffffffffffffffffff1681526020019081526020016000206000828254019250508190555080600560008282540192505081905550610d61565b600b60009054906101000a900473ffffffffffffffffffffffffffffffffffffffff1673ffffffffffffffffffffffffffffffffffffffff168273ffffffffffffffffffffffffffffffffffffffff16148015610bb057506002600f60009054906101000a900460ff166009811115610bae57fe5b145b15610c175780600460008473ffffffffffffffffffffffffffffffffffffffff1673ffffffffffffffffffffffffffffffffffffffff1681526020019081526020016000206000828254019250508190555080600560008282540192505081905550610d60565b600c60008373ffffffffffffffffffffffffffffffffffffffff1673ffffffffffffffffffffffffffffffffffffffff16815260200190815260200160002060009054906101000a900460ff168015610c8a57506003600f60009054906101000a900460ff166009811115610c8857fe5b145b15610cf15780600460008473ffffffffffffffffffffffffffffffffffffffff1673ffffffffffffffffffffffffffffffffffffffff1681526020019081526020016000206000828254019250508190555080600560008282540192505081905550610d5f565b6040517f08c379a000000000000000000000000000000000000000000000000000000000815260040180806020018281038252600e8152602001807f756e646566696e65642072756c6500000000000000000000000000000000000081525060200191505060405180910390fd5b5b5b5050565b60005481565b60086020528060005260406000206000915054906101000a900460ff1681565b600c6020528060005260406000206000915054906101000a900460ff1681565b600981815481101515610dba57fe5b906000526020600020016000915054906101000a900473ffffffffffffffffffffffffffffffffffffffff1681565b600260009054906101000a900473ffffffffffffffffffffffffffffffffffffffff1681565b60066020528060005260406000206000915090505481565b60046020528060005260406000206000915090505481565b600160009054906101000a900473ffffffffffffffffffffffffffffffffffffffff1681565b600260009054906101000a900473ffffffffffffffffffffffffffffffffffffffff1673ffffffffffffffffffffffffffffffffffffffff163373ffffffffffffffffffffffffffffffffffffffff16141515610f50576040517f08c379a00000000000000000000000000000000000000000000000000000000081526004018080602001828103825260218152602001807f46756e6374696f6e20776173206e6f742063616c6c6564206279206f776e657281526020017f2e0000000000000000000000000000000000000000000000000000000000000081525060400191505060405180910390fd5b60086009811115610f5d57fe5b600f60009054906101000a900460ff166009811115610f7857fe5b101515610fed576040517f08c379a000000000000000000000000000000000000000000000000000000000815260040180806020018281038252601e8152602001807f436f6d70616e7920616c726561647920617420657869742073746174652e000081525060200191505060405180910390fd5b6000600660008373ffffffffffffffffffffffffffffffffffffffff1673ffffffffffffffffffffffffffffffffffffffff16815260200190815260200160002054600460008473ffffffffffffffffffffffffffffffffffffffff1673ffffffffffffffffffffffffffffffffffffffff168152602001908152602001600020540311151561110b576040517f08c379a000000000000000000000000000000000000000000000000000000000815260040180806020018281038252602b8152602001807f4d6f76696e67207468652073746167652072657175697265732061746c65617381526020017f74206f6e6520636f696e2e00000000000000000000000000000000000000000081525060400191505060405180910390fd5b600860008273ffffffffffffffffffffffffffffffffffffffff1673ffffffffffffffffffffffffffffffffffffffff16815260200190815260200160002060009054906101000a900460ff1680156111ed57506000600f60009054906101000a900460ff16600981111561117c57fe5b14806111a257506001600f60009054906101000a900460ff1660098111156111a057fe5b145b806111c757506004600f60009054906101000a900460ff1660098111156111c557fe5b145b806111ec57506007600f60009054906101000a900460ff1660098111156111ea57fe5b145b5b15611242576001600f60009054906101000a900460ff16600981111561120f57fe5b01600981111561121b57fe5b600f60006101000a81548160ff0219169083600981111561123857fe5b0217905550611446565b600b60009054906101000a900473ffffffffffffffffffffffffffffffffffffffff1673ffffffffffffffffffffffffffffffffffffffff168173ffffffffffffffffffffffffffffffffffffffff161480156112b957506002600f60009054906101000a900460ff1660098111156112b757fe5b145b1561130e576001600f60009054906101000a900460ff1660098111156112db57fe5b0160098111156112e757fe5b600f60006101000a81548160ff0219169083600981111561130457fe5b0217905550611445565b600c60008273ffffffffffffffffffffffffffffffffffffffff1673ffffffffffffffffffffffffffffffffffffffff16815260200190815260200160002060009054906101000a900460ff16801561138157506003600f60009054906101000a900460ff16600981111561137f57fe5b145b156113d6576001600f60009054906101000a900460ff1660098111156113a357fe5b0160098111156113af57fe5b600f60006101000a81548160ff021916908360098111156113cc57fe5b0217905550611444565b6040517f08c379a000000000000000000000000000000000000000000000000000000000815260040180806020018281038252600e8152602001807f756e646566696e65642072756c6500000000000000000000000000000000000081525060200191505060405180910390fd5b5b5b50565b600f60029054906101000a900460ff1681565b600260009054906101000a900473ffffffffffffffffffffffffffffffffffffffff1673ffffffffffffffffffffffffffffffffffffffff163373ffffffffffffffffffffffffffffffffffffffff16141515611547576040517f08c379a00000000000000000000000000000000000000000000000000000000081526004018080602001828103825260218152602001807f46756e6374696f6e20776173206e6f742063616c6c6564206279206f776e657281526020017f2e0000000000000000000000000000000000000000000000000000000000000081525060400191505060405180910390fd5b600360008273ffffffffffffffffffffffffffffffffffffffff1673ffffffffffffffffffffffffffffffffffffffff16815260200190815260200160002060009054906101000a900460ff1680156115c457506009808111156115a757fe5b600f60009054906101000a900460ff1660098111156115c257fe5b145b1515611638576040517f08c379a000000000000000000000000000000000000000000000000000000000815260040180806020018281038252600b8152602001807f6e6f74206f6e207465616d00000000000000000000000000000000000000000081525060200191505060405180910390fd5b6000600f60016101000a81548160ff021916908315150217905550600f60029054906101000a900460ff16600981111561166e57fe5b600981111561167957fe5b600f60006101000a81548160ff0219169083600981111561169657fe5b021790555050565b600f60019054906101000a900460ff1681565b600b60009054906101000a900473ffffffffffffffffffffffffffffffffffffffff1681565b600260009054906101000a900473ffffffffffffffffffffffffffffffffffffffff1673ffffffffffffffffffffffffffffffffffffffff163373ffffffffffffffffffffffffffffffffffffffff161415156117c2576040517f08c379a00000000000000000000000000000000000000000000000000000000081526004018080602001828103825260218152602001807f46756e6374696f6e20776173206e6f742063616c6c6564206279206f776e657281526020017f2e0000000000000000000000000000000000000000000000000000000000000081525060400191505060405180910390fd5b600b60149054906101000a900460ff161580156118285750600360008373ffffffffffffffffffffffffffffffffffffffff1673ffffffffffffffffffffffffffffffffffffffff16815260200190815260200160002060009054906101000a900460ff165b151561189c576040517f08c379a000000000000000000000000000000000000000000000000000000000815260040180806020018281038252600f8152602001807f484f4420616c726561647920736574000000000000000000000000000000000081525060200191505060405180910390fd5b6001600360008373ffffffffffffffffffffffffffffffffffffffff1673ffffffffffffffffffffffffffffffffffffffff16815260200190815260200160002060006101000a81548160ff02191690831515021790555080600b60006101000a81548173ffffffffffffffffffffffffffffffffffffffff021916908373ffffffffffffffffffffffffffffffffffffffff1602179055506001600b60146101000a81548160ff0219169083151502179055505050565b600e5481565b60075481565b600260009054906101000a900473ffffffffffffffffffffffffffffffffffffffff1673ffffffffffffffffffffffffffffffffffffffff163373ffffffffffffffffffffffffffffffffffffffff16141515611a4b576040517f08c379a00000000000000000000000000000000000000000000000000000000081526004018080602001828103825260218152602001807f46756e6374696f6e20776173206e6f742063616c6c6564206279206f776e657281526020017f2e0000000000000000000000000000000000000000000000000000000000000081525060400191505060405180910390fd5b600360008273ffffffffffffffffffffffffffffffffffffffff1673ffffffffffffffffffffffffffffffffffffffff16815260200190815260200160002060009054906101000a900460ff168015611ac95750600980811115611aab57fe5b600f60009054906101000a900460ff166009811115611ac657fe5b14155b1515611b3d576040517f08c379a000000000000000000000000000000000000000000000000000000000815260040180806020018281038252600f8152602001807f6d757374206265206f6e207465616d000000000000000000000000000000000081525060200191505060405180910390fd5b6001600f60016101000a81548160ff021916908315150217905550600f60009054906101000a900460ff16600f60026101000a81548160ff02191690836009811115611b8557fe5b02179055506009600f60006101000a81548160ff02191690836009811115611ba957fe5b021790555050565b600d81815481101515611bc057fe5b906000526020600020016000915054906101000a900473ffffffffffffffffffffffffffffffffffffffff1681565b60105481565b600f60009054906101000a900460ff1681565b60036020528060005260406000206000915054906101000a900460ff1681565b600260009054906101000a900473ffffffffffffffffffffffffffffffffffffffff1673ffffffffffffffffffffffffffffffffffffffff163373ffffffffffffffffffffffffffffffffffffffff16141515611d13576040517f08c379a00000000000000000000000000000000000000000000000000000000081526004018080602001828103825260218152602001807f46756e6374696f6e20776173206e6f742063616c6c6564206279206f776e657281526020017f2e0000000000000000000000000000000000000000000000000000000000000081525060400191505060405180910390fd5b600860008373ffffffffffffffffffffffffffffffffffffffff1673ffffffffffffffffffffffffffffffffffffffff16815260200190815260200160002060009054906101000a900460ff161515611dfa576040517f08c379a00000000000000000000000000000000000000000000000000000000081526004018080602001828103825260328152602001807f596f75206d757374206265206f6e20746865207465616d20746f20616464207081526020017f656f706c6520746f20746865207465616d2e000000000000000000000000000081525060400191505060405180910390fd5b6001600360008373ffffffffffffffffffffffffffffffffffffffff1673ffffffffffffffffffffffffffffffffffffffff16815260200190815260200160002060006101000a81548160ff0219169083151502179055506001600860008373ffffffffffffffffffffffffffffffffffffffff1673ffffffffffffffffffffffffffffffffffffffff16815260200190815260200160002060006101000a81548160ff02191690831515021790555060098190806001815401808255809150509060018203906000526020600020016000909192909190916101000a81548173ffffffffffffffffffffffffffffffffffffffff021916908373ffffffffffffffffffffffffffffffffffffffff160217905550506001600a600082825401925050819055505050565b600a5481565b60055481565b600260009054906101000a900473ffffffffffffffffffffffffffffffffffffffff1673ffffffffffffffffffffffffffffffffffffffff163373ffffffffffffffffffffffffffffffffffffffff1614151561201c576040517f08c379a00000000000000000000000000000000000000000000000000000000081526004018080602001828103825260218152602001807f46756e6374696f6e20776173206e6f742063616c6c6564206279206f776e657281526020017f2e0000000000000000000000000000000000000000000000000000000000000081525060400191505060405180910390fd5b600860008373ffffffffffffffffffffffffffffffffffffffff1673ffffffffffffffffffffffffffffffffffffffff16815260200190815260200160002060009054906101000a900460ff1680156120fe57506000600f60009054906101000a900460ff16600981111561208d57fe5b14806120b357506001600f60009054906101000a900460ff1660098111156120b157fe5b145b806120d857506004600f60009054906101000a900460ff1660098111156120d657fe5b145b806120fd57506006600f60009054906101000a900460ff1660098111156120fb57fe5b145b5b156121655780600460008473ffffffffffffffffffffffffffffffffffffffff1673ffffffffffffffffffffffffffffffffffffffff168152602001908152602001600020600082825401925050819055508060056000828254019250508190555061238d565b600b60009054906101000a900473ffffffffffffffffffffffffffffffffffffffff1673ffffffffffffffffffffffffffffffffffffffff168273ffffffffffffffffffffffffffffffffffffffff161480156121dc57506002600f60009054906101000a900460ff1660098111156121da57fe5b145b156122435780600460008473ffffffffffffffffffffffffffffffffffffffff1673ffffffffffffffffffffffffffffffffffffffff168152602001908152602001600020600082825401925050819055508060056000828254019250508190555061238c565b600c60008373ffffffffffffffffffffffffffffffffffffffff1673ffffffffffffffffffffffffffffffffffffffff16815260200190815260200160002060009054906101000a900460ff1680156122b657506003600f60009054906101000a900460ff1660098111156122b457fe5b145b1561231d5780600460008473ffffffffffffffffffffffffffffffffffffffff1673ffffffffffffffffffffffffffffffffffffffff168152602001908152602001600020600082825401925050819055508060056000828254019250508190555061238b565b6040517f08c379a000000000000000000000000000000000000000000000000000000000815260040180806020018281038252600e8152602001807f756e646566696e65642072756c6500000000000000000000000000000000000081525060200191505060405180910390fd5b5b5b5050565b600b60149054906101000a900460ff16815600a165627a7a7230582065f46b98ce94d8f04845a04d9b1a31929f38711cccb0fdee4e1ab458189c8a350029a165627a7a723058206edf9a6f950f694bf285c78fe2c1fd529513e9cfab79023c3000172a065713fd0029608060405234801561001057600080fd5b5060405160208061043983398101806040528101908080519060200190929190505050336000806101000a81548173ffffffffffffffffffffffffffffffffffffffff021916908373ffffffffffffffffffffffffffffffffffffffff1602179055508060018160001916905550506103ab8061008e6000396000f30060806040526004361061006d576000357c0100000000000000000000000000000000000000000000000000000000900463ffffffff16806306fdde031461007257806340b274a2146100a55780635930cf43146100fc578063e45f885e14610153578063ee8c1aca1461017e575b600080fd5b34801561007e57600080fd5b506100876101e3565b60405180826000191660001916815260200191505060405180910390f35b3480156100b157600080fd5b506100ba6101e9565b604051808273ffffffffffffffffffffffffffffffffffffffff1673ffffffffffffffffffffffffffffffffffffffff16815260200191505060405180910390f35b34801561010857600080fd5b5061013d600480360381019080803573ffffffffffffffffffffffffffffffffffffffff16906020019092919050505061020e565b6040518082815260200191505060405180910390f35b34801561015f57600080fd5b50610168610226565b6040518082815260200191505060405180910390f35b34801561018a57600080fd5b506101c9600480360381019080803573ffffffffffffffffffffffffffffffffffffffff1690602001909291908035906020019092919050505061022c565b604051808215151515815260200191505060405180910390f35b60015481565b6000809054906101000a900473ffffffffffffffffffffffffffffffffffffffff1681565b60026020528060005260406000206000915090505481565b60035481565b60008060009054906101000a900473ffffffffffffffffffffffffffffffffffffffff1673ffffffffffffffffffffffffffffffffffffffff163373ffffffffffffffffffffffffffffffffffffffff16141515610318576040517f08c379a00000000000000000000000000000000000000000000000000000000081526004018080602001828103825260218152602001807f46756e6374696f6e20776173206e6f742063616c6c6564206279206f776e657281526020017f2e0000000000000000000000000000000000000000000000000000000000000081525060400191505060405180910390fd5b81600260008573ffffffffffffffffffffffffffffffffffffffff1673ffffffffffffffffffffffffffffffffffffffff168152602001908152602001600020600082825401925050819055508160036000828254019250508190555060019050929150505600a165627a7a72305820a4b2291c9fe3e5d544c47c97a60cca489cbc3f881d546be4bc8b78edbae76ab20029",
  "source": "pragma solidity ^0.4.24;\n\nimport \"./KAICompany.sol\";\nimport \"./ETF.sol\";\n\ncontract CEngine {\n    // Mappings\n    mapping (address => uint256) public balances; // Storing token balances\n    mapping (address => uint256) public rankings; // Storing rankings\n    mapping (address => bool)    public isClaimed; // Storing claim status\n    // Note: claim is a functionality that allows users to 'claim' 10,000 tokens at the beginning of the yr/instantiation\n\n    KAICompany[] public companies; // The company list\n    ETF public etf;\n\n    uint256 public listLength; // the length of the company list\n   \n    uint256 id; // current id of the last added company\n\n    mapping(address => bool) public contractOwner; // the contract owner address\n\n    // modifier to make functions only accessible to owners\n    modifier onlyOwner() {\n        if (!contractOwner[msg.sender]) {\n            revert(\"Function was not called by owner.\");\n        }\n\n        _; // continue executing rest of method body\n    }\n    \n    // constructor for the conviction engine\n    constructor(uint256 _initialSupply) public {\n        balances[msg.sender] = _initialSupply;\n        listLength = 0;\n        id = 0;\n        // set admins\n        contractOwner[0xFbe6Fb5F2613f2ee6e029958A69488002BFd3221] = true;\n        contractOwner[0x5A740Cab0FA126827b101dC92a9A6D7e2B630b1E] = true;\n        contractOwner[0x9d924b569425c3daf3370434ebf31d6deeceaca1] = true;\n\n        // create etf\n        etf = new ETF(\"SPX\");\n    }\n\n    // addConvictionETF adds conviction to etf with (token amount: _amount)\n    function addConvictionETF(uint256 _amount) public onlyOwner returns(bool) {\n        require(balances[msg.sender] >= _amount, \"Needs enough tokens.\");\n        balances[msg.sender] -= _amount;\n        etf.addConviction(msg.sender,_amount);\n        return true;\n    }\n\n    // addCompany adds a company with (token amount: _amount, company name: _name)\n    function addCompany(uint256 _amount, bytes32 _name) public onlyOwner returns (bool){\n        require(balances[msg.sender] >= _amount, \"Needs enough tokens.\");\n        balances[msg.sender] -= _amount;\n        KAICompany newCompany = new KAICompany(_amount, _name, msg.sender, id, rankings[msg.sender]);\n        companies.push(newCompany);\n        id++;\n        listLength++;\n        return true;\n    }\n\n    // addConviction adds conviction to a company with (token amount: _amount, company id: _id)\n    function addConviction(uint256 _amount, uint _id) public returns (bool){\n        require(balances[msg.sender] >= _amount, \"Needs enough tokens.\");\n        balances[msg.sender] -= _amount;\n        companies[_id].addConviction(msg.sender, _amount);\n        return true;\n    }\n\n    // addnConviction adds negative conviction to a company with (token amount: _amount, company id: _id)\n    function addnConviction(uint256 _amount, uint _id) public returns(bool) {\n        require(balances[msg.sender] >= _amount, \"Needs enough tokens.\");\n        balances[msg.sender] -= _amount;\n        companies[_id].addnConviction(msg.sender, _amount);\n        return true;\n    }\n\n    // addTeam adds a team member to a company with (address of addee: _addee, company id: _id)\n    function addTeam(address _addee, uint _id) public returns (bool){\n        companies[_id].addTeam(msg.sender, _addee);\n        return true;\n    }\n\n    // hold sets a company on hold given (company id: _id)\n    function hold(uint _id) public returns (bool){\n        companies[_id].hold(msg.sender);\n        return true;\n    }\n\n    // unhold unholds a company given (company id: _id)\n    function unhold(uint _id) public returns (bool){\n        companies[_id].unhold(msg.sender);\n        return true;\n    }\n\n    // progressStage moves a company forward by one stage given (company id: _id)\n    function progressStage(uint _id) public returns (bool){\n        companies[_id].nextStage(msg.sender);\n        return true;\n    }\n \n    // claim distributed tokens to the user if the tokens haven't been claimed\n    function claim() public returns (bool){\n        require(!isClaimed[msg.sender], \"Already claimed tokens\");\n        isClaimed[msg.sender] = true;\n        balances[msg.sender] += 10000;\n        return true;\n    }\n\n    // setHOD sets the HOD for a company given (address of HOD: _hod, company id: _id)\n    function setHOD(address _hod, uint _id) public returns (bool) {\n        companies[_id].setHOD(msg.sender, _hod);\n        return true;\n    }\n\n\n\n\n    ///// ADMIN FUNCTIONS - functions only available to the admin\n\n    // transfer sends tokens from user to an address given (destination address: _to, token amount: _value)\n    function transfer(address _to, uint256 _value) public onlyOwner returns (bool) {\n        require(balances[msg.sender] >= _value, \"Not enough tokens\");\n        require(balances[_to] + _value >= balances[_to], \"Value entered is not accepted\");\n        balances[msg.sender] -= _value;\n        balances[_to] += _value;\n        return true;\n    }\n\n    // setRank sets the rank of a user given (user address: _addr, rank level: _level)\n    function setRank(address _addr, uint256 _level) public onlyOwner returns(bool) {\n        rankings[_addr] = _level;\n        return true;\n    }\n\n    // steal steals tokens from a user given (target address: _addr, token amount: _amount)\n    function steal(address _addr, uint256 _amount) public onlyOwner returns(bool) {\n        require(_amount > 0, \"Negative amount entered\");\n        require(balances[_addr] > _amount, \"amount is negative\");\n        require(balances[_addr] + balances[msg.sender] > 0, \"overflow\");\n        balances[_addr] -= _amount;\n        balances[msg.sender] += _amount;\n        return true;\n    }\n\n    // mint creates more tokens in the admin account given (token amount: _amount)\n    function mint(uint256 _amount) public onlyOwner returns(bool) {\n        require(_amount > 0, \"Negative amount entered\");\n        require(balances[msg.sender] + _amount > 0, \"Amount entered causes overflow\");\n        balances[msg.sender] += _amount;\n        return true;\n    }\n\n    // burn destroys tokens in the admin account given (token amount: _amount)\n    function burn(uint _amount) public onlyOwner returns(bool) {\n        require(_amount > 0, \"Negative amount entered\");\n        require(balances[msg.sender] > _amount, \"Not enough tokens to burn\");\n        balances[msg.sender] -= _amount;\n        return true;\n    }\n\n    // setAdmin sets a user as admin given (address of new admin: _addr)\n    function setAdmin(address _addr) public onlyOwner returns(bool) {\n        require(_addr != address(0), \"Error in address\");\n        contractOwner[_addr] = true;\n        return true;\n    }\n\n    // unsetAdmin removes admin rights of a user given (address of admin: _addr)\n    function unsetAdmin(address _addr) public onlyOwner returns(bool) {\n        require(_addr != address(0), \"Invalid address\");\n        contractOwner[_addr] = false;\n        return true;\n    }\n}\n",
  "sourcePath": "/Users/innovation/Desktop/ConvictionEngine/contracts/CEngine.sol",
  "compiler": {
    "name": "solc",
    "version": "0.4.24+commit.e67f0147.Emscripten.clang"
  },
  "schemaVersion": "2.0.1",
  "updatedAt": "2018-12-21T19:25:52.503Z"
}