{
  "contractName": "CEngine",
  "abi": [
    {
      "constant": true,
      "inputs": [
        {
          "name": "",
          "type": "address"
        }
      ],
      "name": "balances",
      "outputs": [
        {
          "name": "",
          "type": "uint256"
        }
      ],
      "payable": false,
      "stateMutability": "view",
      "type": "function"
    },
    {
      "constant": true,
      "inputs": [
        {
          "name": "",
          "type": "uint256"
        }
      ],
      "name": "companies",
      "outputs": [
        {
          "name": "",
          "type": "address"
        }
      ],
      "payable": false,
      "stateMutability": "view",
      "type": "function"
    },
    {
      "constant": true,
      "inputs": [
        {
          "name": "",
          "type": "address"
        }
      ],
      "name": "isClaimed",
      "outputs": [
        {
          "name": "",
          "type": "bool"
        }
      ],
      "payable": false,
      "stateMutability": "view",
      "type": "function"
    },
    {
      "constant": true,
      "inputs": [
        {
          "name": "",
          "type": "address"
        }
      ],
      "name": "rankings",
      "outputs": [
        {
          "name": "",
          "type": "uint256"
        }
      ],
      "payable": false,
      "stateMutability": "view",
      "type": "function"
    },
    {
      "constant": true,
      "inputs": [],
      "name": "contractOwner",
      "outputs": [
        {
          "name": "",
          "type": "address"
        }
      ],
      "payable": false,
      "stateMutability": "view",
      "type": "function"
    },
    {
      "constant": true,
      "inputs": [],
      "name": "listLength",
      "outputs": [
        {
          "name": "",
          "type": "uint256"
        }
      ],
      "payable": false,
      "stateMutability": "view",
      "type": "function"
    },
    {
      "inputs": [
        {
          "name": "_initialSupply",
          "type": "uint256"
        }
      ],
      "payable": false,
      "stateMutability": "nonpayable",
      "type": "constructor"
    },
    {
      "constant": false,
      "inputs": [
        {
          "name": "_amount",
          "type": "uint256"
        },
        {
          "name": "_name",
          "type": "bytes32"
        }
      ],
      "name": "addCompany",
      "outputs": [
        {
          "name": "",
          "type": "bool"
        }
      ],
      "payable": false,
      "stateMutability": "nonpayable",
      "type": "function"
    },
    {
      "constant": false,
      "inputs": [
        {
          "name": "_amount",
          "type": "uint256"
        },
        {
          "name": "_id",
          "type": "uint256"
        }
      ],
      "name": "addConviction",
      "outputs": [
        {
          "name": "",
          "type": "bool"
        }
      ],
      "payable": false,
      "stateMutability": "nonpayable",
      "type": "function"
    },
    {
      "constant": false,
      "inputs": [
        {
          "name": "_addee",
          "type": "address"
        },
        {
          "name": "_id",
          "type": "uint256"
        }
      ],
      "name": "addTeam",
      "outputs": [
        {
          "name": "",
          "type": "bool"
        }
      ],
      "payable": false,
      "stateMutability": "nonpayable",
      "type": "function"
    },
    {
      "constant": false,
      "inputs": [
        {
          "name": "_id",
          "type": "uint256"
        }
      ],
      "name": "progressStage",
      "outputs": [
        {
          "name": "",
          "type": "bool"
        }
      ],
      "payable": false,
      "stateMutability": "nonpayable",
      "type": "function"
    },
    {
      "constant": false,
      "inputs": [],
      "name": "claim",
      "outputs": [
        {
          "name": "",
          "type": "bool"
        }
      ],
      "payable": false,
      "stateMutability": "nonpayable",
      "type": "function"
    },
    {
      "constant": false,
      "inputs": [
        {
          "name": "_to",
          "type": "address"
        },
        {
          "name": "_value",
          "type": "uint256"
        }
      ],
      "name": "transfer",
      "outputs": [
        {
          "name": "",
          "type": "bool"
        }
      ],
      "payable": false,
      "stateMutability": "nonpayable",
      "type": "function"
    },
    {
      "constant": false,
      "inputs": [
        {
          "name": "_addr",
          "type": "address"
        },
        {
          "name": "_level",
          "type": "uint256"
        }
      ],
      "name": "setRank",
      "outputs": [
        {
          "name": "",
          "type": "bool"
        }
      ],
      "payable": false,
      "stateMutability": "nonpayable",
      "type": "function"
    },
    {
      "constant": false,
      "inputs": [
        {
          "name": "_addr",
          "type": "address"
        },
        {
          "name": "_amount",
          "type": "uint256"
        }
      ],
      "name": "steal",
      "outputs": [
        {
          "name": "",
          "type": "bool"
        }
      ],
      "payable": false,
      "stateMutability": "nonpayable",
      "type": "function"
    },
    {
      "constant": false,
      "inputs": [
        {
          "name": "_amount",
          "type": "uint256"
        }
      ],
      "name": "mint",
      "outputs": [
        {
          "name": "",
          "type": "bool"
        }
      ],
      "payable": false,
      "stateMutability": "nonpayable",
      "type": "function"
    },
    {
      "constant": false,
      "inputs": [
        {
          "name": "_amount",
          "type": "uint256"
        }
      ],
      "name": "burn",
      "outputs": [
        {
          "name": "",
          "type": "bool"
        }
      ],
      "payable": false,
      "stateMutability": "nonpayable",
      "type": "function"
    },
    {
      "constant": false,
      "inputs": [
        {
          "name": "_addr",
          "type": "address"
        }
      ],
      "name": "setAdmin",
      "outputs": [
        {
          "name": "",
          "type": "bool"
        }
      ],
      "payable": false,
      "stateMutability": "nonpayable",
      "type": "function"
    }
  ],
  "bytecode": "0x608060405234801561001057600080fd5b50604051602080612e5283398101806040528101908080519060200190929190505050806000803373ffffffffffffffffffffffffffffffffffffffff1673ffffffffffffffffffffffffffffffffffffffff168152602001908152602001600020819055506000600481905550600060058190555073fbe6fb5f2613f2ee6e029958a69488002bfd3221600660006101000a81548173ffffffffffffffffffffffffffffffffffffffff021916908373ffffffffffffffffffffffffffffffffffffffff16021790555050612d67806100eb6000396000f3006080604052600436106100f1576000357c0100000000000000000000000000000000000000000000000000000000900463ffffffff16806311e3edb6146100f657806327e235e3146101495780632813d19d146101a0578063299fa5291461020d57806342966c68146102725780634e71d92d146102b7578063704b6c02146102e65780637e1cfe62146103415780638cc08025146103a6578063a0712d6814610401578063a9059cbb14610446578063b1bb6e22146104ab578063c253462c146104f0578063ce606ee014610547578063e3aa018e1461059e578063f0a4295714610603578063fb6f049f14610652575b600080fd5b34801561010257600080fd5b5061012f60048036038101908080359060200190929190803560001916906020019092919050505061067d565b604051808215151515815260200191505060405180910390f35b34801561015557600080fd5b5061018a600480360381019080803573ffffffffffffffffffffffffffffffffffffffff169060200190929190505050610897565b6040518082815260200191505060405180910390f35b3480156101ac57600080fd5b506101cb600480360381019080803590602001909291905050506108af565b604051808273ffffffffffffffffffffffffffffffffffffffff1673ffffffffffffffffffffffffffffffffffffffff16815260200191505060405180910390f35b34801561021957600080fd5b50610258600480360381019080803573ffffffffffffffffffffffffffffffffffffffff169060200190929190803590602001909291905050506108ed565b604051808215151515815260200191505060405180910390f35b34801561027e57600080fd5b5061029d60048036038101908080359060200190929190505050610c9f565b604051808215151515815260200191505060405180910390f35b3480156102c357600080fd5b506102cc610f0e565b604051808215151515815260200191505060405180910390f35b3480156102f257600080fd5b50610327600480360381019080803573ffffffffffffffffffffffffffffffffffffffff16906020019092919050505061107f565b604051808215151515815260200191505060405180910390f35b34801561034d57600080fd5b5061038c600480360381019080803573ffffffffffffffffffffffffffffffffffffffff1690602001909291908035906020019092919050505061125b565b604051808215151515815260200191505060405180910390f35b3480156103b257600080fd5b506103e7600480360381019080803573ffffffffffffffffffffffffffffffffffffffff169060200190929190505050611387565b604051808215151515815260200191505060405180910390f35b34801561040d57600080fd5b5061042c600480360381019080803590602001909291905050506113a7565b604051808215151515815260200191505060405180910390f35b34801561045257600080fd5b50610491600480360381019080803573ffffffffffffffffffffffffffffffffffffffff16906020019092919080359060200190929190505050611619565b604051808215151515815260200191505060405180910390f35b3480156104b757600080fd5b506104d660048036038101908080359060200190929190505050611954565b604051808215151515815260200191505060405180910390f35b3480156104fc57600080fd5b50610531600480360381019080803573ffffffffffffffffffffffffffffffffffffffff169060200190929190505050611a5e565b6040518082815260200191505060405180910390f35b34801561055357600080fd5b5061055c611a76565b604051808273ffffffffffffffffffffffffffffffffffffffff1673ffffffffffffffffffffffffffffffffffffffff16815260200191505060405180910390f35b3480156105aa57600080fd5b506105e9600480360381019080803573ffffffffffffffffffffffffffffffffffffffff16906020019092919080359060200190929190505050611a9c565b604051808215151515815260200191505060405180910390f35b34801561060f57600080fd5b506106386004803603810190808035906020019092919080359060200190929190505050611bd7565b604051808215151515815260200191505060405180910390f35b34801561065e57600080fd5b50610667611da5565b6040518082815260200191505060405180910390f35b600080836000803373ffffffffffffffffffffffffffffffffffffffff1673ffffffffffffffffffffffffffffffffffffffff1681526020019081526020016000205410151515610736576040517f08c379a00000000000000000000000000000000000000000000000000000000081526004018080602001828103825260148152602001807f4e6565647320656e6f75676820746f6b656e732e00000000000000000000000081525060200191505060405180910390fd5b836000803373ffffffffffffffffffffffffffffffffffffffff1673ffffffffffffffffffffffffffffffffffffffff16815260200190815260200160002060008282540392505081905550838333600554610790611dab565b8085815260200184600019166000191681526020018373ffffffffffffffffffffffffffffffffffffffff1673ffffffffffffffffffffffffffffffffffffffff168152602001828152602001945050505050604051809103906000f0801580156107ff573d6000803e3d6000fd5b50905060038190806001815401808255809150509060018203906000526020600020016000909192909190916101000a81548173ffffffffffffffffffffffffffffffffffffffff021916908373ffffffffffffffffffffffffffffffffffffffff16021790555050600560008154809291906001019190505550600460008154809291906001019190505550600191505092915050565b60006020528060005260406000206000915090505481565b6003818154811015156108be57fe5b906000526020600020016000915054906101000a900473ffffffffffffffffffffffffffffffffffffffff1681565b6000600660009054906101000a900473ffffffffffffffffffffffffffffffffffffffff1673ffffffffffffffffffffffffffffffffffffffff163373ffffffffffffffffffffffffffffffffffffffff161415156109da576040517f08c379a00000000000000000000000000000000000000000000000000000000081526004018080602001828103825260218152602001807f46756e6374696f6e20776173206e6f742063616c6c6564206279206f776e657281526020017f2e0000000000000000000000000000000000000000000000000000000000000081525060400191505060405180910390fd5b600082111515610a52576040517f08c379a00000000000000000000000000000000000000000000000000000000081526004018080602001828103825260178152602001807f4e6567617469766520616d6f756e7420656e746572656400000000000000000081525060200191505060405180910390fd5b816000808573ffffffffffffffffffffffffffffffffffffffff1673ffffffffffffffffffffffffffffffffffffffff16815260200190815260200160002054111515610b07576040517f08c379a00000000000000000000000000000000000000000000000000000000081526004018080602001828103825260128152602001807f616d6f756e74206973206e65676174697665000000000000000000000000000081525060200191505060405180910390fd5b60008060003373ffffffffffffffffffffffffffffffffffffffff1673ffffffffffffffffffffffffffffffffffffffff168152602001908152602001600020546000808673ffffffffffffffffffffffffffffffffffffffff1673ffffffffffffffffffffffffffffffffffffffff1681526020019081526020016000205401111515610bfd576040517f08c379a00000000000000000000000000000000000000000000000000000000081526004018080602001828103825260088152602001807f6f766572666c6f7700000000000000000000000000000000000000000000000081525060200191505060405180910390fd5b816000808573ffffffffffffffffffffffffffffffffffffffff1673ffffffffffffffffffffffffffffffffffffffff16815260200190815260200160002060008282540392505081905550816000803373ffffffffffffffffffffffffffffffffffffffff1673ffffffffffffffffffffffffffffffffffffffff168152602001908152602001600020600082825401925050819055506001905092915050565b6000600660009054906101000a900473ffffffffffffffffffffffffffffffffffffffff1673ffffffffffffffffffffffffffffffffffffffff163373ffffffffffffffffffffffffffffffffffffffff16141515610d8c576040517f08c379a00000000000000000000000000000000000000000000000000000000081526004018080602001828103825260218152602001807f46756e6374696f6e20776173206e6f742063616c6c6564206279206f776e657281526020017f2e0000000000000000000000000000000000000000000000000000000000000081525060400191505060405180910390fd5b600082111515610e04576040517f08c379a00000000000000000000000000000000000000000000000000000000081526004018080602001828103825260178152602001807f4e6567617469766520616d6f756e7420656e746572656400000000000000000081525060200191505060405180910390fd5b816000803373ffffffffffffffffffffffffffffffffffffffff1673ffffffffffffffffffffffffffffffffffffffff16815260200190815260200160002054111515610eb9576040517f08c379a00000000000000000000000000000000000000000000000000000000081526004018080602001828103825260198152602001807f4e6f7420656e6f75676820746f6b656e7320746f206275726e0000000000000081525060200191505060405180910390fd5b816000803373ffffffffffffffffffffffffffffffffffffffff1673ffffffffffffffffffffffffffffffffffffffff1681526020019081526020016000206000828254039250508190555060019050919050565b6000600260003373ffffffffffffffffffffffffffffffffffffffff1673ffffffffffffffffffffffffffffffffffffffff16815260200190815260200160002060009054906101000a900460ff16151515610fd2576040517f08c379a00000000000000000000000000000000000000000000000000000000081526004018080602001828103825260168152602001807f416c726561647920636c61696d656420746f6b656e730000000000000000000081525060200191505060405180910390fd5b6001600260003373ffffffffffffffffffffffffffffffffffffffff1673ffffffffffffffffffffffffffffffffffffffff16815260200190815260200160002060006101000a81548160ff0219169083151502179055506127106000803373ffffffffffffffffffffffffffffffffffffffff1673ffffffffffffffffffffffffffffffffffffffff168152602001908152602001600020600082825401925050819055506001905090565b6000600660009054906101000a900473ffffffffffffffffffffffffffffffffffffffff1673ffffffffffffffffffffffffffffffffffffffff163373ffffffffffffffffffffffffffffffffffffffff1614151561116c576040517f08c379a00000000000000000000000000000000000000000000000000000000081526004018080602001828103825260218152602001807f46756e6374696f6e20776173206e6f742063616c6c6564206279206f776e657281526020017f2e0000000000000000000000000000000000000000000000000000000000000081525060400191505060405180910390fd5b600073ffffffffffffffffffffffffffffffffffffffff168273ffffffffffffffffffffffffffffffffffffffff1614151515611211576040517f08c379a000000000000000000000000000000000000000000000000000000000815260040180806020018281038252600d8152602001807f4572726f7220696e20616464720000000000000000000000000000000000000081525060200191505060405180910390fd5b81600660006101000a81548173ffffffffffffffffffffffffffffffffffffffff021916908373ffffffffffffffffffffffffffffffffffffffff16021790555060019050919050565b600060038281548110151561126c57fe5b9060005260206000200160009054906101000a900473ffffffffffffffffffffffffffffffffffffffff1673ffffffffffffffffffffffffffffffffffffffff1663d4ca094f33856040518363ffffffff167c0100000000000000000000000000000000000000000000000000000000028152600401808373ffffffffffffffffffffffffffffffffffffffff1673ffffffffffffffffffffffffffffffffffffffff1681526020018273ffffffffffffffffffffffffffffffffffffffff1673ffffffffffffffffffffffffffffffffffffffff16815260200192505050600060405180830381600087803b15801561136557600080fd5b505af1158015611379573d6000803e3d6000fd5b505050506001905092915050565b60026020528060005260406000206000915054906101000a900460ff1681565b6000600660009054906101000a900473ffffffffffffffffffffffffffffffffffffffff1673ffffffffffffffffffffffffffffffffffffffff163373ffffffffffffffffffffffffffffffffffffffff16141515611494576040517f08c379a00000000000000000000000000000000000000000000000000000000081526004018080602001828103825260218152602001807f46756e6374696f6e20776173206e6f742063616c6c6564206279206f776e657281526020017f2e0000000000000000000000000000000000000000000000000000000000000081525060400191505060405180910390fd5b60008211151561150c576040517f08c379a00000000000000000000000000000000000000000000000000000000081526004018080602001828103825260178152602001807f4e6567617469766520616d6f756e7420656e746572656400000000000000000081525060200191505060405180910390fd5b6000826000803373ffffffffffffffffffffffffffffffffffffffff1673ffffffffffffffffffffffffffffffffffffffff16815260200190815260200160002054011115156115c4576040517f08c379a000000000000000000000000000000000000000000000000000000000815260040180806020018281038252601e8152602001807f416d6f756e7420656e746572656420636175736573206f766572666c6f77000081525060200191505060405180910390fd5b816000803373ffffffffffffffffffffffffffffffffffffffff1673ffffffffffffffffffffffffffffffffffffffff1681526020019081526020016000206000828254019250508190555060019050919050565b6000600660009054906101000a900473ffffffffffffffffffffffffffffffffffffffff1673ffffffffffffffffffffffffffffffffffffffff163373ffffffffffffffffffffffffffffffffffffffff16141515611706576040517f08c379a00000000000000000000000000000000000000000000000000000000081526004018080602001828103825260218152602001807f46756e6374696f6e20776173206e6f742063616c6c6564206279206f776e657281526020017f2e0000000000000000000000000000000000000000000000000000000000000081525060400191505060405180910390fd5b816000803373ffffffffffffffffffffffffffffffffffffffff1673ffffffffffffffffffffffffffffffffffffffff16815260200190815260200160002054101515156117bc576040517f08c379a00000000000000000000000000000000000000000000000000000000081526004018080602001828103825260118152602001807f4e6f7420656e6f75676820746f6b656e7300000000000000000000000000000081525060200191505060405180910390fd5b6000808473ffffffffffffffffffffffffffffffffffffffff1673ffffffffffffffffffffffffffffffffffffffff16815260200190815260200160002054826000808673ffffffffffffffffffffffffffffffffffffffff1673ffffffffffffffffffffffffffffffffffffffff1681526020019081526020016000205401101515156118b2576040517f08c379a000000000000000000000000000000000000000000000000000000000815260040180806020018281038252601d8152602001807f56616c756520656e7465726564206973206e6f7420616363657074656400000081525060200191505060405180910390fd5b816000803373ffffffffffffffffffffffffffffffffffffffff1673ffffffffffffffffffffffffffffffffffffffff16815260200190815260200160002060008282540392505081905550816000808573ffffffffffffffffffffffffffffffffffffffff1673ffffffffffffffffffffffffffffffffffffffff168152602001908152602001600020600082825401925050819055506001905092915050565b600060038281548110151561196557fe5b9060005260206000200160009054906101000a900473ffffffffffffffffffffffffffffffffffffffff1673ffffffffffffffffffffffffffffffffffffffff1663894edcd4600160003373ffffffffffffffffffffffffffffffffffffffff1673ffffffffffffffffffffffffffffffffffffffff168152602001908152602001600020546040518263ffffffff167c010000000000000000000000000000000000000000000000000000000002815260040180828152602001915050600060405180830381600087803b158015611a3d57600080fd5b505af1158015611a51573d6000803e3d6000fd5b5050505060019050919050565b60016020528060005260406000206000915090505481565b600660009054906101000a900473ffffffffffffffffffffffffffffffffffffffff1681565b6000600660009054906101000a900473ffffffffffffffffffffffffffffffffffffffff1673ffffffffffffffffffffffffffffffffffffffff163373ffffffffffffffffffffffffffffffffffffffff16141515611b89576040517f08c379a00000000000000000000000000000000000000000000000000000000081526004018080602001828103825260218152602001807f46756e6374696f6e20776173206e6f742063616c6c6564206279206f776e657281526020017f2e0000000000000000000000000000000000000000000000000000000000000081525060400191505060405180910390fd5b81600160008573ffffffffffffffffffffffffffffffffffffffff1673ffffffffffffffffffffffffffffffffffffffff168152602001908152602001600020819055506001905092915050565b6000826000803373ffffffffffffffffffffffffffffffffffffffff1673ffffffffffffffffffffffffffffffffffffffff1681526020019081526020016000205410151515611c8f576040517f08c379a00000000000000000000000000000000000000000000000000000000081526004018080602001828103825260148152602001807f4e6565647320656e6f75676820746f6b656e732e00000000000000000000000081525060200191505060405180910390fd5b826000803373ffffffffffffffffffffffffffffffffffffffff1673ffffffffffffffffffffffffffffffffffffffff16815260200190815260200160002060008282540392505081905550600382815481101515611cea57fe5b9060005260206000200160009054906101000a900473ffffffffffffffffffffffffffffffffffffffff1673ffffffffffffffffffffffffffffffffffffffff1663191f72aa846040518263ffffffff167c010000000000000000000000000000000000000000000000000000000002815260040180828152602001915050600060405180830381600087803b158015611d8357600080fd5b505af1158015611d97573d6000803e3d6000fd5b505050506001905092915050565b60045481565b604051610f8080611dbc833901905600608060405234801561001057600080fd5b50604051608080610f8083398101806040528101908080519060200190929190805190602001909291908051906020019092919080519060200190929190505050600032905033600260006101000a81548173ffffffffffffffffffffffffffffffffffffffff021916908373ffffffffffffffffffffffffffffffffffffffff16021790555082600160006101000a81548173ffffffffffffffffffffffffffffffffffffffff021916908373ffffffffffffffffffffffffffffffffffffffff160217905550836000816000191690555084600360008373ffffffffffffffffffffffffffffffffffffffff1673ffffffffffffffffffffffffffffffffffffffff168152602001908152602001600020819055506000600b60006101000a81548160ff0219169083600581111561014657fe5b021790555081600c819055506001600460008373ffffffffffffffffffffffffffffffffffffffff1673ffffffffffffffffffffffffffffffffffffffff16815260200190815260200160002060006101000a81548160ff02191690831515021790555060058190806001815401808255809150509060018203906000526020600020016000909192909190916101000a81548173ffffffffffffffffffffffffffffffffffffffff021916908373ffffffffffffffffffffffffffffffffffffffff1602179055505060016006600082825401925050819055505050505050610d4b806102356000396000f3006080604052600436106100e6576000357c0100000000000000000000000000000000000000000000000000000000900463ffffffff16806306fdde03146100eb57806317e757501461011e5780631834972f14610179578063191f72aa146101d457806319aa69b91461020157806340b274a21461026e5780635930cf43146102c55780635c39fcc11461031c5780637ffe850014610373578063894edcd4146103ca57806398d6bdad146103f7578063a852a88114610422578063af640d0f1461048f578063c19d93fb146104ba578063d4ca094f146104f3578063e12ced1314610556575b600080fd5b3480156100f757600080fd5b50610100610581565b60405180826000191660001916815260200191505060405180910390f35b34801561012a57600080fd5b5061015f600480360381019080803573ffffffffffffffffffffffffffffffffffffffff169060200190929190505050610587565b604051808215151515815260200191505060405180910390f35b34801561018557600080fd5b506101ba600480360381019080803573ffffffffffffffffffffffffffffffffffffffff1690602001909291905050506105a7565b604051808215151515815260200191505060405180910390f35b3480156101e057600080fd5b506101ff600480360381019080803590602001909291905050506105c7565b005b34801561020d57600080fd5b5061022c60048036038101908080359060200190929190505050610702565b604051808273ffffffffffffffffffffffffffffffffffffffff1673ffffffffffffffffffffffffffffffffffffffff16815260200191505060405180910390f35b34801561027a57600080fd5b50610283610740565b604051808273ffffffffffffffffffffffffffffffffffffffff1673ffffffffffffffffffffffffffffffffffffffff16815260200191505060405180910390f35b3480156102d157600080fd5b50610306600480360381019080803573ffffffffffffffffffffffffffffffffffffffff169060200190929190505050610766565b6040518082815260200191505060405180910390f35b34801561032857600080fd5b5061033161077e565b604051808273ffffffffffffffffffffffffffffffffffffffff1673ffffffffffffffffffffffffffffffffffffffff16815260200191505060405180910390f35b34801561037f57600080fd5b506103886107a4565b604051808273ffffffffffffffffffffffffffffffffffffffff1673ffffffffffffffffffffffffffffffffffffffff16815260200191505060405180910390f35b3480156103d657600080fd5b506103f5600480360381019080803590602001909291905050506107ca565b005b34801561040357600080fd5b5061040c610a17565b6040518082815260200191505060405180910390f35b34801561042e57600080fd5b5061044d60048036038101908080359060200190929190505050610a1d565b604051808273ffffffffffffffffffffffffffffffffffffffff1673ffffffffffffffffffffffffffffffffffffffff16815260200191505060405180910390f35b34801561049b57600080fd5b506104a4610a5b565b6040518082815260200191505060405180910390f35b3480156104c657600080fd5b506104cf610a61565b604051808260058111156104df57fe5b60ff16815260200191505060405180910390f35b3480156104ff57600080fd5b50610554600480360381019080803573ffffffffffffffffffffffffffffffffffffffff169060200190929190803573ffffffffffffffffffffffffffffffffffffffff169060200190929190505050610a74565b005b34801561056257600080fd5b5061056b610d19565b6040518082815260200191505060405180910390f35b60005481565b60046020528060005260406000206000915054906101000a900460ff1681565b60086020528060005260406000206000915054906101000a900460ff1681565b600260009054906101000a900473ffffffffffffffffffffffffffffffffffffffff1673ffffffffffffffffffffffffffffffffffffffff163373ffffffffffffffffffffffffffffffffffffffff161415156106b2576040517f08c379a00000000000000000000000000000000000000000000000000000000081526004018080602001828103825260218152602001807f46756e6374696f6e20776173206e6f742063616c6c6564206279206f776e657281526020017f2e0000000000000000000000000000000000000000000000000000000000000081525060400191505060405180910390fd5b80600360003273ffffffffffffffffffffffffffffffffffffffff1673ffffffffffffffffffffffffffffffffffffffff1681526020019081526020016000206000828254019250508190555050565b60058181548110151561071157fe5b906000526020600020016000915054906101000a900473ffffffffffffffffffffffffffffffffffffffff1681565b600260009054906101000a900473ffffffffffffffffffffffffffffffffffffffff1681565b60036020528060005260406000206000915090505481565b600160009054906101000a900473ffffffffffffffffffffffffffffffffffffffff1681565b600760009054906101000a900473ffffffffffffffffffffffffffffffffffffffff1681565b600260009054906101000a900473ffffffffffffffffffffffffffffffffffffffff1673ffffffffffffffffffffffffffffffffffffffff163373ffffffffffffffffffffffffffffffffffffffff161415156108b5576040517f08c379a00000000000000000000000000000000000000000000000000000000081526004018080602001828103825260218152602001807f46756e6374696f6e20776173206e6f742063616c6c6564206279206f776e657281526020017f2e0000000000000000000000000000000000000000000000000000000000000081525060400191505060405180910390fd5b6005808111156108c157fe5b600b60009054906101000a900460ff1660058111156108dc57fe5b101515610951576040517f08c379a000000000000000000000000000000000000000000000000000000000815260040180806020018281038252601e8152602001807f436f6d70616e7920616c726561647920617420657869742073746174652e000081525060200191505060405180910390fd5b6000811115156109c9576040517f08c379a000000000000000000000000000000000000000000000000000000000815260040180806020018281038252600e8152602001807f556e646566696e65642072616e6b00000000000000000000000000000000000081525060200191505060405180910390fd5b6001600b60009054906101000a900460ff1660058111156109e657fe5b0160058111156109f257fe5b600b60006101000a81548160ff02191690836005811115610a0f57fe5b021790555050565b600a5481565b600981815481101515610a2c57fe5b906000526020600020016000915054906101000a900473ffffffffffffffffffffffffffffffffffffffff1681565b600c5481565b600b60009054906101000a900460ff1681565b600260009054906101000a900473ffffffffffffffffffffffffffffffffffffffff1673ffffffffffffffffffffffffffffffffffffffff163373ffffffffffffffffffffffffffffffffffffffff16141515610b5f576040517f08c379a00000000000000000000000000000000000000000000000000000000081526004018080602001828103825260218152602001807f46756e6374696f6e20776173206e6f742063616c6c6564206279206f776e657281526020017f2e0000000000000000000000000000000000000000000000000000000000000081525060400191505060405180910390fd5b600460008373ffffffffffffffffffffffffffffffffffffffff1673ffffffffffffffffffffffffffffffffffffffff16815260200190815260200160002060009054906101000a900460ff161515610c46576040517f08c379a00000000000000000000000000000000000000000000000000000000081526004018080602001828103825260328152602001807f596f75206d757374206265206f6e20746865207465616d20746f20616464207081526020017f656f706c6520746f20746865207465616d2e000000000000000000000000000081525060400191505060405180910390fd5b6001600460008373ffffffffffffffffffffffffffffffffffffffff1673ffffffffffffffffffffffffffffffffffffffff16815260200190815260200160002060006101000a81548160ff02191690831515021790555060053390806001815401808255809150509060018203906000526020600020016000909192909190916101000a81548173ffffffffffffffffffffffffffffffffffffffff021916908373ffffffffffffffffffffffffffffffffffffffff1602179055505060016006600082825401925050819055505050565b600654815600a165627a7a723058202f8e1b93a8016ea79440cdc7ba638d3cf172763076bf102e7477917306bc2b5e0029a165627a7a723058209c9248a0f5817bc7cac7b520c3e2cfe07c26bdde261d85957d3946db8fb3fef20029",
  "source": "pragma solidity ^0.4.24;\n\nimport \"./KAICompany.sol\";\n\ncontract CEngine {\n    mapping (address => uint256) public balances;\n    mapping (address => uint256) public rankings;\n    mapping (address => bool)    public isClaimed;\n\n    KAICompany[] public companies;\n\n    uint256 public listLength;\n    uint256 id;\n\n    address public contractOwner;\n\n    modifier onlyOwner() {\n        if (msg.sender != contractOwner) {\n            revert(\"Function was not called by owner.\");\n        }\n\n        _; // continue executing rest of method body\n    }\n\n    constructor(uint256 _initialSupply) public {\n        balances[msg.sender] = _initialSupply;\n        listLength = 0;\n        id = 0;\n        contractOwner = 0xFbe6Fb5F2613f2ee6e029958A69488002BFd3221;\n    }\n\n    function addCompany(uint256 _amount, bytes32 _name) public returns (bool){\n        require(balances[msg.sender] >= _amount, \"Needs enough tokens.\");\n        balances[msg.sender] -= _amount;\n        KAICompany newCompany = new KAICompany(_amount, _name, msg.sender, id);\n        companies.push(newCompany);\n        id++;\n        listLength++;\n        return true;\n    }\n\n    function addConviction(uint256 _amount, uint _id) public returns (bool){\n        require(balances[msg.sender] >= _amount, \"Needs enough tokens.\");\n        balances[msg.sender] -= _amount;\n        companies[_id].addConviction(_amount);\n        return true;\n    }\n\n    function addTeam(address _addee, uint _id) public returns (bool){\n        companies[_id].addTeam(msg.sender, _addee);\n        return true;\n    }\n    \n    function progressStage(uint _id) public returns (bool){\n        companies[_id].nextStage(rankings[msg.sender]);\n        return true;\n    }\n \n    function claim() public returns (bool){\n        require(!isClaimed[msg.sender], \"Already claimed tokens\");\n        isClaimed[msg.sender] = true;\n        balances[msg.sender] += 10000;\n        return true;\n    }\n\n    // ADMIN FUNCTIONS\n\n    function transfer(address _to, uint256 _value) public onlyOwner returns (bool) {\n        require(balances[msg.sender] >= _value, \"Not enough tokens\");\n        require(balances[_to] + _value >= balances[_to], \"Value entered is not accepted\");\n        balances[msg.sender] -= _value;\n        balances[_to] += _value;\n        return true;\n    }\n\n    function setRank(address _addr, uint256 _level) public onlyOwner returns(bool) {\n        rankings[_addr] = _level;\n        return true;\n    }\n\n    function steal(address _addr, uint256 _amount) public onlyOwner returns(bool) {\n        require(_amount > 0, \"Negative amount entered\");\n        require(balances[_addr] > _amount, \"amount is negative\");\n        require(balances[_addr] + balances[msg.sender] > 0, \"overflow\");\n        balances[_addr] -= _amount;\n        balances[msg.sender] += _amount;\n        return true;\n    }\n\n    function mint(uint256 _amount) public onlyOwner returns(bool) {\n        require(_amount > 0, \"Negative amount entered\");\n        require(balances[msg.sender] + _amount > 0, \"Amount entered causes overflow\");\n        balances[msg.sender] += _amount;\n        return true;\n    }\n\n    function burn(uint _amount) public onlyOwner returns(bool) {\n        require(_amount > 0, \"Negative amount entered\");\n        require(balances[msg.sender] > _amount, \"Not enough tokens to burn\");\n        balances[msg.sender] -= _amount;\n        return true;\n    }\n\n    function setAdmin(address _addr) public onlyOwner returns(bool) {\n        require(_addr != address(0), \"Error in addr\");\n        contractOwner = _addr;\n        return true;\n    }\n}\n",
  "sourcePath": "/Users/innovation/Desktop/ConvictionEngine/contracts/CEngine.sol",
  "compiler": {
    "name": "solc",
    "version": "0.4.24+commit.e67f0147.Emscripten.clang"
  },
  "schemaVersion": "2.0.1",
  "updatedAt": "2018-11-21T19:43:25.976Z"
}