{
  "contractName": "CEngine",
  "abi": [
    {
      "constant": true,
      "inputs": [
        {
          "name": "",
          "type": "address"
        }
      ],
      "name": "balances",
      "outputs": [
        {
          "name": "",
          "type": "uint256"
        }
      ],
      "payable": false,
      "stateMutability": "view",
      "type": "function"
    },
    {
      "constant": true,
      "inputs": [
        {
          "name": "",
          "type": "uint256"
        }
      ],
      "name": "companies",
      "outputs": [
        {
          "name": "",
          "type": "address"
        }
      ],
      "payable": false,
      "stateMutability": "view",
      "type": "function"
    },
    {
      "constant": true,
      "inputs": [
        {
          "name": "",
          "type": "address"
        }
      ],
      "name": "isClaimed",
      "outputs": [
        {
          "name": "",
          "type": "bool"
        }
      ],
      "payable": false,
      "stateMutability": "view",
      "type": "function"
    },
    {
      "constant": true,
      "inputs": [],
      "name": "etf",
      "outputs": [
        {
          "name": "",
          "type": "address"
        }
      ],
      "payable": false,
      "stateMutability": "view",
      "type": "function"
    },
    {
      "constant": true,
      "inputs": [
        {
          "name": "",
          "type": "address"
        }
      ],
      "name": "rankings",
      "outputs": [
        {
          "name": "",
          "type": "uint256"
        }
      ],
      "payable": false,
      "stateMutability": "view",
      "type": "function"
    },
    {
      "constant": true,
      "inputs": [],
      "name": "contractOwner",
      "outputs": [
        {
          "name": "",
          "type": "address"
        }
      ],
      "payable": false,
      "stateMutability": "view",
      "type": "function"
    },
    {
      "constant": true,
      "inputs": [],
      "name": "listLength",
      "outputs": [
        {
          "name": "",
          "type": "uint256"
        }
      ],
      "payable": false,
      "stateMutability": "view",
      "type": "function"
    },
    {
      "inputs": [
        {
          "name": "_initialSupply",
          "type": "uint256"
        }
      ],
      "payable": false,
      "stateMutability": "nonpayable",
      "type": "constructor"
    },
    {
      "constant": false,
      "inputs": [
        {
          "name": "_amount",
          "type": "uint256"
        }
      ],
      "name": "addConvictionETF",
      "outputs": [
        {
          "name": "",
          "type": "bool"
        }
      ],
      "payable": false,
      "stateMutability": "nonpayable",
      "type": "function"
    },
    {
      "constant": false,
      "inputs": [
        {
          "name": "_amount",
          "type": "uint256"
        },
        {
          "name": "_name",
          "type": "bytes32"
        }
      ],
      "name": "addCompany",
      "outputs": [
        {
          "name": "",
          "type": "bool"
        }
      ],
      "payable": false,
      "stateMutability": "nonpayable",
      "type": "function"
    },
    {
      "constant": false,
      "inputs": [
        {
          "name": "_amount",
          "type": "uint256"
        },
        {
          "name": "_id",
          "type": "uint256"
        }
      ],
      "name": "addConviction",
      "outputs": [
        {
          "name": "",
          "type": "bool"
        }
      ],
      "payable": false,
      "stateMutability": "nonpayable",
      "type": "function"
    },
    {
      "constant": false,
      "inputs": [
        {
          "name": "_amount",
          "type": "uint256"
        },
        {
          "name": "_id",
          "type": "uint256"
        }
      ],
      "name": "addnConviction",
      "outputs": [
        {
          "name": "",
          "type": "bool"
        }
      ],
      "payable": false,
      "stateMutability": "nonpayable",
      "type": "function"
    },
    {
      "constant": false,
      "inputs": [
        {
          "name": "_addee",
          "type": "address"
        },
        {
          "name": "_id",
          "type": "uint256"
        }
      ],
      "name": "addTeam",
      "outputs": [
        {
          "name": "",
          "type": "bool"
        }
      ],
      "payable": false,
      "stateMutability": "nonpayable",
      "type": "function"
    },
    {
      "constant": false,
      "inputs": [
        {
          "name": "_id",
          "type": "uint256"
        }
      ],
      "name": "hold",
      "outputs": [
        {
          "name": "",
          "type": "bool"
        }
      ],
      "payable": false,
      "stateMutability": "nonpayable",
      "type": "function"
    },
    {
      "constant": false,
      "inputs": [
        {
          "name": "_id",
          "type": "uint256"
        }
      ],
      "name": "unhold",
      "outputs": [
        {
          "name": "",
          "type": "bool"
        }
      ],
      "payable": false,
      "stateMutability": "nonpayable",
      "type": "function"
    },
    {
      "constant": false,
      "inputs": [
        {
          "name": "_id",
          "type": "uint256"
        }
      ],
      "name": "progressStage",
      "outputs": [
        {
          "name": "",
          "type": "bool"
        }
      ],
      "payable": false,
      "stateMutability": "nonpayable",
      "type": "function"
    },
    {
      "constant": false,
      "inputs": [],
      "name": "claim",
      "outputs": [
        {
          "name": "",
          "type": "bool"
        }
      ],
      "payable": false,
      "stateMutability": "nonpayable",
      "type": "function"
    },
    {
      "constant": false,
      "inputs": [
        {
          "name": "_hod",
          "type": "address"
        },
        {
          "name": "_id",
          "type": "uint256"
        }
      ],
      "name": "setHOD",
      "outputs": [
        {
          "name": "",
          "type": "bool"
        }
      ],
      "payable": false,
      "stateMutability": "nonpayable",
      "type": "function"
    },
    {
      "constant": false,
      "inputs": [
        {
          "name": "_to",
          "type": "address"
        },
        {
          "name": "_value",
          "type": "uint256"
        }
      ],
      "name": "transfer",
      "outputs": [
        {
          "name": "",
          "type": "bool"
        }
      ],
      "payable": false,
      "stateMutability": "nonpayable",
      "type": "function"
    },
    {
      "constant": false,
      "inputs": [
        {
          "name": "_addr",
          "type": "address"
        },
        {
          "name": "_level",
          "type": "uint256"
        }
      ],
      "name": "setRank",
      "outputs": [
        {
          "name": "",
          "type": "bool"
        }
      ],
      "payable": false,
      "stateMutability": "nonpayable",
      "type": "function"
    },
    {
      "constant": false,
      "inputs": [
        {
          "name": "_addr",
          "type": "address"
        },
        {
          "name": "_amount",
          "type": "uint256"
        }
      ],
      "name": "steal",
      "outputs": [
        {
          "name": "",
          "type": "bool"
        }
      ],
      "payable": false,
      "stateMutability": "nonpayable",
      "type": "function"
    },
    {
      "constant": false,
      "inputs": [
        {
          "name": "_amount",
          "type": "uint256"
        }
      ],
      "name": "mint",
      "outputs": [
        {
          "name": "",
          "type": "bool"
        }
      ],
      "payable": false,
      "stateMutability": "nonpayable",
      "type": "function"
    },
    {
      "constant": false,
      "inputs": [
        {
          "name": "_amount",
          "type": "uint256"
        }
      ],
      "name": "burn",
      "outputs": [
        {
          "name": "",
          "type": "bool"
        }
      ],
      "payable": false,
      "stateMutability": "nonpayable",
      "type": "function"
    },
    {
      "constant": false,
      "inputs": [
        {
          "name": "_addr",
          "type": "address"
        }
      ],
      "name": "setAdmin",
      "outputs": [
        {
          "name": "",
          "type": "bool"
        }
      ],
      "payable": false,
      "stateMutability": "nonpayable",
      "type": "function"
    }
  ],
  "bytecode": "0x60806040523480156200001157600080fd5b50604051602080620054ae83398101806040528101908080519060200190929190505050806000803373ffffffffffffffffffffffffffffffffffffffff1673ffffffffffffffffffffffffffffffffffffffff168152602001908152602001600020819055506000600581905550600060068190555073fbe6fb5f2613f2ee6e029958a69488002bfd3221600760006101000a81548173ffffffffffffffffffffffffffffffffffffffff021916908373ffffffffffffffffffffffffffffffffffffffff160217905550620000e762000177565b80807f53505800000000000000000000000000000000000000000000000000000000008152506020019050604051809103906000f0801580156200012f573d6000803e3d6000fd5b50600460006101000a81548173ffffffffffffffffffffffffffffffffffffffff021916908373ffffffffffffffffffffffffffffffffffffffff1602179055505062000188565b604051610439806200507583390190565b614edd80620001986000396000f300608060405260043610610133576000357c0100000000000000000000000000000000000000000000000000000000900463ffffffff16806311e3edb61461013857806327e235e31461018b5780632813d19d146101e2578063299fa5291461024f578063344919db146102b4578063366673d3146102f95780633955b0701461035e57806342966c68146103a357806349c910c0146103e85780634e71d92d1461042d578063704b6c021461045c57806374f963fb146104b75780637e1cfe62146105065780638cc080251461056b578063a0712d68146105c6578063a9059cbb1461060b578063b1bb6e2214610670578063bc7ddd95146106b5578063c253462c1461070c578063ce606ee014610763578063e3aa018e146107ba578063f0a429571461081f578063fb6f049f1461086e575b600080fd5b34801561014457600080fd5b50610171600480360381019080803590602001909291908035600019169060200190929190505050610899565b604051808215151515815260200191505060405180910390f35b34801561019757600080fd5b506101cc600480360381019080803573ffffffffffffffffffffffffffffffffffffffff169060200190929190505050610be5565b6040518082815260200191505060405180910390f35b3480156101ee57600080fd5b5061020d60048036038101908080359060200190929190505050610bfd565b604051808273ffffffffffffffffffffffffffffffffffffffff1673ffffffffffffffffffffffffffffffffffffffff16815260200191505060405180910390f35b34801561025b57600080fd5b5061029a600480360381019080803573ffffffffffffffffffffffffffffffffffffffff16906020019092919080359060200190929190505050610c3b565b604051808215151515815260200191505060405180910390f35b3480156102c057600080fd5b506102df60048036038101908080359060200190929190505050610fed565b604051808215151515815260200191505060405180910390f35b34801561030557600080fd5b50610344600480360381019080803573ffffffffffffffffffffffffffffffffffffffff169060200190929190803590602001909291905050506112e6565b604051808215151515815260200191505060405180910390f35b34801561036a57600080fd5b5061038960048036038101908080359060200190929190505050611412565b604051808215151515815260200191505060405180910390f35b3480156103af57600080fd5b506103ce60048036038101908080359060200190929190505050611509565b604051808215151515815260200191505060405180910390f35b3480156103f457600080fd5b5061041360048036038101908080359060200190929190505050611778565b604051808215151515815260200191505060405180910390f35b34801561043957600080fd5b5061044261186f565b604051808215151515815260200191505060405180910390f35b34801561046857600080fd5b5061049d600480360381019080803573ffffffffffffffffffffffffffffffffffffffff1690602001909291905050506119e0565b604051808215151515815260200191505060405180910390f35b3480156104c357600080fd5b506104ec6004803603810190808035906020019092919080359060200190929190505050611bbc565b604051808215151515815260200191505060405180910390f35b34801561051257600080fd5b50610551600480360381019080803573ffffffffffffffffffffffffffffffffffffffff16906020019092919080359060200190929190505050611dbe565b604051808215151515815260200191505060405180910390f35b34801561057757600080fd5b506105ac600480360381019080803573ffffffffffffffffffffffffffffffffffffffff169060200190929190505050611eea565b604051808215151515815260200191505060405180910390f35b3480156105d257600080fd5b506105f160048036038101908080359060200190929190505050611f0a565b604051808215151515815260200191505060405180910390f35b34801561061757600080fd5b50610656600480360381019080803573ffffffffffffffffffffffffffffffffffffffff1690602001909291908035906020019092919050505061217c565b604051808215151515815260200191505060405180910390f35b34801561067c57600080fd5b5061069b600480360381019080803590602001909291905050506124b7565b604051808215151515815260200191505060405180910390f35b3480156106c157600080fd5b506106ca6125ae565b604051808273ffffffffffffffffffffffffffffffffffffffff1673ffffffffffffffffffffffffffffffffffffffff16815260200191505060405180910390f35b34801561071857600080fd5b5061074d600480360381019080803573ffffffffffffffffffffffffffffffffffffffff1690602001909291905050506125d4565b6040518082815260200191505060405180910390f35b34801561076f57600080fd5b506107786125ec565b604051808273ffffffffffffffffffffffffffffffffffffffff1673ffffffffffffffffffffffffffffffffffffffff16815260200191505060405180910390f35b3480156107c657600080fd5b50610805600480360381019080803573ffffffffffffffffffffffffffffffffffffffff16906020019092919080359060200190929190505050612612565b604051808215151515815260200191505060405180910390f35b34801561082b57600080fd5b50610854600480360381019080803590602001909291908035906020019092919050505061274d565b604051808215151515815260200191505060405180910390f35b34801561087a57600080fd5b5061088361294f565b6040518082815260200191505060405180910390f35b600080600760009054906101000a900473ffffffffffffffffffffffffffffffffffffffff1673ffffffffffffffffffffffffffffffffffffffff163373ffffffffffffffffffffffffffffffffffffffff16141515610987576040517f08c379a00000000000000000000000000000000000000000000000000000000081526004018080602001828103825260218152602001807f46756e6374696f6e20776173206e6f742063616c6c6564206279206f776e657281526020017f2e0000000000000000000000000000000000000000000000000000000000000081525060400191505060405180910390fd5b836000803373ffffffffffffffffffffffffffffffffffffffff1673ffffffffffffffffffffffffffffffffffffffff1681526020019081526020016000205410151515610a3d576040517f08c379a00000000000000000000000000000000000000000000000000000000081526004018080602001828103825260148152602001807f4e6565647320656e6f75676820746f6b656e732e00000000000000000000000081525060200191505060405180910390fd5b836000803373ffffffffffffffffffffffffffffffffffffffff1673ffffffffffffffffffffffffffffffffffffffff16815260200190815260200160002060008282540392505081905550838333600654600160003373ffffffffffffffffffffffffffffffffffffffff1673ffffffffffffffffffffffffffffffffffffffff16815260200190815260200160002054610ad7612955565b8086815260200185600019166000191681526020018473ffffffffffffffffffffffffffffffffffffffff1673ffffffffffffffffffffffffffffffffffffffff16815260200183815260200182815260200195505050505050604051809103906000f080158015610b4d573d6000803e3d6000fd5b50905060038190806001815401808255809150509060018203906000526020600020016000909192909190916101000a81548173ffffffffffffffffffffffffffffffffffffffff021916908373ffffffffffffffffffffffffffffffffffffffff16021790555050600660008154809291906001019190505550600560008154809291906001019190505550600191505092915050565b60006020528060005260406000206000915090505481565b600381815481101515610c0c57fe5b906000526020600020016000915054906101000a900473ffffffffffffffffffffffffffffffffffffffff1681565b6000600760009054906101000a900473ffffffffffffffffffffffffffffffffffffffff1673ffffffffffffffffffffffffffffffffffffffff163373ffffffffffffffffffffffffffffffffffffffff16141515610d28576040517f08c379a00000000000000000000000000000000000000000000000000000000081526004018080602001828103825260218152602001807f46756e6374696f6e20776173206e6f742063616c6c6564206279206f776e657281526020017f2e0000000000000000000000000000000000000000000000000000000000000081525060400191505060405180910390fd5b600082111515610da0576040517f08c379a00000000000000000000000000000000000000000000000000000000081526004018080602001828103825260178152602001807f4e6567617469766520616d6f756e7420656e746572656400000000000000000081525060200191505060405180910390fd5b816000808573ffffffffffffffffffffffffffffffffffffffff1673ffffffffffffffffffffffffffffffffffffffff16815260200190815260200160002054111515610e55576040517f08c379a00000000000000000000000000000000000000000000000000000000081526004018080602001828103825260128152602001807f616d6f756e74206973206e65676174697665000000000000000000000000000081525060200191505060405180910390fd5b60008060003373ffffffffffffffffffffffffffffffffffffffff1673ffffffffffffffffffffffffffffffffffffffff168152602001908152602001600020546000808673ffffffffffffffffffffffffffffffffffffffff1673ffffffffffffffffffffffffffffffffffffffff1681526020019081526020016000205401111515610f4b576040517f08c379a00000000000000000000000000000000000000000000000000000000081526004018080602001828103825260088152602001807f6f766572666c6f7700000000000000000000000000000000000000000000000081525060200191505060405180910390fd5b816000808573ffffffffffffffffffffffffffffffffffffffff1673ffffffffffffffffffffffffffffffffffffffff16815260200190815260200160002060008282540392505081905550816000803373ffffffffffffffffffffffffffffffffffffffff1673ffffffffffffffffffffffffffffffffffffffff168152602001908152602001600020600082825401925050819055506001905092915050565b6000600760009054906101000a900473ffffffffffffffffffffffffffffffffffffffff1673ffffffffffffffffffffffffffffffffffffffff163373ffffffffffffffffffffffffffffffffffffffff161415156110da576040517f08c379a00000000000000000000000000000000000000000000000000000000081526004018080602001828103825260218152602001807f46756e6374696f6e20776173206e6f742063616c6c6564206279206f776e657281526020017f2e0000000000000000000000000000000000000000000000000000000000000081525060400191505060405180910390fd5b816000803373ffffffffffffffffffffffffffffffffffffffff1673ffffffffffffffffffffffffffffffffffffffff1681526020019081526020016000205410151515611190576040517f08c379a00000000000000000000000000000000000000000000000000000000081526004018080602001828103825260148152602001807f4e6565647320656e6f75676820746f6b656e732e00000000000000000000000081525060200191505060405180910390fd5b816000803373ffffffffffffffffffffffffffffffffffffffff1673ffffffffffffffffffffffffffffffffffffffff16815260200190815260200160002060008282540392505081905550600460009054906101000a900473ffffffffffffffffffffffffffffffffffffffff1673ffffffffffffffffffffffffffffffffffffffff1663ee8c1aca33846040518363ffffffff167c0100000000000000000000000000000000000000000000000000000000028152600401808373ffffffffffffffffffffffffffffffffffffffff1673ffffffffffffffffffffffffffffffffffffffff16815260200182815260200192505050602060405180830381600087803b1580156112a157600080fd5b505af11580156112b5573d6000803e3d6000fd5b505050506040513d60208110156112cb57600080fd5b81019080805190602001909291905050505060019050919050565b60006003828154811015156112f757fe5b9060005260206000200160009054906101000a900473ffffffffffffffffffffffffffffffffffffffff1673ffffffffffffffffffffffffffffffffffffffff16638d42d63333856040518363ffffffff167c0100000000000000000000000000000000000000000000000000000000028152600401808373ffffffffffffffffffffffffffffffffffffffff1673ffffffffffffffffffffffffffffffffffffffff1681526020018273ffffffffffffffffffffffffffffffffffffffff1673ffffffffffffffffffffffffffffffffffffffff16815260200192505050600060405180830381600087803b1580156113f057600080fd5b505af1158015611404573d6000803e3d6000fd5b505050506001905092915050565b600060038281548110151561142357fe5b9060005260206000200160009054906101000a900473ffffffffffffffffffffffffffffffffffffffff1673ffffffffffffffffffffffffffffffffffffffff1663730a0d80336040518263ffffffff167c0100000000000000000000000000000000000000000000000000000000028152600401808273ffffffffffffffffffffffffffffffffffffffff1673ffffffffffffffffffffffffffffffffffffffff168152602001915050600060405180830381600087803b1580156114e857600080fd5b505af11580156114fc573d6000803e3d6000fd5b5050505060019050919050565b6000600760009054906101000a900473ffffffffffffffffffffffffffffffffffffffff1673ffffffffffffffffffffffffffffffffffffffff163373ffffffffffffffffffffffffffffffffffffffff161415156115f6576040517f08c379a00000000000000000000000000000000000000000000000000000000081526004018080602001828103825260218152602001807f46756e6374696f6e20776173206e6f742063616c6c6564206279206f776e657281526020017f2e0000000000000000000000000000000000000000000000000000000000000081525060400191505060405180910390fd5b60008211151561166e576040517f08c379a00000000000000000000000000000000000000000000000000000000081526004018080602001828103825260178152602001807f4e6567617469766520616d6f756e7420656e746572656400000000000000000081525060200191505060405180910390fd5b816000803373ffffffffffffffffffffffffffffffffffffffff1673ffffffffffffffffffffffffffffffffffffffff16815260200190815260200160002054111515611723576040517f08c379a00000000000000000000000000000000000000000000000000000000081526004018080602001828103825260198152602001807f4e6f7420656e6f75676820746f6b656e7320746f206275726e0000000000000081525060200191505060405180910390fd5b816000803373ffffffffffffffffffffffffffffffffffffffff1673ffffffffffffffffffffffffffffffffffffffff1681526020019081526020016000206000828254039250508190555060019050919050565b600060038281548110151561178957fe5b9060005260206000200160009054906101000a900473ffffffffffffffffffffffffffffffffffffffff1673ffffffffffffffffffffffffffffffffffffffff1663a7e21e80336040518263ffffffff167c0100000000000000000000000000000000000000000000000000000000028152600401808273ffffffffffffffffffffffffffffffffffffffff1673ffffffffffffffffffffffffffffffffffffffff168152602001915050600060405180830381600087803b15801561184e57600080fd5b505af1158015611862573d6000803e3d6000fd5b5050505060019050919050565b6000600260003373ffffffffffffffffffffffffffffffffffffffff1673ffffffffffffffffffffffffffffffffffffffff16815260200190815260200160002060009054906101000a900460ff16151515611933576040517f08c379a00000000000000000000000000000000000000000000000000000000081526004018080602001828103825260168152602001807f416c726561647920636c61696d656420746f6b656e730000000000000000000081525060200191505060405180910390fd5b6001600260003373ffffffffffffffffffffffffffffffffffffffff1673ffffffffffffffffffffffffffffffffffffffff16815260200190815260200160002060006101000a81548160ff0219169083151502179055506127106000803373ffffffffffffffffffffffffffffffffffffffff1673ffffffffffffffffffffffffffffffffffffffff168152602001908152602001600020600082825401925050819055506001905090565b6000600760009054906101000a900473ffffffffffffffffffffffffffffffffffffffff1673ffffffffffffffffffffffffffffffffffffffff163373ffffffffffffffffffffffffffffffffffffffff16141515611acd576040517f08c379a00000000000000000000000000000000000000000000000000000000081526004018080602001828103825260218152602001807f46756e6374696f6e20776173206e6f742063616c6c6564206279206f776e657281526020017f2e0000000000000000000000000000000000000000000000000000000000000081525060400191505060405180910390fd5b600073ffffffffffffffffffffffffffffffffffffffff168273ffffffffffffffffffffffffffffffffffffffff1614151515611b72576040517f08c379a000000000000000000000000000000000000000000000000000000000815260040180806020018281038252600d8152602001807f4572726f7220696e20616464720000000000000000000000000000000000000081525060200191505060405180910390fd5b81600760006101000a81548173ffffffffffffffffffffffffffffffffffffffff021916908373ffffffffffffffffffffffffffffffffffffffff16021790555060019050919050565b6000826000803373ffffffffffffffffffffffffffffffffffffffff1673ffffffffffffffffffffffffffffffffffffffff1681526020019081526020016000205410151515611c74576040517f08c379a00000000000000000000000000000000000000000000000000000000081526004018080602001828103825260148152602001807f4e6565647320656e6f75676820746f6b656e732e00000000000000000000000081525060200191505060405180910390fd5b826000803373ffffffffffffffffffffffffffffffffffffffff1673ffffffffffffffffffffffffffffffffffffffff16815260200190815260200160002060008282540392505081905550600382815481101515611ccf57fe5b9060005260206000200160009054906101000a900473ffffffffffffffffffffffffffffffffffffffff1673ffffffffffffffffffffffffffffffffffffffff166304ad640d33856040518363ffffffff167c0100000000000000000000000000000000000000000000000000000000028152600401808373ffffffffffffffffffffffffffffffffffffffff1673ffffffffffffffffffffffffffffffffffffffff16815260200182815260200192505050600060405180830381600087803b158015611d9c57600080fd5b505af1158015611db0573d6000803e3d6000fd5b505050506001905092915050565b6000600382815481101515611dcf57fe5b9060005260206000200160009054906101000a900473ffffffffffffffffffffffffffffffffffffffff1673ffffffffffffffffffffffffffffffffffffffff1663d4ca094f33856040518363ffffffff167c0100000000000000000000000000000000000000000000000000000000028152600401808373ffffffffffffffffffffffffffffffffffffffff1673ffffffffffffffffffffffffffffffffffffffff1681526020018273ffffffffffffffffffffffffffffffffffffffff1673ffffffffffffffffffffffffffffffffffffffff16815260200192505050600060405180830381600087803b158015611ec857600080fd5b505af1158015611edc573d6000803e3d6000fd5b505050506001905092915050565b60026020528060005260406000206000915054906101000a900460ff1681565b6000600760009054906101000a900473ffffffffffffffffffffffffffffffffffffffff1673ffffffffffffffffffffffffffffffffffffffff163373ffffffffffffffffffffffffffffffffffffffff16141515611ff7576040517f08c379a00000000000000000000000000000000000000000000000000000000081526004018080602001828103825260218152602001807f46756e6374696f6e20776173206e6f742063616c6c6564206279206f776e657281526020017f2e0000000000000000000000000000000000000000000000000000000000000081525060400191505060405180910390fd5b60008211151561206f576040517f08c379a00000000000000000000000000000000000000000000000000000000081526004018080602001828103825260178152602001807f4e6567617469766520616d6f756e7420656e746572656400000000000000000081525060200191505060405180910390fd5b6000826000803373ffffffffffffffffffffffffffffffffffffffff1673ffffffffffffffffffffffffffffffffffffffff1681526020019081526020016000205401111515612127576040517f08c379a000000000000000000000000000000000000000000000000000000000815260040180806020018281038252601e8152602001807f416d6f756e7420656e746572656420636175736573206f766572666c6f77000081525060200191505060405180910390fd5b816000803373ffffffffffffffffffffffffffffffffffffffff1673ffffffffffffffffffffffffffffffffffffffff1681526020019081526020016000206000828254019250508190555060019050919050565b6000600760009054906101000a900473ffffffffffffffffffffffffffffffffffffffff1673ffffffffffffffffffffffffffffffffffffffff163373ffffffffffffffffffffffffffffffffffffffff16141515612269576040517f08c379a00000000000000000000000000000000000000000000000000000000081526004018080602001828103825260218152602001807f46756e6374696f6e20776173206e6f742063616c6c6564206279206f776e657281526020017f2e0000000000000000000000000000000000000000000000000000000000000081525060400191505060405180910390fd5b816000803373ffffffffffffffffffffffffffffffffffffffff1673ffffffffffffffffffffffffffffffffffffffff168152602001908152602001600020541015151561231f576040517f08c379a00000000000000000000000000000000000000000000000000000000081526004018080602001828103825260118152602001807f4e6f7420656e6f75676820746f6b656e7300000000000000000000000000000081525060200191505060405180910390fd5b6000808473ffffffffffffffffffffffffffffffffffffffff1673ffffffffffffffffffffffffffffffffffffffff16815260200190815260200160002054826000808673ffffffffffffffffffffffffffffffffffffffff1673ffffffffffffffffffffffffffffffffffffffff168152602001908152602001600020540110151515612415576040517f08c379a000000000000000000000000000000000000000000000000000000000815260040180806020018281038252601d8152602001807f56616c756520656e7465726564206973206e6f7420616363657074656400000081525060200191505060405180910390fd5b816000803373ffffffffffffffffffffffffffffffffffffffff1673ffffffffffffffffffffffffffffffffffffffff16815260200190815260200160002060008282540392505081905550816000808573ffffffffffffffffffffffffffffffffffffffff1673ffffffffffffffffffffffffffffffffffffffff168152602001908152602001600020600082825401925050819055506001905092915050565b60006003828154811015156124c857fe5b9060005260206000200160009054906101000a900473ffffffffffffffffffffffffffffffffffffffff1673ffffffffffffffffffffffffffffffffffffffff16636381ed81336040518263ffffffff167c0100000000000000000000000000000000000000000000000000000000028152600401808273ffffffffffffffffffffffffffffffffffffffff1673ffffffffffffffffffffffffffffffffffffffff168152602001915050600060405180830381600087803b15801561258d57600080fd5b505af11580156125a1573d6000803e3d6000fd5b5050505060019050919050565b600460009054906101000a900473ffffffffffffffffffffffffffffffffffffffff1681565b60016020528060005260406000206000915090505481565b600760009054906101000a900473ffffffffffffffffffffffffffffffffffffffff1681565b6000600760009054906101000a900473ffffffffffffffffffffffffffffffffffffffff1673ffffffffffffffffffffffffffffffffffffffff163373ffffffffffffffffffffffffffffffffffffffff161415156126ff576040517f08c379a00000000000000000000000000000000000000000000000000000000081526004018080602001828103825260218152602001807f46756e6374696f6e20776173206e6f742063616c6c6564206279206f776e657281526020017f2e0000000000000000000000000000000000000000000000000000000000000081525060400191505060405180910390fd5b81600160008573ffffffffffffffffffffffffffffffffffffffff1673ffffffffffffffffffffffffffffffffffffffff168152602001908152602001600020819055506001905092915050565b6000826000803373ffffffffffffffffffffffffffffffffffffffff1673ffffffffffffffffffffffffffffffffffffffff1681526020019081526020016000205410151515612805576040517f08c379a00000000000000000000000000000000000000000000000000000000081526004018080602001828103825260148152602001807f4e6565647320656e6f75676820746f6b656e732e00000000000000000000000081525060200191505060405180910390fd5b826000803373ffffffffffffffffffffffffffffffffffffffff1673ffffffffffffffffffffffffffffffffffffffff1681526020019081526020016000206000828254039250508190555060038281548110151561286057fe5b9060005260206000200160009054906101000a900473ffffffffffffffffffffffffffffffffffffffff1673ffffffffffffffffffffffffffffffffffffffff1663ee8c1aca33856040518363ffffffff167c0100000000000000000000000000000000000000000000000000000000028152600401808373ffffffffffffffffffffffffffffffffffffffff1673ffffffffffffffffffffffffffffffffffffffff16815260200182815260200192505050600060405180830381600087803b15801561292d57600080fd5b505af1158015612941573d6000803e3d6000fd5b505050506001905092915050565b60055481565b60405161254b8062002967833901905600608060405234801561001057600080fd5b5060405160a08061254b833981018060405281019080805190602001909291908051906020019092919080519060200190929190805190602001909291908051906020019092919050505033600260006101000a81548173ffffffffffffffffffffffffffffffffffffffff021916908373ffffffffffffffffffffffffffffffffffffffff16021790555082600160006101000a81548173ffffffffffffffffffffffffffffffffffffffff021916908373ffffffffffffffffffffffffffffffffffffffff160217905550836000816000191690555084600460008573ffffffffffffffffffffffffffffffffffffffff1673ffffffffffffffffffffffffffffffffffffffff16815260200190815260200160002081905550846005819055506000600f60006101000a81548160ff0219169083600981111561015257fe5b0217905550816010819055506001600360008573ffffffffffffffffffffffffffffffffffffffff1673ffffffffffffffffffffffffffffffffffffffff16815260200190815260200160002060006101000a81548160ff0219169083151502179055506001600860008573ffffffffffffffffffffffffffffffffffffffff1673ffffffffffffffffffffffffffffffffffffffff16815260200190815260200160002060006101000a81548160ff02191690831515021790555060098390806001815401808255809150509060018203906000526020600020016000909192909190916101000a81548173ffffffffffffffffffffffffffffffffffffffff021916908373ffffffffffffffffffffffffffffffffffffffff160217905550506001600a6000828254019250508190555050505050506122b2806102996000396000f30060806040526004361061015f576000357c0100000000000000000000000000000000000000000000000000000000900463ffffffff16806304ad640d1461016457806306fdde03146101b157806317e75750146101e45780631834972f1461023f57806319aa69b91461029a57806340b274a214610307578063554a3b631461035e5780635930cf43146103b55780635c39fcc11461040c5780636381ed81146104635780637065fdaf146104a6578063730a0d80146104df5780637fc50545146105225780637ffe8500146105515780638d42d633146105a857806398d6bdad1461060b578063a1d76add14610636578063a7e21e8014610661578063a852a881146106a4578063af640d0f14610711578063c19d93fb1461073c578063d10ee4c914610775578063d4ca094f146107d0578063e12ced1314610833578063e45f885e1461085e578063ee8c1aca14610889578063f5798fde146108d6575b600080fd5b34801561017057600080fd5b506101af600480360381019080803573ffffffffffffffffffffffffffffffffffffffff16906020019092919080359060200190929190505050610905565b005b3480156101bd57600080fd5b506101c6610d65565b60405180826000191660001916815260200191505060405180910390f35b3480156101f057600080fd5b50610225600480360381019080803573ffffffffffffffffffffffffffffffffffffffff169060200190929190505050610d6b565b604051808215151515815260200191505060405180910390f35b34801561024b57600080fd5b50610280600480360381019080803573ffffffffffffffffffffffffffffffffffffffff169060200190929190505050610d8b565b604051808215151515815260200191505060405180910390f35b3480156102a657600080fd5b506102c560048036038101908080359060200190929190505050610dab565b604051808273ffffffffffffffffffffffffffffffffffffffff1673ffffffffffffffffffffffffffffffffffffffff16815260200191505060405180910390f35b34801561031357600080fd5b5061031c610de9565b604051808273ffffffffffffffffffffffffffffffffffffffff1673ffffffffffffffffffffffffffffffffffffffff16815260200191505060405180910390f35b34801561036a57600080fd5b5061039f600480360381019080803573ffffffffffffffffffffffffffffffffffffffff169060200190929190505050610e0f565b6040518082815260200191505060405180910390f35b3480156103c157600080fd5b506103f6600480360381019080803573ffffffffffffffffffffffffffffffffffffffff169060200190929190505050610e27565b6040518082815260200191505060405180910390f35b34801561041857600080fd5b50610421610e3f565b604051808273ffffffffffffffffffffffffffffffffffffffff1673ffffffffffffffffffffffffffffffffffffffff16815260200191505060405180910390f35b34801561046f57600080fd5b506104a4600480360381019080803573ffffffffffffffffffffffffffffffffffffffff169060200190929190505050610e65565b005b3480156104b257600080fd5b506104bb61132b565b604051808260098111156104cb57fe5b60ff16815260200191505060405180910390f35b3480156104eb57600080fd5b50610520600480360381019080803573ffffffffffffffffffffffffffffffffffffffff16906020019092919050505061133e565b005b34801561052e57600080fd5b50610537611580565b604051808215151515815260200191505060405180910390f35b34801561055d57600080fd5b50610566611593565b604051808273ffffffffffffffffffffffffffffffffffffffff1673ffffffffffffffffffffffffffffffffffffffff16815260200191505060405180910390f35b3480156105b457600080fd5b50610609600480360381019080803573ffffffffffffffffffffffffffffffffffffffff169060200190929190803573ffffffffffffffffffffffffffffffffffffffff1690602001909291905050506115b9565b005b34801561061757600080fd5b50610620611836565b6040518082815260200191505060405180910390f35b34801561064257600080fd5b5061064b61183c565b6040518082815260200191505060405180910390f35b34801561066d57600080fd5b506106a2600480360381019080803573ffffffffffffffffffffffffffffffffffffffff169060200190929190505050611842565b005b3480156106b057600080fd5b506106cf60048036038101908080359060200190929190505050611a93565b604051808273ffffffffffffffffffffffffffffffffffffffff1673ffffffffffffffffffffffffffffffffffffffff16815260200191505060405180910390f35b34801561071d57600080fd5b50610726611ad1565b6040518082815260200191505060405180910390f35b34801561074857600080fd5b50610751611ad7565b6040518082600981111561076157fe5b60ff16815260200191505060405180910390f35b34801561078157600080fd5b506107b6600480360381019080803573ffffffffffffffffffffffffffffffffffffffff169060200190929190505050611aea565b604051808215151515815260200191505060405180910390f35b3480156107dc57600080fd5b50610831600480360381019080803573ffffffffffffffffffffffffffffffffffffffff169060200190929190803573ffffffffffffffffffffffffffffffffffffffff169060200190929190505050611b0a565b005b34801561083f57600080fd5b50610848611e07565b6040518082815260200191505060405180910390f35b34801561086a57600080fd5b50610873611e0d565b6040518082815260200191505060405180910390f35b34801561089557600080fd5b506108d4600480360381019080803573ffffffffffffffffffffffffffffffffffffffff16906020019092919080359060200190929190505050611e13565b005b3480156108e257600080fd5b506108eb612273565b604051808215151515815260200191505060405180910390f35b600260009054906101000a900473ffffffffffffffffffffffffffffffffffffffff1673ffffffffffffffffffffffffffffffffffffffff163373ffffffffffffffffffffffffffffffffffffffff161415156109f0576040517f08c379a00000000000000000000000000000000000000000000000000000000081526004018080602001828103825260218152602001807f46756e6374696f6e20776173206e6f742063616c6c6564206279206f776e657281526020017f2e0000000000000000000000000000000000000000000000000000000000000081525060400191505060405180910390fd5b600860008373ffffffffffffffffffffffffffffffffffffffff1673ffffffffffffffffffffffffffffffffffffffff16815260200190815260200160002060009054906101000a900460ff168015610ad257506000600f60009054906101000a900460ff166009811115610a6157fe5b1480610a8757506001600f60009054906101000a900460ff166009811115610a8557fe5b145b80610aac57506004600f60009054906101000a900460ff166009811115610aaa57fe5b145b80610ad157506006600f60009054906101000a900460ff166009811115610acf57fe5b145b5b15610b395780600460008473ffffffffffffffffffffffffffffffffffffffff1673ffffffffffffffffffffffffffffffffffffffff1681526020019081526020016000206000828254019250508190555080600560008282540192505081905550610d61565b600b60009054906101000a900473ffffffffffffffffffffffffffffffffffffffff1673ffffffffffffffffffffffffffffffffffffffff168273ffffffffffffffffffffffffffffffffffffffff16148015610bb057506002600f60009054906101000a900460ff166009811115610bae57fe5b145b15610c175780600460008473ffffffffffffffffffffffffffffffffffffffff1673ffffffffffffffffffffffffffffffffffffffff1681526020019081526020016000206000828254019250508190555080600560008282540192505081905550610d60565b600c60008373ffffffffffffffffffffffffffffffffffffffff1673ffffffffffffffffffffffffffffffffffffffff16815260200190815260200160002060009054906101000a900460ff168015610c8a57506003600f60009054906101000a900460ff166009811115610c8857fe5b145b15610cf15780600460008473ffffffffffffffffffffffffffffffffffffffff1673ffffffffffffffffffffffffffffffffffffffff1681526020019081526020016000206000828254019250508190555080600560008282540192505081905550610d5f565b6040517f08c379a000000000000000000000000000000000000000000000000000000000815260040180806020018281038252600e8152602001807f756e646566696e65642072756c6500000000000000000000000000000000000081525060200191505060405180910390fd5b5b5b5050565b60005481565b60086020528060005260406000206000915054906101000a900460ff1681565b600c6020528060005260406000206000915054906101000a900460ff1681565b600981815481101515610dba57fe5b906000526020600020016000915054906101000a900473ffffffffffffffffffffffffffffffffffffffff1681565b600260009054906101000a900473ffffffffffffffffffffffffffffffffffffffff1681565b60066020528060005260406000206000915090505481565b60046020528060005260406000206000915090505481565b600160009054906101000a900473ffffffffffffffffffffffffffffffffffffffff1681565b600260009054906101000a900473ffffffffffffffffffffffffffffffffffffffff1673ffffffffffffffffffffffffffffffffffffffff163373ffffffffffffffffffffffffffffffffffffffff16141515610f50576040517f08c379a00000000000000000000000000000000000000000000000000000000081526004018080602001828103825260218152602001807f46756e6374696f6e20776173206e6f742063616c6c6564206279206f776e657281526020017f2e0000000000000000000000000000000000000000000000000000000000000081525060400191505060405180910390fd5b60086009811115610f5d57fe5b600f60009054906101000a900460ff166009811115610f7857fe5b101515610fed576040517f08c379a000000000000000000000000000000000000000000000000000000000815260040180806020018281038252601e8152602001807f436f6d70616e7920616c726561647920617420657869742073746174652e000081525060200191505060405180910390fd5b600860008273ffffffffffffffffffffffffffffffffffffffff1673ffffffffffffffffffffffffffffffffffffffff16815260200190815260200160002060009054906101000a900460ff1680156110cf57506000600f60009054906101000a900460ff16600981111561105e57fe5b148061108457506001600f60009054906101000a900460ff16600981111561108257fe5b145b806110a957506004600f60009054906101000a900460ff1660098111156110a757fe5b145b806110ce57506007600f60009054906101000a900460ff1660098111156110cc57fe5b145b5b15611124576001600f60009054906101000a900460ff1660098111156110f157fe5b0160098111156110fd57fe5b600f60006101000a81548160ff0219169083600981111561111a57fe5b0217905550611328565b600b60009054906101000a900473ffffffffffffffffffffffffffffffffffffffff1673ffffffffffffffffffffffffffffffffffffffff168173ffffffffffffffffffffffffffffffffffffffff1614801561119b57506002600f60009054906101000a900460ff16600981111561119957fe5b145b156111f0576001600f60009054906101000a900460ff1660098111156111bd57fe5b0160098111156111c957fe5b600f60006101000a81548160ff021916908360098111156111e657fe5b0217905550611327565b600c60008273ffffffffffffffffffffffffffffffffffffffff1673ffffffffffffffffffffffffffffffffffffffff16815260200190815260200160002060009054906101000a900460ff16801561126357506003600f60009054906101000a900460ff16600981111561126157fe5b145b156112b8576001600f60009054906101000a900460ff16600981111561128557fe5b01600981111561129157fe5b600f60006101000a81548160ff021916908360098111156112ae57fe5b0217905550611326565b6040517f08c379a000000000000000000000000000000000000000000000000000000000815260040180806020018281038252600e8152602001807f756e646566696e65642072756c6500000000000000000000000000000000000081525060200191505060405180910390fd5b5b5b50565b600f60029054906101000a900460ff1681565b600260009054906101000a900473ffffffffffffffffffffffffffffffffffffffff1673ffffffffffffffffffffffffffffffffffffffff163373ffffffffffffffffffffffffffffffffffffffff16141515611429576040517f08c379a00000000000000000000000000000000000000000000000000000000081526004018080602001828103825260218152602001807f46756e6374696f6e20776173206e6f742063616c6c6564206279206f776e657281526020017f2e0000000000000000000000000000000000000000000000000000000000000081525060400191505060405180910390fd5b600360008273ffffffffffffffffffffffffffffffffffffffff1673ffffffffffffffffffffffffffffffffffffffff16815260200190815260200160002060009054906101000a900460ff1680156114a6575060098081111561148957fe5b600f60009054906101000a900460ff1660098111156114a457fe5b145b151561151a576040517f08c379a000000000000000000000000000000000000000000000000000000000815260040180806020018281038252600b8152602001807f6e6f74206f6e207465616d00000000000000000000000000000000000000000081525060200191505060405180910390fd5b6000600f60016101000a81548160ff021916908315150217905550600f60029054906101000a900460ff16600981111561155057fe5b600981111561155b57fe5b600f60006101000a81548160ff0219169083600981111561157857fe5b021790555050565b600f60019054906101000a900460ff1681565b600b60009054906101000a900473ffffffffffffffffffffffffffffffffffffffff1681565b600260009054906101000a900473ffffffffffffffffffffffffffffffffffffffff1673ffffffffffffffffffffffffffffffffffffffff163373ffffffffffffffffffffffffffffffffffffffff161415156116a4576040517f08c379a00000000000000000000000000000000000000000000000000000000081526004018080602001828103825260218152602001807f46756e6374696f6e20776173206e6f742063616c6c6564206279206f776e657281526020017f2e0000000000000000000000000000000000000000000000000000000000000081525060400191505060405180910390fd5b600b60149054906101000a900460ff1615801561170a5750600360008373ffffffffffffffffffffffffffffffffffffffff1673ffffffffffffffffffffffffffffffffffffffff16815260200190815260200160002060009054906101000a900460ff165b151561177e576040517f08c379a000000000000000000000000000000000000000000000000000000000815260040180806020018281038252600f8152602001807f484f4420616c726561647920736574000000000000000000000000000000000081525060200191505060405180910390fd5b6001600360008373ffffffffffffffffffffffffffffffffffffffff1673ffffffffffffffffffffffffffffffffffffffff16815260200190815260200160002060006101000a81548160ff02191690831515021790555080600b60006101000a81548173ffffffffffffffffffffffffffffffffffffffff021916908373ffffffffffffffffffffffffffffffffffffffff1602179055506001600b60146101000a81548160ff0219169083151502179055505050565b600e5481565b60075481565b600260009054906101000a900473ffffffffffffffffffffffffffffffffffffffff1673ffffffffffffffffffffffffffffffffffffffff163373ffffffffffffffffffffffffffffffffffffffff1614151561192d576040517f08c379a00000000000000000000000000000000000000000000000000000000081526004018080602001828103825260218152602001807f46756e6374696f6e20776173206e6f742063616c6c6564206279206f776e657281526020017f2e0000000000000000000000000000000000000000000000000000000000000081525060400191505060405180910390fd5b600360008273ffffffffffffffffffffffffffffffffffffffff1673ffffffffffffffffffffffffffffffffffffffff16815260200190815260200160002060009054906101000a900460ff1680156119ab575060098081111561198d57fe5b600f60009054906101000a900460ff1660098111156119a857fe5b14155b1515611a1f576040517f08c379a000000000000000000000000000000000000000000000000000000000815260040180806020018281038252600f8152602001807f6d757374206265206f6e207465616d000000000000000000000000000000000081525060200191505060405180910390fd5b6001600f60016101000a81548160ff021916908315150217905550600f60009054906101000a900460ff16600f60026101000a81548160ff02191690836009811115611a6757fe5b02179055506009600f60006101000a81548160ff02191690836009811115611a8b57fe5b021790555050565b600d81815481101515611aa257fe5b906000526020600020016000915054906101000a900473ffffffffffffffffffffffffffffffffffffffff1681565b60105481565b600f60009054906101000a900460ff1681565b60036020528060005260406000206000915054906101000a900460ff1681565b600260009054906101000a900473ffffffffffffffffffffffffffffffffffffffff1673ffffffffffffffffffffffffffffffffffffffff163373ffffffffffffffffffffffffffffffffffffffff16141515611bf5576040517f08c379a00000000000000000000000000000000000000000000000000000000081526004018080602001828103825260218152602001807f46756e6374696f6e20776173206e6f742063616c6c6564206279206f776e657281526020017f2e0000000000000000000000000000000000000000000000000000000000000081525060400191505060405180910390fd5b600860008373ffffffffffffffffffffffffffffffffffffffff1673ffffffffffffffffffffffffffffffffffffffff16815260200190815260200160002060009054906101000a900460ff161515611cdc576040517f08c379a00000000000000000000000000000000000000000000000000000000081526004018080602001828103825260328152602001807f596f75206d757374206265206f6e20746865207465616d20746f20616464207081526020017f656f706c6520746f20746865207465616d2e000000000000000000000000000081525060400191505060405180910390fd5b6001600360008373ffffffffffffffffffffffffffffffffffffffff1673ffffffffffffffffffffffffffffffffffffffff16815260200190815260200160002060006101000a81548160ff0219169083151502179055506001600860008373ffffffffffffffffffffffffffffffffffffffff1673ffffffffffffffffffffffffffffffffffffffff16815260200190815260200160002060006101000a81548160ff02191690831515021790555060098190806001815401808255809150509060018203906000526020600020016000909192909190916101000a81548173ffffffffffffffffffffffffffffffffffffffff021916908373ffffffffffffffffffffffffffffffffffffffff160217905550506001600a600082825401925050819055505050565b600a5481565b60055481565b600260009054906101000a900473ffffffffffffffffffffffffffffffffffffffff1673ffffffffffffffffffffffffffffffffffffffff163373ffffffffffffffffffffffffffffffffffffffff16141515611efe576040517f08c379a00000000000000000000000000000000000000000000000000000000081526004018080602001828103825260218152602001807f46756e6374696f6e20776173206e6f742063616c6c6564206279206f776e657281526020017f2e0000000000000000000000000000000000000000000000000000000000000081525060400191505060405180910390fd5b600860008373ffffffffffffffffffffffffffffffffffffffff1673ffffffffffffffffffffffffffffffffffffffff16815260200190815260200160002060009054906101000a900460ff168015611fe057506000600f60009054906101000a900460ff166009811115611f6f57fe5b1480611f9557506001600f60009054906101000a900460ff166009811115611f9357fe5b145b80611fba57506004600f60009054906101000a900460ff166009811115611fb857fe5b145b80611fdf57506006600f60009054906101000a900460ff166009811115611fdd57fe5b145b5b156120475780600460008473ffffffffffffffffffffffffffffffffffffffff1673ffffffffffffffffffffffffffffffffffffffff168152602001908152602001600020600082825401925050819055508060056000828254019250508190555061226f565b600b60009054906101000a900473ffffffffffffffffffffffffffffffffffffffff1673ffffffffffffffffffffffffffffffffffffffff168273ffffffffffffffffffffffffffffffffffffffff161480156120be57506002600f60009054906101000a900460ff1660098111156120bc57fe5b145b156121255780600460008473ffffffffffffffffffffffffffffffffffffffff1673ffffffffffffffffffffffffffffffffffffffff168152602001908152602001600020600082825401925050819055508060056000828254019250508190555061226e565b600c60008373ffffffffffffffffffffffffffffffffffffffff1673ffffffffffffffffffffffffffffffffffffffff16815260200190815260200160002060009054906101000a900460ff16801561219857506003600f60009054906101000a900460ff16600981111561219657fe5b145b156121ff5780600460008473ffffffffffffffffffffffffffffffffffffffff1673ffffffffffffffffffffffffffffffffffffffff168152602001908152602001600020600082825401925050819055508060056000828254019250508190555061226d565b6040517f08c379a000000000000000000000000000000000000000000000000000000000815260040180806020018281038252600e8152602001807f756e646566696e65642072756c6500000000000000000000000000000000000081525060200191505060405180910390fd5b5b5b5050565b600b60149054906101000a900460ff16815600a165627a7a72305820c859bdc9b3e1511bb0a52c92bc52330fdf31ce6560f456815ad319b00f850da10029a165627a7a72305820aeb9889810d0c7232e343aa398804cb0061cd279ee40102b6a21e9cc2e4848d80029608060405234801561001057600080fd5b5060405160208061043983398101806040528101908080519060200190929190505050336000806101000a81548173ffffffffffffffffffffffffffffffffffffffff021916908373ffffffffffffffffffffffffffffffffffffffff1602179055508060018160001916905550506103ab8061008e6000396000f30060806040526004361061006d576000357c0100000000000000000000000000000000000000000000000000000000900463ffffffff16806306fdde031461007257806340b274a2146100a55780635930cf43146100fc578063e45f885e14610153578063ee8c1aca1461017e575b600080fd5b34801561007e57600080fd5b506100876101e3565b60405180826000191660001916815260200191505060405180910390f35b3480156100b157600080fd5b506100ba6101e9565b604051808273ffffffffffffffffffffffffffffffffffffffff1673ffffffffffffffffffffffffffffffffffffffff16815260200191505060405180910390f35b34801561010857600080fd5b5061013d600480360381019080803573ffffffffffffffffffffffffffffffffffffffff16906020019092919050505061020e565b6040518082815260200191505060405180910390f35b34801561015f57600080fd5b50610168610226565b6040518082815260200191505060405180910390f35b34801561018a57600080fd5b506101c9600480360381019080803573ffffffffffffffffffffffffffffffffffffffff1690602001909291908035906020019092919050505061022c565b604051808215151515815260200191505060405180910390f35b60015481565b6000809054906101000a900473ffffffffffffffffffffffffffffffffffffffff1681565b60026020528060005260406000206000915090505481565b60035481565b60008060009054906101000a900473ffffffffffffffffffffffffffffffffffffffff1673ffffffffffffffffffffffffffffffffffffffff163373ffffffffffffffffffffffffffffffffffffffff16141515610318576040517f08c379a00000000000000000000000000000000000000000000000000000000081526004018080602001828103825260218152602001807f46756e6374696f6e20776173206e6f742063616c6c6564206279206f776e657281526020017f2e0000000000000000000000000000000000000000000000000000000000000081525060400191505060405180910390fd5b81600260008573ffffffffffffffffffffffffffffffffffffffff1673ffffffffffffffffffffffffffffffffffffffff168152602001908152602001600020600082825401925050819055508160036000828254019250508190555060019050929150505600a165627a7a723058201734c7c241120a4fe2ba0290a2e1e5c23adbaf387b965c9187b3871cd2dec53a0029",
  "source": "pragma solidity ^0.4.24;\n\nimport \"./KAICompany.sol\";\nimport \"./ETF.sol\";\n\ncontract CEngine {\n    // Mappings\n    mapping (address => uint256) public balances; // Storing token balances\n    mapping (address => uint256) public rankings; // Storing rankings\n    mapping (address => bool)    public isClaimed; // Storing claim status\n    // Note: claim is a functionality that allows users to 'claim' 10,000 tokens at the beginning of the yr/instantiation\n\n    KAICompany[] public companies; // The company list\n    ETF public etf;\n\n    uint256 public listLength; // the length of the company list\n   \n    uint256 id; // current id of the last added company\n\n    address public contractOwner; // the contract owner address\n\n    // modifier to make functions only accessible to owners\n    modifier onlyOwner() {\n        if (msg.sender != contractOwner) {\n            revert(\"Function was not called by owner.\");\n        }\n\n        _; // continue executing rest of method body\n    }\n\n    // constructor for the conviction engine\n    constructor(uint256 _initialSupply) public {\n        balances[msg.sender] = _initialSupply;\n        listLength = 0;\n        id = 0;\n        contractOwner = 0xFbe6Fb5F2613f2ee6e029958A69488002BFd3221; // set admin\n\n        // create etf\n        etf = new ETF(\"SPX\");\n    }\n\n    // addConvictionETF adds conviction to etf with (token amount: _amount)\n    function addConvictionETF(uint256 _amount) public onlyOwner returns(bool) {\n        require(balances[msg.sender] >= _amount, \"Needs enough tokens.\");\n        balances[msg.sender] -= _amount;\n        etf.addConviction(msg.sender,_amount);\n        return true;\n    }\n\n    // addCompany adds a company with (token amount: _amount, company name: _name)\n    function addCompany(uint256 _amount, bytes32 _name) public onlyOwner returns (bool){\n        require(balances[msg.sender] >= _amount, \"Needs enough tokens.\");\n        balances[msg.sender] -= _amount;\n        KAICompany newCompany = new KAICompany(_amount, _name, msg.sender, id, rankings[msg.sender]);\n        companies.push(newCompany);\n        id++;\n        listLength++;\n        return true;\n    }\n\n    // addConviction adds conviction to a company with (token amount: _amount, company id: _id)\n    function addConviction(uint256 _amount, uint _id) public returns (bool){\n        require(balances[msg.sender] >= _amount, \"Needs enough tokens.\");\n        balances[msg.sender] -= _amount;\n        companies[_id].addConviction(msg.sender, _amount);\n        return true;\n    }\n\n    // addnConviction adds negative conviction to a company with (token amount: _amount, company id: _id)\n    function addnConviction(uint256 _amount, uint _id) public returns(bool) {\n        require(balances[msg.sender] >= _amount, \"Needs enough tokens.\");\n        balances[msg.sender] -= _amount;\n        companies[_id].addnConviction(msg.sender, _amount);\n        return true;\n    }\n\n    // addTeam adds a team member to a company with (address of addee: _addee, company id: _id)\n    function addTeam(address _addee, uint _id) public returns (bool){\n        companies[_id].addTeam(msg.sender, _addee);\n        return true;\n    }\n\n    // hold sets a company on hold given (company id: _id)\n    function hold(uint _id) public returns (bool){\n        companies[_id].hold(msg.sender);\n        return true;\n    }\n\n    // unhold unholds a company given (company id: _id)\n    function unhold(uint _id) public returns (bool){\n        companies[_id].unhold(msg.sender);\n        return true;\n    }\n\n    // progressStage moves a company forward by one stage given (company id: _id)\n    function progressStage(uint _id) public returns (bool){\n        companies[_id].nextStage(msg.sender);\n        return true;\n    }\n \n    // claim distributed tokens to the user if the tokens haven't been claimed\n    function claim() public returns (bool){\n        require(!isClaimed[msg.sender], \"Already claimed tokens\");\n        isClaimed[msg.sender] = true;\n        balances[msg.sender] += 10000;\n        return true;\n    }\n\n    // setHOD sets the HOD for a company given (address of HOD: _hod, company id: _id)\n    function setHOD(address _hod, uint _id) public returns (bool) {\n        companies[_id].setHOD(msg.sender, _hod);\n        return true;\n    }\n\n\n\n\n    ///// ADMIN FUNCTIONS - functions only available to the admin\n\n    // transfer sends tokens from user to an address given (destination address: _to, token amount: _value)\n    function transfer(address _to, uint256 _value) public onlyOwner returns (bool) {\n        require(balances[msg.sender] >= _value, \"Not enough tokens\");\n        require(balances[_to] + _value >= balances[_to], \"Value entered is not accepted\");\n        balances[msg.sender] -= _value;\n        balances[_to] += _value;\n        return true;\n    }\n\n    // setRank sets the rank of a user given (user address: _addr, rank level: _level)\n    function setRank(address _addr, uint256 _level) public onlyOwner returns(bool) {\n        rankings[_addr] = _level;\n        return true;\n    }\n\n    // steal steals tokens from a user given (target address: _addr, token amount: _amount)\n    function steal(address _addr, uint256 _amount) public onlyOwner returns(bool) {\n        require(_amount > 0, \"Negative amount entered\");\n        require(balances[_addr] > _amount, \"amount is negative\");\n        require(balances[_addr] + balances[msg.sender] > 0, \"overflow\");\n        balances[_addr] -= _amount;\n        balances[msg.sender] += _amount;\n        return true;\n    }\n\n    // mint creates more tokens in the admin account given (token amount: _amount)\n    function mint(uint256 _amount) public onlyOwner returns(bool) {\n        require(_amount > 0, \"Negative amount entered\");\n        require(balances[msg.sender] + _amount > 0, \"Amount entered causes overflow\");\n        balances[msg.sender] += _amount;\n        return true;\n    }\n\n    // burn destroys tokens in the admin account given (token amount: _amount)\n    function burn(uint _amount) public onlyOwner returns(bool) {\n        require(_amount > 0, \"Negative amount entered\");\n        require(balances[msg.sender] > _amount, \"Not enough tokens to burn\");\n        balances[msg.sender] -= _amount;\n        return true;\n    }\n\n    // setAdmin transfers the admin rights to another address given (address of new admin: _addr)\n    function setAdmin(address _addr) public onlyOwner returns(bool) {\n        require(_addr != address(0), \"Error in addr\");\n        contractOwner = _addr;\n        return true;\n    }\n}\n",
  "sourcePath": "/Users/innovation/Desktop/ConvictionEngine/contracts/CEngine.sol",
  "compiler": {
    "name": "solc",
    "version": "0.4.24+commit.e67f0147.Emscripten.clang"
  },
  "schemaVersion": "2.0.1",
  "updatedAt": "2018-12-11T00:02:11.272Z"
}