{
  "contractName": "CEngine",
  "abi": [
    {
      "constant": true,
      "inputs": [
        {
          "name": "",
          "type": "address"
        }
      ],
      "name": "balances",
      "outputs": [
        {
          "name": "",
          "type": "uint256"
        }
      ],
      "payable": false,
      "stateMutability": "view",
      "type": "function"
    },
    {
      "constant": true,
      "inputs": [
        {
          "name": "",
          "type": "uint256"
        }
      ],
      "name": "companies",
      "outputs": [
        {
          "name": "",
          "type": "address"
        }
      ],
      "payable": false,
      "stateMutability": "view",
      "type": "function"
    },
    {
      "constant": true,
      "inputs": [
        {
          "name": "",
          "type": "address"
        }
      ],
      "name": "isClaimed",
      "outputs": [
        {
          "name": "",
          "type": "bool"
        }
      ],
      "payable": false,
      "stateMutability": "view",
      "type": "function"
    },
    {
      "constant": true,
      "inputs": [
        {
          "name": "",
          "type": "address"
        }
      ],
      "name": "rankings",
      "outputs": [
        {
          "name": "",
          "type": "uint256"
        }
      ],
      "payable": false,
      "stateMutability": "view",
      "type": "function"
    },
    {
      "constant": true,
      "inputs": [],
      "name": "contractOwner",
      "outputs": [
        {
          "name": "",
          "type": "address"
        }
      ],
      "payable": false,
      "stateMutability": "view",
      "type": "function"
    },
    {
      "constant": true,
      "inputs": [],
      "name": "listLength",
      "outputs": [
        {
          "name": "",
          "type": "uint256"
        }
      ],
      "payable": false,
      "stateMutability": "view",
      "type": "function"
    },
    {
      "inputs": [
        {
          "name": "_initialSupply",
          "type": "uint256"
        }
      ],
      "payable": false,
      "stateMutability": "nonpayable",
      "type": "constructor"
    },
    {
      "constant": false,
      "inputs": [
        {
          "name": "_amount",
          "type": "uint256"
        },
        {
          "name": "_name",
          "type": "bytes32"
        }
      ],
      "name": "addCompany",
      "outputs": [
        {
          "name": "",
          "type": "bool"
        }
      ],
      "payable": false,
      "stateMutability": "nonpayable",
      "type": "function"
    },
    {
      "constant": false,
      "inputs": [
        {
          "name": "_amount",
          "type": "uint256"
        },
        {
          "name": "_id",
          "type": "uint256"
        }
      ],
      "name": "addConviction",
      "outputs": [
        {
          "name": "",
          "type": "bool"
        }
      ],
      "payable": false,
      "stateMutability": "nonpayable",
      "type": "function"
    },
    {
      "constant": false,
      "inputs": [
        {
          "name": "_amount",
          "type": "uint256"
        },
        {
          "name": "_id",
          "type": "uint256"
        }
      ],
      "name": "addnConviction",
      "outputs": [
        {
          "name": "",
          "type": "bool"
        }
      ],
      "payable": false,
      "stateMutability": "nonpayable",
      "type": "function"
    },
    {
      "constant": false,
      "inputs": [
        {
          "name": "_addee",
          "type": "address"
        },
        {
          "name": "_id",
          "type": "uint256"
        }
      ],
      "name": "addTeam",
      "outputs": [
        {
          "name": "",
          "type": "bool"
        }
      ],
      "payable": false,
      "stateMutability": "nonpayable",
      "type": "function"
    },
    {
      "constant": false,
      "inputs": [
        {
          "name": "_id",
          "type": "uint256"
        }
      ],
      "name": "hold",
      "outputs": [
        {
          "name": "",
          "type": "bool"
        }
      ],
      "payable": false,
      "stateMutability": "nonpayable",
      "type": "function"
    },
    {
      "constant": false,
      "inputs": [
        {
          "name": "_id",
          "type": "uint256"
        }
      ],
      "name": "unhold",
      "outputs": [
        {
          "name": "",
          "type": "bool"
        }
      ],
      "payable": false,
      "stateMutability": "nonpayable",
      "type": "function"
    },
    {
      "constant": false,
      "inputs": [
        {
          "name": "_id",
          "type": "uint256"
        }
      ],
      "name": "progressStage",
      "outputs": [
        {
          "name": "",
          "type": "bool"
        }
      ],
      "payable": false,
      "stateMutability": "nonpayable",
      "type": "function"
    },
    {
      "constant": false,
      "inputs": [],
      "name": "claim",
      "outputs": [
        {
          "name": "",
          "type": "bool"
        }
      ],
      "payable": false,
      "stateMutability": "nonpayable",
      "type": "function"
    },
    {
      "constant": false,
      "inputs": [
        {
          "name": "_hod",
          "type": "address"
        },
        {
          "name": "_id",
          "type": "uint256"
        }
      ],
      "name": "setHOD",
      "outputs": [
        {
          "name": "",
          "type": "bool"
        }
      ],
      "payable": false,
      "stateMutability": "nonpayable",
      "type": "function"
    },
    {
      "constant": false,
      "inputs": [
        {
          "name": "_to",
          "type": "address"
        },
        {
          "name": "_value",
          "type": "uint256"
        }
      ],
      "name": "transfer",
      "outputs": [
        {
          "name": "",
          "type": "bool"
        }
      ],
      "payable": false,
      "stateMutability": "nonpayable",
      "type": "function"
    },
    {
      "constant": false,
      "inputs": [
        {
          "name": "_addr",
          "type": "address"
        },
        {
          "name": "_level",
          "type": "uint256"
        }
      ],
      "name": "setRank",
      "outputs": [
        {
          "name": "",
          "type": "bool"
        }
      ],
      "payable": false,
      "stateMutability": "nonpayable",
      "type": "function"
    },
    {
      "constant": false,
      "inputs": [
        {
          "name": "_addr",
          "type": "address"
        },
        {
          "name": "_amount",
          "type": "uint256"
        }
      ],
      "name": "steal",
      "outputs": [
        {
          "name": "",
          "type": "bool"
        }
      ],
      "payable": false,
      "stateMutability": "nonpayable",
      "type": "function"
    },
    {
      "constant": false,
      "inputs": [
        {
          "name": "_amount",
          "type": "uint256"
        }
      ],
      "name": "mint",
      "outputs": [
        {
          "name": "",
          "type": "bool"
        }
      ],
      "payable": false,
      "stateMutability": "nonpayable",
      "type": "function"
    },
    {
      "constant": false,
      "inputs": [
        {
          "name": "_amount",
          "type": "uint256"
        }
      ],
      "name": "burn",
      "outputs": [
        {
          "name": "",
          "type": "bool"
        }
      ],
      "payable": false,
      "stateMutability": "nonpayable",
      "type": "function"
    },
    {
      "constant": false,
      "inputs": [
        {
          "name": "_addr",
          "type": "address"
        }
      ],
      "name": "setAdmin",
      "outputs": [
        {
          "name": "",
          "type": "bool"
        }
      ],
      "payable": false,
      "stateMutability": "nonpayable",
      "type": "function"
    }
  ],
  "bytecode": "0x608060405234801561001057600080fd5b5060405160208061472483398101806040528101908080519060200190929190505050806000803373ffffffffffffffffffffffffffffffffffffffff1673ffffffffffffffffffffffffffffffffffffffff168152602001908152602001600020819055506000600481905550600060058190555073fbe6fb5f2613f2ee6e029958a69488002bfd3221600660006101000a81548173ffffffffffffffffffffffffffffffffffffffff021916908373ffffffffffffffffffffffffffffffffffffffff16021790555050614639806100eb6000396000f30060806040526004361061011d576000357c0100000000000000000000000000000000000000000000000000000000900463ffffffff16806311e3edb61461012257806327e235e3146101755780632813d19d146101cc578063299fa52914610239578063366673d31461029e5780633955b0701461030357806342966c681461034857806349c910c01461038d5780634e71d92d146103d2578063704b6c021461040157806374f963fb1461045c5780637e1cfe62146104ab5780638cc0802514610510578063a0712d681461056b578063a9059cbb146105b0578063b1bb6e2214610615578063c253462c1461065a578063ce606ee0146106b1578063e3aa018e14610708578063f0a429571461076d578063fb6f049f146107bc575b600080fd5b34801561012e57600080fd5b5061015b6004803603810190808035906020019092919080356000191690602001909291905050506107e7565b604051808215151515815260200191505060405180910390f35b34801561018157600080fd5b506101b6600480360381019080803573ffffffffffffffffffffffffffffffffffffffff169060200190929190505050610a48565b6040518082815260200191505060405180910390f35b3480156101d857600080fd5b506101f760048036038101908080359060200190929190505050610a60565b604051808273ffffffffffffffffffffffffffffffffffffffff1673ffffffffffffffffffffffffffffffffffffffff16815260200191505060405180910390f35b34801561024557600080fd5b50610284600480360381019080803573ffffffffffffffffffffffffffffffffffffffff16906020019092919080359060200190929190505050610a9e565b604051808215151515815260200191505060405180910390f35b3480156102aa57600080fd5b506102e9600480360381019080803573ffffffffffffffffffffffffffffffffffffffff16906020019092919080359060200190929190505050610e50565b604051808215151515815260200191505060405180910390f35b34801561030f57600080fd5b5061032e60048036038101908080359060200190929190505050610f7c565b604051808215151515815260200191505060405180910390f35b34801561035457600080fd5b5061037360048036038101908080359060200190929190505050611073565b604051808215151515815260200191505060405180910390f35b34801561039957600080fd5b506103b8600480360381019080803590602001909291905050506112e2565b604051808215151515815260200191505060405180910390f35b3480156103de57600080fd5b506103e76113d9565b604051808215151515815260200191505060405180910390f35b34801561040d57600080fd5b50610442600480360381019080803573ffffffffffffffffffffffffffffffffffffffff16906020019092919050505061154a565b604051808215151515815260200191505060405180910390f35b34801561046857600080fd5b506104916004803603810190808035906020019092919080359060200190929190505050611726565b604051808215151515815260200191505060405180910390f35b3480156104b757600080fd5b506104f6600480360381019080803573ffffffffffffffffffffffffffffffffffffffff16906020019092919080359060200190929190505050611928565b604051808215151515815260200191505060405180910390f35b34801561051c57600080fd5b50610551600480360381019080803573ffffffffffffffffffffffffffffffffffffffff169060200190929190505050611a54565b604051808215151515815260200191505060405180910390f35b34801561057757600080fd5b5061059660048036038101908080359060200190929190505050611a74565b604051808215151515815260200191505060405180910390f35b3480156105bc57600080fd5b506105fb600480360381019080803573ffffffffffffffffffffffffffffffffffffffff16906020019092919080359060200190929190505050611ce6565b604051808215151515815260200191505060405180910390f35b34801561062157600080fd5b5061064060048036038101908080359060200190929190505050612021565b604051808215151515815260200191505060405180910390f35b34801561066657600080fd5b5061069b600480360381019080803573ffffffffffffffffffffffffffffffffffffffff16906020019092919050505061212b565b6040518082815260200191505060405180910390f35b3480156106bd57600080fd5b506106c6612143565b604051808273ffffffffffffffffffffffffffffffffffffffff1673ffffffffffffffffffffffffffffffffffffffff16815260200191505060405180910390f35b34801561071457600080fd5b50610753600480360381019080803573ffffffffffffffffffffffffffffffffffffffff16906020019092919080359060200190929190505050612169565b604051808215151515815260200191505060405180910390f35b34801561077957600080fd5b506107a260048036038101908080359060200190929190803590602001909291905050506122a4565b604051808215151515815260200191505060405180910390f35b3480156107c857600080fd5b506107d16124a6565b6040518082815260200191505060405180910390f35b600080836000803373ffffffffffffffffffffffffffffffffffffffff1673ffffffffffffffffffffffffffffffffffffffff16815260200190815260200160002054101515156108a0576040517f08c379a00000000000000000000000000000000000000000000000000000000081526004018080602001828103825260148152602001807f4e6565647320656e6f75676820746f6b656e732e00000000000000000000000081525060200191505060405180910390fd5b836000803373ffffffffffffffffffffffffffffffffffffffff1673ffffffffffffffffffffffffffffffffffffffff16815260200190815260200160002060008282540392505081905550838333600554600160003373ffffffffffffffffffffffffffffffffffffffff1673ffffffffffffffffffffffffffffffffffffffff1681526020019081526020016000205461093a6124ac565b8086815260200185600019166000191681526020018473ffffffffffffffffffffffffffffffffffffffff1673ffffffffffffffffffffffffffffffffffffffff16815260200183815260200182815260200195505050505050604051809103906000f0801580156109b0573d6000803e3d6000fd5b50905060038190806001815401808255809150509060018203906000526020600020016000909192909190916101000a81548173ffffffffffffffffffffffffffffffffffffffff021916908373ffffffffffffffffffffffffffffffffffffffff16021790555050600560008154809291906001019190505550600460008154809291906001019190505550600191505092915050565b60006020528060005260406000206000915090505481565b600381815481101515610a6f57fe5b906000526020600020016000915054906101000a900473ffffffffffffffffffffffffffffffffffffffff1681565b6000600660009054906101000a900473ffffffffffffffffffffffffffffffffffffffff1673ffffffffffffffffffffffffffffffffffffffff163373ffffffffffffffffffffffffffffffffffffffff16141515610b8b576040517f08c379a00000000000000000000000000000000000000000000000000000000081526004018080602001828103825260218152602001807f46756e6374696f6e20776173206e6f742063616c6c6564206279206f776e657281526020017f2e0000000000000000000000000000000000000000000000000000000000000081525060400191505060405180910390fd5b600082111515610c03576040517f08c379a00000000000000000000000000000000000000000000000000000000081526004018080602001828103825260178152602001807f4e6567617469766520616d6f756e7420656e746572656400000000000000000081525060200191505060405180910390fd5b816000808573ffffffffffffffffffffffffffffffffffffffff1673ffffffffffffffffffffffffffffffffffffffff16815260200190815260200160002054111515610cb8576040517f08c379a00000000000000000000000000000000000000000000000000000000081526004018080602001828103825260128152602001807f616d6f756e74206973206e65676174697665000000000000000000000000000081525060200191505060405180910390fd5b60008060003373ffffffffffffffffffffffffffffffffffffffff1673ffffffffffffffffffffffffffffffffffffffff168152602001908152602001600020546000808673ffffffffffffffffffffffffffffffffffffffff1673ffffffffffffffffffffffffffffffffffffffff1681526020019081526020016000205401111515610dae576040517f08c379a00000000000000000000000000000000000000000000000000000000081526004018080602001828103825260088152602001807f6f766572666c6f7700000000000000000000000000000000000000000000000081525060200191505060405180910390fd5b816000808573ffffffffffffffffffffffffffffffffffffffff1673ffffffffffffffffffffffffffffffffffffffff16815260200190815260200160002060008282540392505081905550816000803373ffffffffffffffffffffffffffffffffffffffff1673ffffffffffffffffffffffffffffffffffffffff168152602001908152602001600020600082825401925050819055506001905092915050565b6000600382815481101515610e6157fe5b9060005260206000200160009054906101000a900473ffffffffffffffffffffffffffffffffffffffff1673ffffffffffffffffffffffffffffffffffffffff16638d42d63333856040518363ffffffff167c0100000000000000000000000000000000000000000000000000000000028152600401808373ffffffffffffffffffffffffffffffffffffffff1673ffffffffffffffffffffffffffffffffffffffff1681526020018273ffffffffffffffffffffffffffffffffffffffff1673ffffffffffffffffffffffffffffffffffffffff16815260200192505050600060405180830381600087803b158015610f5a57600080fd5b505af1158015610f6e573d6000803e3d6000fd5b505050506001905092915050565b6000600382815481101515610f8d57fe5b9060005260206000200160009054906101000a900473ffffffffffffffffffffffffffffffffffffffff1673ffffffffffffffffffffffffffffffffffffffff1663730a0d80336040518263ffffffff167c0100000000000000000000000000000000000000000000000000000000028152600401808273ffffffffffffffffffffffffffffffffffffffff1673ffffffffffffffffffffffffffffffffffffffff168152602001915050600060405180830381600087803b15801561105257600080fd5b505af1158015611066573d6000803e3d6000fd5b5050505060019050919050565b6000600660009054906101000a900473ffffffffffffffffffffffffffffffffffffffff1673ffffffffffffffffffffffffffffffffffffffff163373ffffffffffffffffffffffffffffffffffffffff16141515611160576040517f08c379a00000000000000000000000000000000000000000000000000000000081526004018080602001828103825260218152602001807f46756e6374696f6e20776173206e6f742063616c6c6564206279206f776e657281526020017f2e0000000000000000000000000000000000000000000000000000000000000081525060400191505060405180910390fd5b6000821115156111d8576040517f08c379a00000000000000000000000000000000000000000000000000000000081526004018080602001828103825260178152602001807f4e6567617469766520616d6f756e7420656e746572656400000000000000000081525060200191505060405180910390fd5b816000803373ffffffffffffffffffffffffffffffffffffffff1673ffffffffffffffffffffffffffffffffffffffff1681526020019081526020016000205411151561128d576040517f08c379a00000000000000000000000000000000000000000000000000000000081526004018080602001828103825260198152602001807f4e6f7420656e6f75676820746f6b656e7320746f206275726e0000000000000081525060200191505060405180910390fd5b816000803373ffffffffffffffffffffffffffffffffffffffff1673ffffffffffffffffffffffffffffffffffffffff1681526020019081526020016000206000828254039250508190555060019050919050565b60006003828154811015156112f357fe5b9060005260206000200160009054906101000a900473ffffffffffffffffffffffffffffffffffffffff1673ffffffffffffffffffffffffffffffffffffffff1663a7e21e80336040518263ffffffff167c0100000000000000000000000000000000000000000000000000000000028152600401808273ffffffffffffffffffffffffffffffffffffffff1673ffffffffffffffffffffffffffffffffffffffff168152602001915050600060405180830381600087803b1580156113b857600080fd5b505af11580156113cc573d6000803e3d6000fd5b5050505060019050919050565b6000600260003373ffffffffffffffffffffffffffffffffffffffff1673ffffffffffffffffffffffffffffffffffffffff16815260200190815260200160002060009054906101000a900460ff1615151561149d576040517f08c379a00000000000000000000000000000000000000000000000000000000081526004018080602001828103825260168152602001807f416c726561647920636c61696d656420746f6b656e730000000000000000000081525060200191505060405180910390fd5b6001600260003373ffffffffffffffffffffffffffffffffffffffff1673ffffffffffffffffffffffffffffffffffffffff16815260200190815260200160002060006101000a81548160ff0219169083151502179055506127106000803373ffffffffffffffffffffffffffffffffffffffff1673ffffffffffffffffffffffffffffffffffffffff168152602001908152602001600020600082825401925050819055506001905090565b6000600660009054906101000a900473ffffffffffffffffffffffffffffffffffffffff1673ffffffffffffffffffffffffffffffffffffffff163373ffffffffffffffffffffffffffffffffffffffff16141515611637576040517f08c379a00000000000000000000000000000000000000000000000000000000081526004018080602001828103825260218152602001807f46756e6374696f6e20776173206e6f742063616c6c6564206279206f776e657281526020017f2e0000000000000000000000000000000000000000000000000000000000000081525060400191505060405180910390fd5b600073ffffffffffffffffffffffffffffffffffffffff168273ffffffffffffffffffffffffffffffffffffffff16141515156116dc576040517f08c379a000000000000000000000000000000000000000000000000000000000815260040180806020018281038252600d8152602001807f4572726f7220696e20616464720000000000000000000000000000000000000081525060200191505060405180910390fd5b81600660006101000a81548173ffffffffffffffffffffffffffffffffffffffff021916908373ffffffffffffffffffffffffffffffffffffffff16021790555060019050919050565b6000826000803373ffffffffffffffffffffffffffffffffffffffff1673ffffffffffffffffffffffffffffffffffffffff16815260200190815260200160002054101515156117de576040517f08c379a00000000000000000000000000000000000000000000000000000000081526004018080602001828103825260148152602001807f4e6565647320656e6f75676820746f6b656e732e00000000000000000000000081525060200191505060405180910390fd5b826000803373ffffffffffffffffffffffffffffffffffffffff1673ffffffffffffffffffffffffffffffffffffffff1681526020019081526020016000206000828254039250508190555060038281548110151561183957fe5b9060005260206000200160009054906101000a900473ffffffffffffffffffffffffffffffffffffffff1673ffffffffffffffffffffffffffffffffffffffff166304ad640d33856040518363ffffffff167c0100000000000000000000000000000000000000000000000000000000028152600401808373ffffffffffffffffffffffffffffffffffffffff1673ffffffffffffffffffffffffffffffffffffffff16815260200182815260200192505050600060405180830381600087803b15801561190657600080fd5b505af115801561191a573d6000803e3d6000fd5b505050506001905092915050565b600060038281548110151561193957fe5b9060005260206000200160009054906101000a900473ffffffffffffffffffffffffffffffffffffffff1673ffffffffffffffffffffffffffffffffffffffff1663d4ca094f33856040518363ffffffff167c0100000000000000000000000000000000000000000000000000000000028152600401808373ffffffffffffffffffffffffffffffffffffffff1673ffffffffffffffffffffffffffffffffffffffff1681526020018273ffffffffffffffffffffffffffffffffffffffff1673ffffffffffffffffffffffffffffffffffffffff16815260200192505050600060405180830381600087803b158015611a3257600080fd5b505af1158015611a46573d6000803e3d6000fd5b505050506001905092915050565b60026020528060005260406000206000915054906101000a900460ff1681565b6000600660009054906101000a900473ffffffffffffffffffffffffffffffffffffffff1673ffffffffffffffffffffffffffffffffffffffff163373ffffffffffffffffffffffffffffffffffffffff16141515611b61576040517f08c379a00000000000000000000000000000000000000000000000000000000081526004018080602001828103825260218152602001807f46756e6374696f6e20776173206e6f742063616c6c6564206279206f776e657281526020017f2e0000000000000000000000000000000000000000000000000000000000000081525060400191505060405180910390fd5b600082111515611bd9576040517f08c379a00000000000000000000000000000000000000000000000000000000081526004018080602001828103825260178152602001807f4e6567617469766520616d6f756e7420656e746572656400000000000000000081525060200191505060405180910390fd5b6000826000803373ffffffffffffffffffffffffffffffffffffffff1673ffffffffffffffffffffffffffffffffffffffff1681526020019081526020016000205401111515611c91576040517f08c379a000000000000000000000000000000000000000000000000000000000815260040180806020018281038252601e8152602001807f416d6f756e7420656e746572656420636175736573206f766572666c6f77000081525060200191505060405180910390fd5b816000803373ffffffffffffffffffffffffffffffffffffffff1673ffffffffffffffffffffffffffffffffffffffff1681526020019081526020016000206000828254019250508190555060019050919050565b6000600660009054906101000a900473ffffffffffffffffffffffffffffffffffffffff1673ffffffffffffffffffffffffffffffffffffffff163373ffffffffffffffffffffffffffffffffffffffff16141515611dd3576040517f08c379a00000000000000000000000000000000000000000000000000000000081526004018080602001828103825260218152602001807f46756e6374696f6e20776173206e6f742063616c6c6564206279206f776e657281526020017f2e0000000000000000000000000000000000000000000000000000000000000081525060400191505060405180910390fd5b816000803373ffffffffffffffffffffffffffffffffffffffff1673ffffffffffffffffffffffffffffffffffffffff1681526020019081526020016000205410151515611e89576040517f08c379a00000000000000000000000000000000000000000000000000000000081526004018080602001828103825260118152602001807f4e6f7420656e6f75676820746f6b656e7300000000000000000000000000000081525060200191505060405180910390fd5b6000808473ffffffffffffffffffffffffffffffffffffffff1673ffffffffffffffffffffffffffffffffffffffff16815260200190815260200160002054826000808673ffffffffffffffffffffffffffffffffffffffff1673ffffffffffffffffffffffffffffffffffffffff168152602001908152602001600020540110151515611f7f576040517f08c379a000000000000000000000000000000000000000000000000000000000815260040180806020018281038252601d8152602001807f56616c756520656e7465726564206973206e6f7420616363657074656400000081525060200191505060405180910390fd5b816000803373ffffffffffffffffffffffffffffffffffffffff1673ffffffffffffffffffffffffffffffffffffffff16815260200190815260200160002060008282540392505081905550816000808573ffffffffffffffffffffffffffffffffffffffff1673ffffffffffffffffffffffffffffffffffffffff168152602001908152602001600020600082825401925050819055506001905092915050565b600060038281548110151561203257fe5b9060005260206000200160009054906101000a900473ffffffffffffffffffffffffffffffffffffffff1673ffffffffffffffffffffffffffffffffffffffff1663894edcd4600160003373ffffffffffffffffffffffffffffffffffffffff1673ffffffffffffffffffffffffffffffffffffffff168152602001908152602001600020546040518263ffffffff167c010000000000000000000000000000000000000000000000000000000002815260040180828152602001915050600060405180830381600087803b15801561210a57600080fd5b505af115801561211e573d6000803e3d6000fd5b5050505060019050919050565b60016020528060005260406000206000915090505481565b600660009054906101000a900473ffffffffffffffffffffffffffffffffffffffff1681565b6000600660009054906101000a900473ffffffffffffffffffffffffffffffffffffffff1673ffffffffffffffffffffffffffffffffffffffff163373ffffffffffffffffffffffffffffffffffffffff16141515612256576040517f08c379a00000000000000000000000000000000000000000000000000000000081526004018080602001828103825260218152602001807f46756e6374696f6e20776173206e6f742063616c6c6564206279206f776e657281526020017f2e0000000000000000000000000000000000000000000000000000000000000081525060400191505060405180910390fd5b81600160008573ffffffffffffffffffffffffffffffffffffffff1673ffffffffffffffffffffffffffffffffffffffff168152602001908152602001600020819055506001905092915050565b6000826000803373ffffffffffffffffffffffffffffffffffffffff1673ffffffffffffffffffffffffffffffffffffffff168152602001908152602001600020541015151561235c576040517f08c379a00000000000000000000000000000000000000000000000000000000081526004018080602001828103825260148152602001807f4e6565647320656e6f75676820746f6b656e732e00000000000000000000000081525060200191505060405180910390fd5b826000803373ffffffffffffffffffffffffffffffffffffffff1673ffffffffffffffffffffffffffffffffffffffff168152602001908152602001600020600082825403925050819055506003828154811015156123b757fe5b9060005260206000200160009054906101000a900473ffffffffffffffffffffffffffffffffffffffff1673ffffffffffffffffffffffffffffffffffffffff1663ee8c1aca33856040518363ffffffff167c0100000000000000000000000000000000000000000000000000000000028152600401808373ffffffffffffffffffffffffffffffffffffffff1673ffffffffffffffffffffffffffffffffffffffff16815260200182815260200192505050600060405180830381600087803b15801561248457600080fd5b505af1158015612498573d6000803e3d6000fd5b505050506001905092915050565b60045481565b604051612151806124bd833901905600608060405234801561001057600080fd5b5060405160a080612151833981018060405281019080805190602001909291908051906020019092919080519060200190929190805190602001909291908051906020019092919050505033600260006101000a81548173ffffffffffffffffffffffffffffffffffffffff021916908373ffffffffffffffffffffffffffffffffffffffff16021790555082600160006101000a81548173ffffffffffffffffffffffffffffffffffffffff021916908373ffffffffffffffffffffffffffffffffffffffff160217905550836000816000191690555084600460008573ffffffffffffffffffffffffffffffffffffffff1673ffffffffffffffffffffffffffffffffffffffff16815260200190815260200160002081905550846005819055506000600f60006101000a81548160ff0219169083600681111561015257fe5b0217905550816010819055506001600360008573ffffffffffffffffffffffffffffffffffffffff1673ffffffffffffffffffffffffffffffffffffffff16815260200190815260200160002060006101000a81548160ff0219169083151502179055506001600860008573ffffffffffffffffffffffffffffffffffffffff1673ffffffffffffffffffffffffffffffffffffffff16815260200190815260200160002060006101000a81548160ff02191690831515021790555060098390806001815401808255809150509060018203906000526020600020016000909192909190916101000a81548173ffffffffffffffffffffffffffffffffffffffff021916908373ffffffffffffffffffffffffffffffffffffffff160217905550506001600a600082825401925050819055505050505050611eb8806102996000396000f30060806040526004361061015f576000357c0100000000000000000000000000000000000000000000000000000000900463ffffffff16806304ad640d1461016457806306fdde03146101b157806317e75750146101e45780631834972f1461023f57806319aa69b91461029a57806340b274a214610307578063554a3b631461035e5780635930cf43146103b55780635c39fcc11461040c5780637065fdaf14610463578063730a0d801461049c5780637fc50545146104df5780637ffe85001461050e578063894edcd4146105655780638d42d6331461059257806398d6bdad146105f5578063a1d76add14610620578063a7e21e801461064b578063a852a8811461068e578063af640d0f146106fb578063c19d93fb14610726578063d10ee4c91461075f578063d4ca094f146107ba578063e12ced131461081d578063e45f885e14610848578063ee8c1aca14610873578063f5798fde146108c0575b600080fd5b34801561017057600080fd5b506101af600480360381019080803573ffffffffffffffffffffffffffffffffffffffff169060200190929190803590602001909291905050506108ef565b005b3480156101bd57600080fd5b506101c6610afc565b60405180826000191660001916815260200191505060405180910390f35b3480156101f057600080fd5b50610225600480360381019080803573ffffffffffffffffffffffffffffffffffffffff169060200190929190505050610b02565b604051808215151515815260200191505060405180910390f35b34801561024b57600080fd5b50610280600480360381019080803573ffffffffffffffffffffffffffffffffffffffff169060200190929190505050610b22565b604051808215151515815260200191505060405180910390f35b3480156102a657600080fd5b506102c560048036038101908080359060200190929190505050610b42565b604051808273ffffffffffffffffffffffffffffffffffffffff1673ffffffffffffffffffffffffffffffffffffffff16815260200191505060405180910390f35b34801561031357600080fd5b5061031c610b80565b604051808273ffffffffffffffffffffffffffffffffffffffff1673ffffffffffffffffffffffffffffffffffffffff16815260200191505060405180910390f35b34801561036a57600080fd5b5061039f600480360381019080803573ffffffffffffffffffffffffffffffffffffffff169060200190929190505050610ba6565b6040518082815260200191505060405180910390f35b3480156103c157600080fd5b506103f6600480360381019080803573ffffffffffffffffffffffffffffffffffffffff169060200190929190505050610bbe565b6040518082815260200191505060405180910390f35b34801561041857600080fd5b50610421610bd6565b604051808273ffffffffffffffffffffffffffffffffffffffff1673ffffffffffffffffffffffffffffffffffffffff16815260200191505060405180910390f35b34801561046f57600080fd5b50610478610bfc565b6040518082600681111561048857fe5b60ff16815260200191505060405180910390f35b3480156104a857600080fd5b506104dd600480360381019080803573ffffffffffffffffffffffffffffffffffffffff169060200190929190505050610c0f565b005b3480156104eb57600080fd5b506104f4610e51565b604051808215151515815260200191505060405180910390f35b34801561051a57600080fd5b50610523610e64565b604051808273ffffffffffffffffffffffffffffffffffffffff1673ffffffffffffffffffffffffffffffffffffffff16815260200191505060405180910390f35b34801561057157600080fd5b5061059060048036038101908080359060200190929190505050610e8a565b005b34801561059e57600080fd5b506105f3600480360381019080803573ffffffffffffffffffffffffffffffffffffffff169060200190929190803573ffffffffffffffffffffffffffffffffffffffff1690602001909291905050506110d8565b005b34801561060157600080fd5b5061060a611355565b6040518082815260200191505060405180910390f35b34801561062c57600080fd5b5061063561135b565b6040518082815260200191505060405180910390f35b34801561065757600080fd5b5061068c600480360381019080803573ffffffffffffffffffffffffffffffffffffffff169060200190929190505050611361565b005b34801561069a57600080fd5b506106b9600480360381019080803590602001909291905050506115b2565b604051808273ffffffffffffffffffffffffffffffffffffffff1673ffffffffffffffffffffffffffffffffffffffff16815260200191505060405180910390f35b34801561070757600080fd5b506107106115f0565b6040518082815260200191505060405180910390f35b34801561073257600080fd5b5061073b6115f6565b6040518082600681111561074b57fe5b60ff16815260200191505060405180910390f35b34801561076b57600080fd5b506107a0600480360381019080803573ffffffffffffffffffffffffffffffffffffffff169060200190929190505050611609565b604051808215151515815260200191505060405180910390f35b3480156107c657600080fd5b5061081b600480360381019080803573ffffffffffffffffffffffffffffffffffffffff169060200190929190803573ffffffffffffffffffffffffffffffffffffffff169060200190929190505050611629565b005b34801561082957600080fd5b50610832611926565b6040518082815260200191505060405180910390f35b34801561085457600080fd5b5061085d61192c565b6040518082815260200191505060405180910390f35b34801561087f57600080fd5b506108be600480360381019080803573ffffffffffffffffffffffffffffffffffffffff16906020019092919080359060200190929190505050611932565b005b3480156108cc57600080fd5b506108d5611e79565b604051808215151515815260200191505060405180910390f35b600260009054906101000a900473ffffffffffffffffffffffffffffffffffffffff1673ffffffffffffffffffffffffffffffffffffffff163373ffffffffffffffffffffffffffffffffffffffff161415156109da576040517f08c379a00000000000000000000000000000000000000000000000000000000081526004018080602001828103825260218152602001807f46756e6374696f6e20776173206e6f742063616c6c6564206279206f776e657281526020017f2e0000000000000000000000000000000000000000000000000000000000000081525060400191505060405180910390fd5b600860008373ffffffffffffffffffffffffffffffffffffffff1673ffffffffffffffffffffffffffffffffffffffff16815260200190815260200160002060009054906101000a900460ff161515610a9b576040517f08c379a00000000000000000000000000000000000000000000000000000000081526004018080602001828103825260138152602001807f6d757374206265206f6e20746865207465616d0000000000000000000000000081525060200191505060405180910390fd5b80600660008473ffffffffffffffffffffffffffffffffffffffff1673ffffffffffffffffffffffffffffffffffffffff16815260200190815260200160002060008282540192505081905550806007600082825401925050819055505050565b60005481565b60086020528060005260406000206000915054906101000a900460ff1681565b600c6020528060005260406000206000915054906101000a900460ff1681565b600981815481101515610b5157fe5b906000526020600020016000915054906101000a900473ffffffffffffffffffffffffffffffffffffffff1681565b600260009054906101000a900473ffffffffffffffffffffffffffffffffffffffff1681565b60066020528060005260406000206000915090505481565b60046020528060005260406000206000915090505481565b600160009054906101000a900473ffffffffffffffffffffffffffffffffffffffff1681565b600f60029054906101000a900460ff1681565b600260009054906101000a900473ffffffffffffffffffffffffffffffffffffffff1673ffffffffffffffffffffffffffffffffffffffff163373ffffffffffffffffffffffffffffffffffffffff16141515610cfa576040517f08c379a00000000000000000000000000000000000000000000000000000000081526004018080602001828103825260218152602001807f46756e6374696f6e20776173206e6f742063616c6c6564206279206f776e657281526020017f2e0000000000000000000000000000000000000000000000000000000000000081525060400191505060405180910390fd5b600360008273ffffffffffffffffffffffffffffffffffffffff1673ffffffffffffffffffffffffffffffffffffffff16815260200190815260200160002060009054906101000a900460ff168015610d775750600680811115610d5a57fe5b600f60009054906101000a900460ff166006811115610d7557fe5b145b1515610deb576040517f08c379a000000000000000000000000000000000000000000000000000000000815260040180806020018281038252600b8152602001807f6e6f74206f6e207465616d00000000000000000000000000000000000000000081525060200191505060405180910390fd5b6000600f60016101000a81548160ff021916908315150217905550600f60029054906101000a900460ff166006811115610e2157fe5b6006811115610e2c57fe5b600f60006101000a81548160ff02191690836006811115610e4957fe5b021790555050565b600f60019054906101000a900460ff1681565b600b60009054906101000a900473ffffffffffffffffffffffffffffffffffffffff1681565b600260009054906101000a900473ffffffffffffffffffffffffffffffffffffffff1673ffffffffffffffffffffffffffffffffffffffff163373ffffffffffffffffffffffffffffffffffffffff16141515610f75576040517f08c379a00000000000000000000000000000000000000000000000000000000081526004018080602001828103825260218152602001807f46756e6374696f6e20776173206e6f742063616c6c6564206279206f776e657281526020017f2e0000000000000000000000000000000000000000000000000000000000000081525060400191505060405180910390fd5b60056006811115610f8257fe5b600f60009054906101000a900460ff166006811115610f9d57fe5b101515611012576040517f08c379a000000000000000000000000000000000000000000000000000000000815260040180806020018281038252601e8152602001807f436f6d70616e7920616c726561647920617420657869742073746174652e000081525060200191505060405180910390fd5b60008111151561108a576040517f08c379a000000000000000000000000000000000000000000000000000000000815260040180806020018281038252600e8152602001807f556e646566696e65642072616e6b00000000000000000000000000000000000081525060200191505060405180910390fd5b6001600f60009054906101000a900460ff1660068111156110a757fe5b0160068111156110b357fe5b600f60006101000a81548160ff021916908360068111156110d057fe5b021790555050565b600260009054906101000a900473ffffffffffffffffffffffffffffffffffffffff1673ffffffffffffffffffffffffffffffffffffffff163373ffffffffffffffffffffffffffffffffffffffff161415156111c3576040517f08c379a00000000000000000000000000000000000000000000000000000000081526004018080602001828103825260218152602001807f46756e6374696f6e20776173206e6f742063616c6c6564206279206f776e657281526020017f2e0000000000000000000000000000000000000000000000000000000000000081525060400191505060405180910390fd5b600b60149054906101000a900460ff161580156112295750600360008373ffffffffffffffffffffffffffffffffffffffff1673ffffffffffffffffffffffffffffffffffffffff16815260200190815260200160002060009054906101000a900460ff165b151561129d576040517f08c379a000000000000000000000000000000000000000000000000000000000815260040180806020018281038252600f8152602001807f484f4420616c726561647920736574000000000000000000000000000000000081525060200191505060405180910390fd5b6001600360008373ffffffffffffffffffffffffffffffffffffffff1673ffffffffffffffffffffffffffffffffffffffff16815260200190815260200160002060006101000a81548160ff02191690831515021790555080600b60006101000a81548173ffffffffffffffffffffffffffffffffffffffff021916908373ffffffffffffffffffffffffffffffffffffffff1602179055506001600b60146101000a81548160ff0219169083151502179055505050565b600e5481565b60075481565b600260009054906101000a900473ffffffffffffffffffffffffffffffffffffffff1673ffffffffffffffffffffffffffffffffffffffff163373ffffffffffffffffffffffffffffffffffffffff1614151561144c576040517f08c379a00000000000000000000000000000000000000000000000000000000081526004018080602001828103825260218152602001807f46756e6374696f6e20776173206e6f742063616c6c6564206279206f776e657281526020017f2e0000000000000000000000000000000000000000000000000000000000000081525060400191505060405180910390fd5b600360008273ffffffffffffffffffffffffffffffffffffffff1673ffffffffffffffffffffffffffffffffffffffff16815260200190815260200160002060009054906101000a900460ff1680156114ca57506006808111156114ac57fe5b600f60009054906101000a900460ff1660068111156114c757fe5b14155b151561153e576040517f08c379a000000000000000000000000000000000000000000000000000000000815260040180806020018281038252600f8152602001807f6d757374206265206f6e207465616d000000000000000000000000000000000081525060200191505060405180910390fd5b6001600f60016101000a81548160ff021916908315150217905550600f60009054906101000a900460ff16600f60026101000a81548160ff0219169083600681111561158657fe5b02179055506006600f60006101000a81548160ff021916908360068111156115aa57fe5b021790555050565b600d818154811015156115c157fe5b906000526020600020016000915054906101000a900473ffffffffffffffffffffffffffffffffffffffff1681565b60105481565b600f60009054906101000a900460ff1681565b60036020528060005260406000206000915054906101000a900460ff1681565b600260009054906101000a900473ffffffffffffffffffffffffffffffffffffffff1673ffffffffffffffffffffffffffffffffffffffff163373ffffffffffffffffffffffffffffffffffffffff16141515611714576040517f08c379a00000000000000000000000000000000000000000000000000000000081526004018080602001828103825260218152602001807f46756e6374696f6e20776173206e6f742063616c6c6564206279206f776e657281526020017f2e0000000000000000000000000000000000000000000000000000000000000081525060400191505060405180910390fd5b600860008373ffffffffffffffffffffffffffffffffffffffff1673ffffffffffffffffffffffffffffffffffffffff16815260200190815260200160002060009054906101000a900460ff1615156117fb576040517f08c379a00000000000000000000000000000000000000000000000000000000081526004018080602001828103825260328152602001807f596f75206d757374206265206f6e20746865207465616d20746f20616464207081526020017f656f706c6520746f20746865207465616d2e000000000000000000000000000081525060400191505060405180910390fd5b6001600360008373ffffffffffffffffffffffffffffffffffffffff1673ffffffffffffffffffffffffffffffffffffffff16815260200190815260200160002060006101000a81548160ff0219169083151502179055506001600860008373ffffffffffffffffffffffffffffffffffffffff1673ffffffffffffffffffffffffffffffffffffffff16815260200190815260200160002060006101000a81548160ff02191690831515021790555060098190806001815401808255809150509060018203906000526020600020016000909192909190916101000a81548173ffffffffffffffffffffffffffffffffffffffff021916908373ffffffffffffffffffffffffffffffffffffffff160217905550506001600a600082825401925050819055505050565b600a5481565b60055481565b600260009054906101000a900473ffffffffffffffffffffffffffffffffffffffff1673ffffffffffffffffffffffffffffffffffffffff163373ffffffffffffffffffffffffffffffffffffffff16141515611a1d576040517f08c379a00000000000000000000000000000000000000000000000000000000081526004018080602001828103825260218152602001807f46756e6374696f6e20776173206e6f742063616c6c6564206279206f776e657281526020017f2e0000000000000000000000000000000000000000000000000000000000000081525060400191505060405180910390fd5b600860008373ffffffffffffffffffffffffffffffffffffffff1673ffffffffffffffffffffffffffffffffffffffff16815260200190815260200160002060009054906101000a900460ff168015611ab557506000600f60009054906101000a900460ff166006811115611a8e57fe5b1480611ab457506004600f60009054906101000a900460ff166006811115611ab257fe5b145b5b1515611b29576040517f08c379a00000000000000000000000000000000000000000000000000000000081526004018080602001828103825260138152602001807f6d757374206265206f6e20746865207465616d0000000000000000000000000081525060200191505060405180910390fd5b600860008373ffffffffffffffffffffffffffffffffffffffff1673ffffffffffffffffffffffffffffffffffffffff16815260200190815260200160002060009054906101000a900460ff168015611be657506000600f60009054906101000a900460ff166006811115611b9a57fe5b1480611bc057506001600f60009054906101000a900460ff166006811115611bbe57fe5b145b80611be557506004600f60009054906101000a900460ff166006811115611be357fe5b145b5b15611c4d5780600460008473ffffffffffffffffffffffffffffffffffffffff1673ffffffffffffffffffffffffffffffffffffffff1681526020019081526020016000206000828254019250508190555080600560008282540192505081905550611e75565b600b60009054906101000a900473ffffffffffffffffffffffffffffffffffffffff1673ffffffffffffffffffffffffffffffffffffffff168273ffffffffffffffffffffffffffffffffffffffff16148015611cc457506002600f60009054906101000a900460ff166006811115611cc257fe5b145b15611d2b5780600460008473ffffffffffffffffffffffffffffffffffffffff1673ffffffffffffffffffffffffffffffffffffffff1681526020019081526020016000206000828254019250508190555080600560008282540192505081905550611e74565b600c60008373ffffffffffffffffffffffffffffffffffffffff1673ffffffffffffffffffffffffffffffffffffffff16815260200190815260200160002060009054906101000a900460ff168015611d9e57506003600f60009054906101000a900460ff166006811115611d9c57fe5b145b15611e055780600460008473ffffffffffffffffffffffffffffffffffffffff1673ffffffffffffffffffffffffffffffffffffffff1681526020019081526020016000206000828254019250508190555080600560008282540192505081905550611e73565b6040517f08c379a000000000000000000000000000000000000000000000000000000000815260040180806020018281038252600e8152602001807f756e646566696e65642072756c6500000000000000000000000000000000000081525060200191505060405180910390fd5b5b5b5050565b600b60149054906101000a900460ff16815600a165627a7a7230582096861f649ae27803fc52536b5a1d2f0fa35af27d3038f0f5fa1d5d4f66e16dec0029a165627a7a72305820ac164ffed57f2fa59a2f9d05ded8915ef7788c31979c7e97a3c7ed21e2a6fc560029",
  "source": "pragma solidity ^0.4.24;\n\nimport \"./KAICompany.sol\";\n\ncontract CEngine {\n    mapping (address => uint256) public balances;\n    mapping (address => uint256) public rankings;\n    mapping (address => bool)    public isClaimed;\n\n    KAICompany[] public companies;\n\n    uint256 public listLength;\n    uint256 id;\n\n    address public contractOwner;\n\n    modifier onlyOwner() {\n        if (msg.sender != contractOwner) {\n            revert(\"Function was not called by owner.\");\n        }\n\n        _; // continue executing rest of method body\n    }\n\n    constructor(uint256 _initialSupply) public {\n        balances[msg.sender] = _initialSupply;\n        listLength = 0;\n        id = 0;\n        contractOwner = 0xFbe6Fb5F2613f2ee6e029958A69488002BFd3221;\n    }\n\n    function addCompany(uint256 _amount, bytes32 _name) public returns (bool){\n        require(balances[msg.sender] >= _amount, \"Needs enough tokens.\");\n        balances[msg.sender] -= _amount;\n        KAICompany newCompany = new KAICompany(_amount, _name, msg.sender, id, rankings[msg.sender]);\n        companies.push(newCompany);\n        id++;\n        listLength++;\n        return true;\n    }\n\n    function addConviction(uint256 _amount, uint _id) public returns (bool){\n        require(balances[msg.sender] >= _amount, \"Needs enough tokens.\");\n        balances[msg.sender] -= _amount;\n        companies[_id].addConviction(msg.sender, _amount);\n        return true;\n    }\n\n    function addnConviction(uint256 _amount, uint _id) public returns(bool) {\n        require(balances[msg.sender] >= _amount, \"Needs enough tokens.\");\n        balances[msg.sender] -= _amount;\n        companies[_id].addnConviction(msg.sender, _amount);\n        return true;\n    }\n\n    function addTeam(address _addee, uint _id) public returns (bool){\n        companies[_id].addTeam(msg.sender, _addee);\n        return true;\n    }\n\n    function hold(uint _id) public returns (bool){\n        companies[_id].hold(msg.sender);\n        return true;\n    }\n\n    function unhold(uint _id) public returns (bool){\n        companies[_id].unhold(msg.sender);\n        return true;\n    }\n\n    function progressStage(uint _id) public returns (bool){\n        companies[_id].nextStage(rankings[msg.sender]);\n        return true;\n    }\n \n    function claim() public returns (bool){\n        require(!isClaimed[msg.sender], \"Already claimed tokens\");\n        isClaimed[msg.sender] = true;\n        balances[msg.sender] += 10000;\n        return true;\n    }\n\n    function setHOD(address _hod, uint _id) public returns (bool) {\n        companies[_id].setHOD(msg.sender, _hod);\n        return true;\n    }\n\n    // ADMIN FUNCTIONS\n\n    function transfer(address _to, uint256 _value) public onlyOwner returns (bool) {\n        require(balances[msg.sender] >= _value, \"Not enough tokens\");\n        require(balances[_to] + _value >= balances[_to], \"Value entered is not accepted\");\n        balances[msg.sender] -= _value;\n        balances[_to] += _value;\n        return true;\n    }\n\n    function setRank(address _addr, uint256 _level) public onlyOwner returns(bool) {\n        rankings[_addr] = _level;\n        return true;\n    }\n\n    function steal(address _addr, uint256 _amount) public onlyOwner returns(bool) {\n        require(_amount > 0, \"Negative amount entered\");\n        require(balances[_addr] > _amount, \"amount is negative\");\n        require(balances[_addr] + balances[msg.sender] > 0, \"overflow\");\n        balances[_addr] -= _amount;\n        balances[msg.sender] += _amount;\n        return true;\n    }\n\n    function mint(uint256 _amount) public onlyOwner returns(bool) {\n        require(_amount > 0, \"Negative amount entered\");\n        require(balances[msg.sender] + _amount > 0, \"Amount entered causes overflow\");\n        balances[msg.sender] += _amount;\n        return true;\n    }\n\n    function burn(uint _amount) public onlyOwner returns(bool) {\n        require(_amount > 0, \"Negative amount entered\");\n        require(balances[msg.sender] > _amount, \"Not enough tokens to burn\");\n        balances[msg.sender] -= _amount;\n        return true;\n    }\n\n    function setAdmin(address _addr) public onlyOwner returns(bool) {\n        require(_addr != address(0), \"Error in addr\");\n        contractOwner = _addr;\n        return true;\n    }\n}\n",
  "sourcePath": "/Users/innovation/Desktop/ConvictionEngine/contracts/CEngine.sol",
  "compiler": {
    "name": "solc",
    "version": "0.4.24+commit.e67f0147.Emscripten.clang"
  },
  "schemaVersion": "2.0.1",
  "updatedAt": "2018-11-28T18:30:51.112Z"
}