{
  "contractName": "ETF",
  "abi": [
    {
      "constant": true,
      "inputs": [],
      "name": "name",
      "outputs": [
        {
          "name": "",
          "type": "bytes32"
        }
      ],
      "payable": false,
      "stateMutability": "view",
      "type": "function"
    },
    {
      "constant": true,
      "inputs": [],
      "name": "contractInitiated",
      "outputs": [
        {
          "name": "",
          "type": "address"
        }
      ],
      "payable": false,
      "stateMutability": "view",
      "type": "function"
    },
    {
      "constant": true,
      "inputs": [
        {
          "name": "",
          "type": "address"
        }
      ],
      "name": "convictionList",
      "outputs": [
        {
          "name": "",
          "type": "uint256"
        }
      ],
      "payable": false,
      "stateMutability": "view",
      "type": "function"
    },
    {
      "constant": true,
      "inputs": [],
      "name": "totalConviction",
      "outputs": [
        {
          "name": "",
          "type": "uint256"
        }
      ],
      "payable": false,
      "stateMutability": "view",
      "type": "function"
    },
    {
      "inputs": [
        {
          "name": "_name",
          "type": "bytes32"
        }
      ],
      "payable": false,
      "stateMutability": "nonpayable",
      "type": "constructor"
    },
    {
      "constant": false,
      "inputs": [
        {
          "name": "_from",
          "type": "address"
        },
        {
          "name": "_amount",
          "type": "uint256"
        }
      ],
      "name": "addConviction",
      "outputs": [
        {
          "name": "",
          "type": "bool"
        }
      ],
      "payable": false,
      "stateMutability": "nonpayable",
      "type": "function"
    }
  ],
  "bytecode": "0x608060405234801561001057600080fd5b5060405160208061043983398101806040528101908080519060200190929190505050336000806101000a81548173ffffffffffffffffffffffffffffffffffffffff021916908373ffffffffffffffffffffffffffffffffffffffff1602179055508060018160001916905550506103ab8061008e6000396000f30060806040526004361061006d576000357c0100000000000000000000000000000000000000000000000000000000900463ffffffff16806306fdde031461007257806340b274a2146100a55780635930cf43146100fc578063e45f885e14610153578063ee8c1aca1461017e575b600080fd5b34801561007e57600080fd5b506100876101e3565b60405180826000191660001916815260200191505060405180910390f35b3480156100b157600080fd5b506100ba6101e9565b604051808273ffffffffffffffffffffffffffffffffffffffff1673ffffffffffffffffffffffffffffffffffffffff16815260200191505060405180910390f35b34801561010857600080fd5b5061013d600480360381019080803573ffffffffffffffffffffffffffffffffffffffff16906020019092919050505061020e565b6040518082815260200191505060405180910390f35b34801561015f57600080fd5b50610168610226565b6040518082815260200191505060405180910390f35b34801561018a57600080fd5b506101c9600480360381019080803573ffffffffffffffffffffffffffffffffffffffff1690602001909291908035906020019092919050505061022c565b604051808215151515815260200191505060405180910390f35b60015481565b6000809054906101000a900473ffffffffffffffffffffffffffffffffffffffff1681565b60026020528060005260406000206000915090505481565b60035481565b60008060009054906101000a900473ffffffffffffffffffffffffffffffffffffffff1673ffffffffffffffffffffffffffffffffffffffff163373ffffffffffffffffffffffffffffffffffffffff16141515610318576040517f08c379a00000000000000000000000000000000000000000000000000000000081526004018080602001828103825260218152602001807f46756e6374696f6e20776173206e6f742063616c6c6564206279206f776e657281526020017f2e0000000000000000000000000000000000000000000000000000000000000081525060400191505060405180910390fd5b81600260008573ffffffffffffffffffffffffffffffffffffffff1673ffffffffffffffffffffffffffffffffffffffff168152602001908152602001600020600082825401925050819055508160036000828254019250508190555060019050929150505600a165627a7a72305820a4b2291c9fe3e5d544c47c97a60cca489cbc3f881d546be4bc8b78edbae76ab20029",
  "source": "pragma solidity ^0.4.24;\n\n\ncontract ETF {\n    // CEngine address\n    address public contractInitiated;\n\n    // ETF/Index Name\n    bytes32 public name;\n\n    // ETF Pool conviction\n    mapping(address => uint256) public convictionList;\n    uint256 public totalConviction;\n\n    // modifier to make functions only accessible to owners\n    modifier onlyOwner() {\n        if (msg.sender != contractInitiated) {\n            revert(\"Function was not called by owner.\");\n        }\n\n        _; // continue executing rest of method body\n    }\n\n    constructor(bytes32 _name) public {\n        contractInitiated = msg.sender;\n        name = _name;\n    }\n\n     // addConviction adds conviction amount with possible state restrictions given (address of sender: _from, token amount: _amount)\n    function addConviction(address _from, uint256 _amount) public onlyOwner returns (bool){\n        convictionList[_from] += _amount;\n        totalConviction += _amount;\n        return true;\n    }\n\n}\n",
  "sourcePath": "/Users/innovation/Desktop/ConvictionEngine/contracts/ETF.sol",
  "compiler": {
    "name": "solc",
    "version": "0.4.24+commit.e67f0147.Emscripten.clang"
  },
  "schemaVersion": "2.0.1",
  "updatedAt": "2018-12-21T18:26:26.431Z"
}