{
  "contractName": "KAICompany",
  "abi": [
    {
      "constant": true,
      "inputs": [],
      "name": "name",
      "outputs": [
        {
          "name": "",
          "type": "bytes32"
        }
      ],
      "payable": false,
      "stateMutability": "view",
      "type": "function"
    },
    {
      "constant": true,
      "inputs": [],
      "name": "contractInitiated",
      "outputs": [
        {
          "name": "",
          "type": "address"
        }
      ],
      "payable": false,
      "stateMutability": "view",
      "type": "function"
    },
    {
      "constant": true,
      "inputs": [
        {
          "name": "",
          "type": "address"
        }
      ],
      "name": "convictionList",
      "outputs": [
        {
          "name": "",
          "type": "uint256"
        }
      ],
      "payable": false,
      "stateMutability": "view",
      "type": "function"
    },
    {
      "constant": true,
      "inputs": [],
      "name": "initiator",
      "outputs": [
        {
          "name": "",
          "type": "address"
        }
      ],
      "payable": false,
      "stateMutability": "view",
      "type": "function"
    },
    {
      "constant": true,
      "inputs": [],
      "name": "id",
      "outputs": [
        {
          "name": "",
          "type": "uint256"
        }
      ],
      "payable": false,
      "stateMutability": "view",
      "type": "function"
    },
    {
      "constant": true,
      "inputs": [],
      "name": "state",
      "outputs": [
        {
          "name": "",
          "type": "uint8"
        }
      ],
      "payable": false,
      "stateMutability": "view",
      "type": "function"
    },
    {
      "inputs": [
        {
          "name": "_amount",
          "type": "uint256"
        },
        {
          "name": "_name",
          "type": "bytes32"
        },
        {
          "name": "_from",
          "type": "address"
        },
        {
          "name": "_id",
          "type": "uint256"
        }
      ],
      "payable": false,
      "stateMutability": "nonpayable",
      "type": "constructor"
    },
    {
      "constant": false,
      "inputs": [
        {
          "name": "_amount",
          "type": "uint256"
        }
      ],
      "name": "addConviction",
      "outputs": [],
      "payable": false,
      "stateMutability": "nonpayable",
      "type": "function"
    },
    {
      "constant": false,
      "inputs": [],
      "name": "nextStage",
      "outputs": [],
      "payable": false,
      "stateMutability": "nonpayable",
      "type": "function"
    },
    {
      "constant": true,
      "inputs": [
        {
          "name": "_address",
          "type": "address"
        }
      ],
      "name": "getConvictionList",
      "outputs": [
        {
          "name": "",
          "type": "uint256"
        }
      ],
      "payable": false,
      "stateMutability": "view",
      "type": "function"
    }
  ],
  "bytecode": "0x608060405234801561001057600080fd5b506040516080806107518339810180604052810190808051906020019092919080519060200190929190805190602001909291908051906020019092919050505033600260006101000a81548173ffffffffffffffffffffffffffffffffffffffff021916908373ffffffffffffffffffffffffffffffffffffffff16021790555081600160006101000a81548173ffffffffffffffffffffffffffffffffffffffff021916908373ffffffffffffffffffffffffffffffffffffffff160217905550826000816000191690555083600360003273ffffffffffffffffffffffffffffffffffffffff1673ffffffffffffffffffffffffffffffffffffffff168152602001908152602001600020819055506000600460006101000a81548160ff0219169083600581111561014157fe5b021790555080600581905550505050506105f1806101606000396000f300608060405260043610610099576000357c0100000000000000000000000000000000000000000000000000000000900463ffffffff16806306fdde031461009e578063191f72aa146100d157806340b274a2146100fe5780635930cf43146101555780635c39fcc1146101ac57806376fbf45014610203578063af640d0f1461025a578063c19d93fb14610285578063ee3743ab146102be575b600080fd5b3480156100aa57600080fd5b506100b36102d5565b60405180826000191660001916815260200191505060405180910390f35b3480156100dd57600080fd5b506100fc600480360381019080803590602001909291905050506102db565b005b34801561010a57600080fd5b50610113610416565b604051808273ffffffffffffffffffffffffffffffffffffffff1673ffffffffffffffffffffffffffffffffffffffff16815260200191505060405180910390f35b34801561016157600080fd5b50610196600480360381019080803573ffffffffffffffffffffffffffffffffffffffff16906020019092919050505061043c565b6040518082815260200191505060405180910390f35b3480156101b857600080fd5b506101c1610454565b604051808273ffffffffffffffffffffffffffffffffffffffff1673ffffffffffffffffffffffffffffffffffffffff16815260200191505060405180910390f35b34801561020f57600080fd5b50610244600480360381019080803573ffffffffffffffffffffffffffffffffffffffff16906020019092919050505061047a565b6040518082815260200191505060405180910390f35b34801561026657600080fd5b5061026f6104c3565b6040518082815260200191505060405180910390f35b34801561029157600080fd5b5061029a6104c9565b604051808260058111156102aa57fe5b60ff16815260200191505060405180910390f35b3480156102ca57600080fd5b506102d36104dc565b005b60005481565b600260009054906101000a900473ffffffffffffffffffffffffffffffffffffffff1673ffffffffffffffffffffffffffffffffffffffff163373ffffffffffffffffffffffffffffffffffffffff161415156103c6576040517f08c379a00000000000000000000000000000000000000000000000000000000081526004018080602001828103825260218152602001807f46756e6374696f6e20776173206e6f742063616c6c6564206279206f776e657281526020017f2e0000000000000000000000000000000000000000000000000000000000000081525060400191505060405180910390fd5b80600360003273ffffffffffffffffffffffffffffffffffffffff1673ffffffffffffffffffffffffffffffffffffffff1681526020019081526020016000206000828254019250508190555050565b600260009054906101000a900473ffffffffffffffffffffffffffffffffffffffff1681565b60036020528060005260406000206000915090505481565b600160009054906101000a900473ffffffffffffffffffffffffffffffffffffffff1681565b6000600360008373ffffffffffffffffffffffffffffffffffffffff1673ffffffffffffffffffffffffffffffffffffffff168152602001908152602001600020549050919050565b60055481565b600460009054906101000a900460ff1681565b6005808111156104e857fe5b600460009054906101000a900460ff16600581111561050357fe5b101515610578576040517f08c379a000000000000000000000000000000000000000000000000000000000815260040180806020018281038252601e8152602001807f436f6d70616e7920616c726561647920617420657869742073746174652e000081525060200191505060405180910390fd5b6001600460009054906101000a900460ff16600581111561059557fe5b0160058111156105a157fe5b600460006101000a81548160ff021916908360058111156105be57fe5b02179055505600a165627a7a7230582060dc062aa22c884e0cc33d36b66dd9e7ce1bbc005069faa04591d743c710df7c0029",
  "source": "pragma solidity ^0.4.24;\n\ncontract KAICompany {\n    // Company name and address of who did BD\n    bytes32 public name;\n    address public initiator;\n    address public contractInitiated;\n\n    // Conviction list for the company\n    mapping(address => uint256) public convictionList;\n\n    // Investment stages\n    enum States { ZERO, ONE, TWO, THREE, FOUR, EXIT }\n    States public state;\n\n    uint256 public id;\n\n    modifier onlyOwner() {\n        if (msg.sender != contractInitiated) {\n            revert(\"Function was not called by owner.\");\n        }\n\n        _; // continue executing rest of method body\n    }\n\n    constructor(uint256 _amount, bytes32 _name, address _from, uint256 _id) public {\n        contractInitiated = msg.sender;\n        initiator = _from;\n        name = _name;\n        convictionList[tx.origin] = _amount;\n        state = States.ZERO;\n        id = _id;\n    }\n\n    function addConviction(uint256 _amount) public onlyOwner {\n        convictionList[tx.origin] += _amount;\n    }\n\n    function nextStage() public {\n        require(uint(state) < uint(States.EXIT), \"Company already at exit state.\");\n        state = States(uint(state) + 1);\n    }\n\n    function getConvictionList(address _address) public view returns (uint256) {\n        return convictionList[_address];\n    }\n\n}\n\n",
  "sourcePath": "/Users/innovation/Desktop/ConvictionEngine/contracts/KAICompany.sol",
  "compiler": {
    "name": "solc",
    "version": "0.4.24+commit.e67f0147.Emscripten.clang"
  },
  "schemaVersion": "2.0.1",
  "updatedAt": "2018-11-14T22:43:56.675Z"
}