{
  "contractName": "KAICompany",
  "abi": [
    {
      "constant": true,
      "inputs": [],
      "name": "name",
      "outputs": [
        {
          "name": "",
          "type": "bytes32"
        }
      ],
      "payable": false,
      "stateMutability": "view",
      "type": "function"
    },
    {
      "constant": true,
      "inputs": [
        {
          "name": "",
          "type": "address"
        }
      ],
      "name": "teamCheck",
      "outputs": [
        {
          "name": "",
          "type": "bool"
        }
      ],
      "payable": false,
      "stateMutability": "view",
      "type": "function"
    },
    {
      "constant": true,
      "inputs": [
        {
          "name": "",
          "type": "address"
        }
      ],
      "name": "icteamCheck",
      "outputs": [
        {
          "name": "",
          "type": "bool"
        }
      ],
      "payable": false,
      "stateMutability": "view",
      "type": "function"
    },
    {
      "constant": true,
      "inputs": [
        {
          "name": "",
          "type": "uint256"
        }
      ],
      "name": "teamList",
      "outputs": [
        {
          "name": "",
          "type": "address"
        }
      ],
      "payable": false,
      "stateMutability": "view",
      "type": "function"
    },
    {
      "constant": true,
      "inputs": [],
      "name": "contractInitiated",
      "outputs": [
        {
          "name": "",
          "type": "address"
        }
      ],
      "payable": false,
      "stateMutability": "view",
      "type": "function"
    },
    {
      "constant": true,
      "inputs": [
        {
          "name": "",
          "type": "address"
        }
      ],
      "name": "nconvictionList",
      "outputs": [
        {
          "name": "",
          "type": "uint256"
        }
      ],
      "payable": false,
      "stateMutability": "view",
      "type": "function"
    },
    {
      "constant": true,
      "inputs": [
        {
          "name": "",
          "type": "address"
        }
      ],
      "name": "convictionList",
      "outputs": [
        {
          "name": "",
          "type": "uint256"
        }
      ],
      "payable": false,
      "stateMutability": "view",
      "type": "function"
    },
    {
      "constant": true,
      "inputs": [],
      "name": "initiator",
      "outputs": [
        {
          "name": "",
          "type": "address"
        }
      ],
      "payable": false,
      "stateMutability": "view",
      "type": "function"
    },
    {
      "constant": true,
      "inputs": [],
      "name": "heldState",
      "outputs": [
        {
          "name": "",
          "type": "uint8"
        }
      ],
      "payable": false,
      "stateMutability": "view",
      "type": "function"
    },
    {
      "constant": true,
      "inputs": [],
      "name": "onHold",
      "outputs": [
        {
          "name": "",
          "type": "bool"
        }
      ],
      "payable": false,
      "stateMutability": "view",
      "type": "function"
    },
    {
      "constant": true,
      "inputs": [],
      "name": "HOD",
      "outputs": [
        {
          "name": "",
          "type": "address"
        }
      ],
      "payable": false,
      "stateMutability": "view",
      "type": "function"
    },
    {
      "constant": true,
      "inputs": [],
      "name": "icteamListLength",
      "outputs": [
        {
          "name": "",
          "type": "uint256"
        }
      ],
      "payable": false,
      "stateMutability": "view",
      "type": "function"
    },
    {
      "constant": true,
      "inputs": [],
      "name": "totalnConviction",
      "outputs": [
        {
          "name": "",
          "type": "uint256"
        }
      ],
      "payable": false,
      "stateMutability": "view",
      "type": "function"
    },
    {
      "constant": true,
      "inputs": [
        {
          "name": "",
          "type": "uint256"
        }
      ],
      "name": "icteamList",
      "outputs": [
        {
          "name": "",
          "type": "address"
        }
      ],
      "payable": false,
      "stateMutability": "view",
      "type": "function"
    },
    {
      "constant": true,
      "inputs": [],
      "name": "id",
      "outputs": [
        {
          "name": "",
          "type": "uint256"
        }
      ],
      "payable": false,
      "stateMutability": "view",
      "type": "function"
    },
    {
      "constant": true,
      "inputs": [],
      "name": "state",
      "outputs": [
        {
          "name": "",
          "type": "uint8"
        }
      ],
      "payable": false,
      "stateMutability": "view",
      "type": "function"
    },
    {
      "constant": true,
      "inputs": [
        {
          "name": "",
          "type": "address"
        }
      ],
      "name": "onProject",
      "outputs": [
        {
          "name": "",
          "type": "bool"
        }
      ],
      "payable": false,
      "stateMutability": "view",
      "type": "function"
    },
    {
      "constant": true,
      "inputs": [],
      "name": "teamListLength",
      "outputs": [
        {
          "name": "",
          "type": "uint256"
        }
      ],
      "payable": false,
      "stateMutability": "view",
      "type": "function"
    },
    {
      "constant": true,
      "inputs": [],
      "name": "totalConviction",
      "outputs": [
        {
          "name": "",
          "type": "uint256"
        }
      ],
      "payable": false,
      "stateMutability": "view",
      "type": "function"
    },
    {
      "constant": true,
      "inputs": [],
      "name": "isHODSet",
      "outputs": [
        {
          "name": "",
          "type": "bool"
        }
      ],
      "payable": false,
      "stateMutability": "view",
      "type": "function"
    },
    {
      "inputs": [
        {
          "name": "_amount",
          "type": "uint256"
        },
        {
          "name": "_name",
          "type": "bytes32"
        },
        {
          "name": "_from",
          "type": "address"
        },
        {
          "name": "_id",
          "type": "uint256"
        },
        {
          "name": "_rank",
          "type": "uint256"
        }
      ],
      "payable": false,
      "stateMutability": "nonpayable",
      "type": "constructor"
    },
    {
      "constant": false,
      "inputs": [
        {
          "name": "_adder",
          "type": "address"
        },
        {
          "name": "_addee",
          "type": "address"
        }
      ],
      "name": "addTeam",
      "outputs": [],
      "payable": false,
      "stateMutability": "nonpayable",
      "type": "function"
    },
    {
      "constant": false,
      "inputs": [
        {
          "name": "_from",
          "type": "address"
        },
        {
          "name": "_amount",
          "type": "uint256"
        }
      ],
      "name": "addConviction",
      "outputs": [],
      "payable": false,
      "stateMutability": "nonpayable",
      "type": "function"
    },
    {
      "constant": false,
      "inputs": [
        {
          "name": "_from",
          "type": "address"
        },
        {
          "name": "_amount",
          "type": "uint256"
        }
      ],
      "name": "addnConviction",
      "outputs": [],
      "payable": false,
      "stateMutability": "nonpayable",
      "type": "function"
    },
    {
      "constant": false,
      "inputs": [
        {
          "name": "_from",
          "type": "address"
        },
        {
          "name": "_hod",
          "type": "address"
        }
      ],
      "name": "setHOD",
      "outputs": [],
      "payable": false,
      "stateMutability": "nonpayable",
      "type": "function"
    },
    {
      "constant": false,
      "inputs": [
        {
          "name": "_from",
          "type": "address"
        }
      ],
      "name": "unhold",
      "outputs": [],
      "payable": false,
      "stateMutability": "nonpayable",
      "type": "function"
    },
    {
      "constant": false,
      "inputs": [
        {
          "name": "_from",
          "type": "address"
        }
      ],
      "name": "hold",
      "outputs": [],
      "payable": false,
      "stateMutability": "nonpayable",
      "type": "function"
    },
    {
      "constant": false,
      "inputs": [
        {
          "name": "_from",
          "type": "address"
        }
      ],
      "name": "nextStage",
      "outputs": [],
      "payable": false,
      "stateMutability": "nonpayable",
      "type": "function"
    }
  ],
  "bytecode": "0x608060405234801561001057600080fd5b5060405160a08061254b833981018060405281019080805190602001909291908051906020019092919080519060200190929190805190602001909291908051906020019092919050505033600260006101000a81548173ffffffffffffffffffffffffffffffffffffffff021916908373ffffffffffffffffffffffffffffffffffffffff16021790555082600160006101000a81548173ffffffffffffffffffffffffffffffffffffffff021916908373ffffffffffffffffffffffffffffffffffffffff160217905550836000816000191690555084600460008573ffffffffffffffffffffffffffffffffffffffff1673ffffffffffffffffffffffffffffffffffffffff16815260200190815260200160002081905550846005819055506000600f60006101000a81548160ff0219169083600981111561015257fe5b0217905550816010819055506001600360008573ffffffffffffffffffffffffffffffffffffffff1673ffffffffffffffffffffffffffffffffffffffff16815260200190815260200160002060006101000a81548160ff0219169083151502179055506001600860008573ffffffffffffffffffffffffffffffffffffffff1673ffffffffffffffffffffffffffffffffffffffff16815260200190815260200160002060006101000a81548160ff02191690831515021790555060098390806001815401808255809150509060018203906000526020600020016000909192909190916101000a81548173ffffffffffffffffffffffffffffffffffffffff021916908373ffffffffffffffffffffffffffffffffffffffff160217905550506001600a6000828254019250508190555050505050506122b2806102996000396000f30060806040526004361061015f576000357c0100000000000000000000000000000000000000000000000000000000900463ffffffff16806304ad640d1461016457806306fdde03146101b157806317e75750146101e45780631834972f1461023f57806319aa69b91461029a57806340b274a214610307578063554a3b631461035e5780635930cf43146103b55780635c39fcc11461040c5780636381ed81146104635780637065fdaf146104a6578063730a0d80146104df5780637fc50545146105225780637ffe8500146105515780638d42d633146105a857806398d6bdad1461060b578063a1d76add14610636578063a7e21e8014610661578063a852a881146106a4578063af640d0f14610711578063c19d93fb1461073c578063d10ee4c914610775578063d4ca094f146107d0578063e12ced1314610833578063e45f885e1461085e578063ee8c1aca14610889578063f5798fde146108d6575b600080fd5b34801561017057600080fd5b506101af600480360381019080803573ffffffffffffffffffffffffffffffffffffffff16906020019092919080359060200190929190505050610905565b005b3480156101bd57600080fd5b506101c6610d65565b60405180826000191660001916815260200191505060405180910390f35b3480156101f057600080fd5b50610225600480360381019080803573ffffffffffffffffffffffffffffffffffffffff169060200190929190505050610d6b565b604051808215151515815260200191505060405180910390f35b34801561024b57600080fd5b50610280600480360381019080803573ffffffffffffffffffffffffffffffffffffffff169060200190929190505050610d8b565b604051808215151515815260200191505060405180910390f35b3480156102a657600080fd5b506102c560048036038101908080359060200190929190505050610dab565b604051808273ffffffffffffffffffffffffffffffffffffffff1673ffffffffffffffffffffffffffffffffffffffff16815260200191505060405180910390f35b34801561031357600080fd5b5061031c610de9565b604051808273ffffffffffffffffffffffffffffffffffffffff1673ffffffffffffffffffffffffffffffffffffffff16815260200191505060405180910390f35b34801561036a57600080fd5b5061039f600480360381019080803573ffffffffffffffffffffffffffffffffffffffff169060200190929190505050610e0f565b6040518082815260200191505060405180910390f35b3480156103c157600080fd5b506103f6600480360381019080803573ffffffffffffffffffffffffffffffffffffffff169060200190929190505050610e27565b6040518082815260200191505060405180910390f35b34801561041857600080fd5b50610421610e3f565b604051808273ffffffffffffffffffffffffffffffffffffffff1673ffffffffffffffffffffffffffffffffffffffff16815260200191505060405180910390f35b34801561046f57600080fd5b506104a4600480360381019080803573ffffffffffffffffffffffffffffffffffffffff169060200190929190505050610e65565b005b3480156104b257600080fd5b506104bb61132b565b604051808260098111156104cb57fe5b60ff16815260200191505060405180910390f35b3480156104eb57600080fd5b50610520600480360381019080803573ffffffffffffffffffffffffffffffffffffffff16906020019092919050505061133e565b005b34801561052e57600080fd5b50610537611580565b604051808215151515815260200191505060405180910390f35b34801561055d57600080fd5b50610566611593565b604051808273ffffffffffffffffffffffffffffffffffffffff1673ffffffffffffffffffffffffffffffffffffffff16815260200191505060405180910390f35b3480156105b457600080fd5b50610609600480360381019080803573ffffffffffffffffffffffffffffffffffffffff169060200190929190803573ffffffffffffffffffffffffffffffffffffffff1690602001909291905050506115b9565b005b34801561061757600080fd5b50610620611836565b6040518082815260200191505060405180910390f35b34801561064257600080fd5b5061064b61183c565b6040518082815260200191505060405180910390f35b34801561066d57600080fd5b506106a2600480360381019080803573ffffffffffffffffffffffffffffffffffffffff169060200190929190505050611842565b005b3480156106b057600080fd5b506106cf60048036038101908080359060200190929190505050611a93565b604051808273ffffffffffffffffffffffffffffffffffffffff1673ffffffffffffffffffffffffffffffffffffffff16815260200191505060405180910390f35b34801561071d57600080fd5b50610726611ad1565b6040518082815260200191505060405180910390f35b34801561074857600080fd5b50610751611ad7565b6040518082600981111561076157fe5b60ff16815260200191505060405180910390f35b34801561078157600080fd5b506107b6600480360381019080803573ffffffffffffffffffffffffffffffffffffffff169060200190929190505050611aea565b604051808215151515815260200191505060405180910390f35b3480156107dc57600080fd5b50610831600480360381019080803573ffffffffffffffffffffffffffffffffffffffff169060200190929190803573ffffffffffffffffffffffffffffffffffffffff169060200190929190505050611b0a565b005b34801561083f57600080fd5b50610848611e07565b6040518082815260200191505060405180910390f35b34801561086a57600080fd5b50610873611e0d565b6040518082815260200191505060405180910390f35b34801561089557600080fd5b506108d4600480360381019080803573ffffffffffffffffffffffffffffffffffffffff16906020019092919080359060200190929190505050611e13565b005b3480156108e257600080fd5b506108eb612273565b604051808215151515815260200191505060405180910390f35b600260009054906101000a900473ffffffffffffffffffffffffffffffffffffffff1673ffffffffffffffffffffffffffffffffffffffff163373ffffffffffffffffffffffffffffffffffffffff161415156109f0576040517f08c379a00000000000000000000000000000000000000000000000000000000081526004018080602001828103825260218152602001807f46756e6374696f6e20776173206e6f742063616c6c6564206279206f776e657281526020017f2e0000000000000000000000000000000000000000000000000000000000000081525060400191505060405180910390fd5b600860008373ffffffffffffffffffffffffffffffffffffffff1673ffffffffffffffffffffffffffffffffffffffff16815260200190815260200160002060009054906101000a900460ff168015610ad257506000600f60009054906101000a900460ff166009811115610a6157fe5b1480610a8757506001600f60009054906101000a900460ff166009811115610a8557fe5b145b80610aac57506004600f60009054906101000a900460ff166009811115610aaa57fe5b145b80610ad157506006600f60009054906101000a900460ff166009811115610acf57fe5b145b5b15610b395780600460008473ffffffffffffffffffffffffffffffffffffffff1673ffffffffffffffffffffffffffffffffffffffff1681526020019081526020016000206000828254019250508190555080600560008282540192505081905550610d61565b600b60009054906101000a900473ffffffffffffffffffffffffffffffffffffffff1673ffffffffffffffffffffffffffffffffffffffff168273ffffffffffffffffffffffffffffffffffffffff16148015610bb057506002600f60009054906101000a900460ff166009811115610bae57fe5b145b15610c175780600460008473ffffffffffffffffffffffffffffffffffffffff1673ffffffffffffffffffffffffffffffffffffffff1681526020019081526020016000206000828254019250508190555080600560008282540192505081905550610d60565b600c60008373ffffffffffffffffffffffffffffffffffffffff1673ffffffffffffffffffffffffffffffffffffffff16815260200190815260200160002060009054906101000a900460ff168015610c8a57506003600f60009054906101000a900460ff166009811115610c8857fe5b145b15610cf15780600460008473ffffffffffffffffffffffffffffffffffffffff1673ffffffffffffffffffffffffffffffffffffffff1681526020019081526020016000206000828254019250508190555080600560008282540192505081905550610d5f565b6040517f08c379a000000000000000000000000000000000000000000000000000000000815260040180806020018281038252600e8152602001807f756e646566696e65642072756c6500000000000000000000000000000000000081525060200191505060405180910390fd5b5b5b5050565b60005481565b60086020528060005260406000206000915054906101000a900460ff1681565b600c6020528060005260406000206000915054906101000a900460ff1681565b600981815481101515610dba57fe5b906000526020600020016000915054906101000a900473ffffffffffffffffffffffffffffffffffffffff1681565b600260009054906101000a900473ffffffffffffffffffffffffffffffffffffffff1681565b60066020528060005260406000206000915090505481565b60046020528060005260406000206000915090505481565b600160009054906101000a900473ffffffffffffffffffffffffffffffffffffffff1681565b600260009054906101000a900473ffffffffffffffffffffffffffffffffffffffff1673ffffffffffffffffffffffffffffffffffffffff163373ffffffffffffffffffffffffffffffffffffffff16141515610f50576040517f08c379a00000000000000000000000000000000000000000000000000000000081526004018080602001828103825260218152602001807f46756e6374696f6e20776173206e6f742063616c6c6564206279206f776e657281526020017f2e0000000000000000000000000000000000000000000000000000000000000081525060400191505060405180910390fd5b60086009811115610f5d57fe5b600f60009054906101000a900460ff166009811115610f7857fe5b101515610fed576040517f08c379a000000000000000000000000000000000000000000000000000000000815260040180806020018281038252601e8152602001807f436f6d70616e7920616c726561647920617420657869742073746174652e000081525060200191505060405180910390fd5b600860008273ffffffffffffffffffffffffffffffffffffffff1673ffffffffffffffffffffffffffffffffffffffff16815260200190815260200160002060009054906101000a900460ff1680156110cf57506000600f60009054906101000a900460ff16600981111561105e57fe5b148061108457506001600f60009054906101000a900460ff16600981111561108257fe5b145b806110a957506004600f60009054906101000a900460ff1660098111156110a757fe5b145b806110ce57506007600f60009054906101000a900460ff1660098111156110cc57fe5b145b5b15611124576001600f60009054906101000a900460ff1660098111156110f157fe5b0160098111156110fd57fe5b600f60006101000a81548160ff0219169083600981111561111a57fe5b0217905550611328565b600b60009054906101000a900473ffffffffffffffffffffffffffffffffffffffff1673ffffffffffffffffffffffffffffffffffffffff168173ffffffffffffffffffffffffffffffffffffffff1614801561119b57506002600f60009054906101000a900460ff16600981111561119957fe5b145b156111f0576001600f60009054906101000a900460ff1660098111156111bd57fe5b0160098111156111c957fe5b600f60006101000a81548160ff021916908360098111156111e657fe5b0217905550611327565b600c60008273ffffffffffffffffffffffffffffffffffffffff1673ffffffffffffffffffffffffffffffffffffffff16815260200190815260200160002060009054906101000a900460ff16801561126357506003600f60009054906101000a900460ff16600981111561126157fe5b145b156112b8576001600f60009054906101000a900460ff16600981111561128557fe5b01600981111561129157fe5b600f60006101000a81548160ff021916908360098111156112ae57fe5b0217905550611326565b6040517f08c379a000000000000000000000000000000000000000000000000000000000815260040180806020018281038252600e8152602001807f756e646566696e65642072756c6500000000000000000000000000000000000081525060200191505060405180910390fd5b5b5b50565b600f60029054906101000a900460ff1681565b600260009054906101000a900473ffffffffffffffffffffffffffffffffffffffff1673ffffffffffffffffffffffffffffffffffffffff163373ffffffffffffffffffffffffffffffffffffffff16141515611429576040517f08c379a00000000000000000000000000000000000000000000000000000000081526004018080602001828103825260218152602001807f46756e6374696f6e20776173206e6f742063616c6c6564206279206f776e657281526020017f2e0000000000000000000000000000000000000000000000000000000000000081525060400191505060405180910390fd5b600360008273ffffffffffffffffffffffffffffffffffffffff1673ffffffffffffffffffffffffffffffffffffffff16815260200190815260200160002060009054906101000a900460ff1680156114a6575060098081111561148957fe5b600f60009054906101000a900460ff1660098111156114a457fe5b145b151561151a576040517f08c379a000000000000000000000000000000000000000000000000000000000815260040180806020018281038252600b8152602001807f6e6f74206f6e207465616d00000000000000000000000000000000000000000081525060200191505060405180910390fd5b6000600f60016101000a81548160ff021916908315150217905550600f60029054906101000a900460ff16600981111561155057fe5b600981111561155b57fe5b600f60006101000a81548160ff0219169083600981111561157857fe5b021790555050565b600f60019054906101000a900460ff1681565b600b60009054906101000a900473ffffffffffffffffffffffffffffffffffffffff1681565b600260009054906101000a900473ffffffffffffffffffffffffffffffffffffffff1673ffffffffffffffffffffffffffffffffffffffff163373ffffffffffffffffffffffffffffffffffffffff161415156116a4576040517f08c379a00000000000000000000000000000000000000000000000000000000081526004018080602001828103825260218152602001807f46756e6374696f6e20776173206e6f742063616c6c6564206279206f776e657281526020017f2e0000000000000000000000000000000000000000000000000000000000000081525060400191505060405180910390fd5b600b60149054906101000a900460ff1615801561170a5750600360008373ffffffffffffffffffffffffffffffffffffffff1673ffffffffffffffffffffffffffffffffffffffff16815260200190815260200160002060009054906101000a900460ff165b151561177e576040517f08c379a000000000000000000000000000000000000000000000000000000000815260040180806020018281038252600f8152602001807f484f4420616c726561647920736574000000000000000000000000000000000081525060200191505060405180910390fd5b6001600360008373ffffffffffffffffffffffffffffffffffffffff1673ffffffffffffffffffffffffffffffffffffffff16815260200190815260200160002060006101000a81548160ff02191690831515021790555080600b60006101000a81548173ffffffffffffffffffffffffffffffffffffffff021916908373ffffffffffffffffffffffffffffffffffffffff1602179055506001600b60146101000a81548160ff0219169083151502179055505050565b600e5481565b60075481565b600260009054906101000a900473ffffffffffffffffffffffffffffffffffffffff1673ffffffffffffffffffffffffffffffffffffffff163373ffffffffffffffffffffffffffffffffffffffff1614151561192d576040517f08c379a00000000000000000000000000000000000000000000000000000000081526004018080602001828103825260218152602001807f46756e6374696f6e20776173206e6f742063616c6c6564206279206f776e657281526020017f2e0000000000000000000000000000000000000000000000000000000000000081525060400191505060405180910390fd5b600360008273ffffffffffffffffffffffffffffffffffffffff1673ffffffffffffffffffffffffffffffffffffffff16815260200190815260200160002060009054906101000a900460ff1680156119ab575060098081111561198d57fe5b600f60009054906101000a900460ff1660098111156119a857fe5b14155b1515611a1f576040517f08c379a000000000000000000000000000000000000000000000000000000000815260040180806020018281038252600f8152602001807f6d757374206265206f6e207465616d000000000000000000000000000000000081525060200191505060405180910390fd5b6001600f60016101000a81548160ff021916908315150217905550600f60009054906101000a900460ff16600f60026101000a81548160ff02191690836009811115611a6757fe5b02179055506009600f60006101000a81548160ff02191690836009811115611a8b57fe5b021790555050565b600d81815481101515611aa257fe5b906000526020600020016000915054906101000a900473ffffffffffffffffffffffffffffffffffffffff1681565b60105481565b600f60009054906101000a900460ff1681565b60036020528060005260406000206000915054906101000a900460ff1681565b600260009054906101000a900473ffffffffffffffffffffffffffffffffffffffff1673ffffffffffffffffffffffffffffffffffffffff163373ffffffffffffffffffffffffffffffffffffffff16141515611bf5576040517f08c379a00000000000000000000000000000000000000000000000000000000081526004018080602001828103825260218152602001807f46756e6374696f6e20776173206e6f742063616c6c6564206279206f776e657281526020017f2e0000000000000000000000000000000000000000000000000000000000000081525060400191505060405180910390fd5b600860008373ffffffffffffffffffffffffffffffffffffffff1673ffffffffffffffffffffffffffffffffffffffff16815260200190815260200160002060009054906101000a900460ff161515611cdc576040517f08c379a00000000000000000000000000000000000000000000000000000000081526004018080602001828103825260328152602001807f596f75206d757374206265206f6e20746865207465616d20746f20616464207081526020017f656f706c6520746f20746865207465616d2e000000000000000000000000000081525060400191505060405180910390fd5b6001600360008373ffffffffffffffffffffffffffffffffffffffff1673ffffffffffffffffffffffffffffffffffffffff16815260200190815260200160002060006101000a81548160ff0219169083151502179055506001600860008373ffffffffffffffffffffffffffffffffffffffff1673ffffffffffffffffffffffffffffffffffffffff16815260200190815260200160002060006101000a81548160ff02191690831515021790555060098190806001815401808255809150509060018203906000526020600020016000909192909190916101000a81548173ffffffffffffffffffffffffffffffffffffffff021916908373ffffffffffffffffffffffffffffffffffffffff160217905550506001600a600082825401925050819055505050565b600a5481565b60055481565b600260009054906101000a900473ffffffffffffffffffffffffffffffffffffffff1673ffffffffffffffffffffffffffffffffffffffff163373ffffffffffffffffffffffffffffffffffffffff16141515611efe576040517f08c379a00000000000000000000000000000000000000000000000000000000081526004018080602001828103825260218152602001807f46756e6374696f6e20776173206e6f742063616c6c6564206279206f776e657281526020017f2e0000000000000000000000000000000000000000000000000000000000000081525060400191505060405180910390fd5b600860008373ffffffffffffffffffffffffffffffffffffffff1673ffffffffffffffffffffffffffffffffffffffff16815260200190815260200160002060009054906101000a900460ff168015611fe057506000600f60009054906101000a900460ff166009811115611f6f57fe5b1480611f9557506001600f60009054906101000a900460ff166009811115611f9357fe5b145b80611fba57506004600f60009054906101000a900460ff166009811115611fb857fe5b145b80611fdf57506006600f60009054906101000a900460ff166009811115611fdd57fe5b145b5b156120475780600460008473ffffffffffffffffffffffffffffffffffffffff1673ffffffffffffffffffffffffffffffffffffffff168152602001908152602001600020600082825401925050819055508060056000828254019250508190555061226f565b600b60009054906101000a900473ffffffffffffffffffffffffffffffffffffffff1673ffffffffffffffffffffffffffffffffffffffff168273ffffffffffffffffffffffffffffffffffffffff161480156120be57506002600f60009054906101000a900460ff1660098111156120bc57fe5b145b156121255780600460008473ffffffffffffffffffffffffffffffffffffffff1673ffffffffffffffffffffffffffffffffffffffff168152602001908152602001600020600082825401925050819055508060056000828254019250508190555061226e565b600c60008373ffffffffffffffffffffffffffffffffffffffff1673ffffffffffffffffffffffffffffffffffffffff16815260200190815260200160002060009054906101000a900460ff16801561219857506003600f60009054906101000a900460ff16600981111561219657fe5b145b156121ff5780600460008473ffffffffffffffffffffffffffffffffffffffff1673ffffffffffffffffffffffffffffffffffffffff168152602001908152602001600020600082825401925050819055508060056000828254019250508190555061226d565b6040517f08c379a000000000000000000000000000000000000000000000000000000000815260040180806020018281038252600e8152602001807f756e646566696e65642072756c6500000000000000000000000000000000000081525060200191505060405180910390fd5b5b5b5050565b600b60149054906101000a900460ff16815600a165627a7a72305820c859bdc9b3e1511bb0a52c92bc52330fdf31ce6560f456815ad319b00f850da10029",
  "source": "pragma solidity ^0.4.24;\n\ncontract KAICompany {\n    // Company name and address of who did BD\n    bytes32 public name;\n    address public initiator;\n\n    // link back to the address of CEngine\n    address public contractInitiated;\n\n    // mapping of addresses to booleans that holds true if a user is on IC, HOD or on bd team\n    mapping(address => bool) public onProject;\n\n    // Conviction list for the company\n    mapping(address => uint256) public convictionList;\n    uint256 public totalConviction; // total cumulative amount\n\n    // Negative Conviction List for the company\n    mapping(address => uint256) public nconvictionList;\n    uint256 public totalnConviction; // total cumulative amount\n\n    // BD team\n    mapping(address => bool) public teamCheck;\n    address[] public teamList;\n    uint256 public teamListLength;\n\n    // HOD address\n    address public HOD;\n    bool public isHODSet;\n\n    // IC team\n    mapping(address => bool) public icteamCheck;\n    address[] public icteamList;\n    uint256 public icteamListLength;\n\n    // Investment stages\n    enum States { ZERO, ONE, TWO, THREE, FOUR, FIVE, SIX, SEVEN, EXIT, HOLD }\n    States public state;\n    bool public onHold;\n\n    // HOLD state (holds previous state when company goes on hold)\n    States public heldState;\n\n    // project ID\n    uint256 public id;\n\n    // modifier to make functions only accessible to owners\n    modifier onlyOwner() {\n        if (msg.sender != contractInitiated) {\n            revert(\"Function was not called by owner.\");\n        }\n\n        _; // continue executing rest of method body\n    }\n\n    // Constructor and variable init + assignment\n    constructor(uint256 _amount, bytes32 _name, address _from, uint256 _id, uint256 _rank) public {\n        contractInitiated = msg.sender;\n        initiator = _from;\n        name = _name;\n        convictionList[_from] = _amount;\n        totalConviction = _amount;\n        state = States.ZERO;\n        id = _id;\n\n        // Add user to the project\n        onProject[_from] = true;\n\n        // Add user to the team\n        teamCheck[_from] = true;\n        teamList.push(_from);\n        teamListLength += 1;\n    }\n\n    // addTeam adds a team member (uses map to check whether a member is on the team or not) given (address of sender: _adder, address of addee: _addee)\n    function addTeam(address _adder, address _addee) public onlyOwner {\n        require(teamCheck[_adder], \"You must be on the team to add people to the team.\");\n        onProject[_addee] = true;\n        // User Management\n        teamCheck[_addee] = true;\n        teamList.push(_addee);\n        teamListLength += 1;\n    }\n\n    // addConviction adds conviction amount with possible state restrictions given (address of sender: _from, token amount: _amount)\n    function addConviction(address _from, uint256 _amount) public onlyOwner {\n        if(teamCheck[_from] && (uint(state) == 0 || uint(state) == 1 || uint(state) == 4 || uint(state) == 6)){\n            convictionList[_from] += _amount;\n            totalConviction += _amount;\n        }else if(_from == HOD && uint(state) == 2){\n            convictionList[_from] += _amount;\n            totalConviction += _amount;\n        }else if (icteamCheck[_from] && uint(state) == 3){\n            convictionList[_from] += _amount;\n            totalConviction += _amount;\n        }else{\n            revert(\"undefined rule\");\n        }\n    }\n\n    // addnConviction adds negative conviction amount with possible state restrictions given (address of sender: _from, token amount: _amount)\n    function addnConviction(address _from, uint256 _amount) public onlyOwner {\n        if(teamCheck[_from] && (uint(state) == 0 || uint(state) == 1 || uint(state) == 4 || uint(state) == 6)){\n            convictionList[_from] += _amount;\n            totalConviction += _amount;\n        }else if(_from == HOD && uint(state) == 2){\n            convictionList[_from] += _amount;\n            totalConviction += _amount;\n        }else if (icteamCheck[_from] && uint(state) == 3){\n            convictionList[_from] += _amount;\n            totalConviction += _amount;\n        }else{\n            revert(\"undefined rule\");\n        }\n    }\n\n    // setHOD sets HOD status to an address for the project given (address of sender: _from, address of hod: _hod)\n    function setHOD(address _from, address _hod) public onlyOwner{\n        require(!isHODSet && onProject[_from], \"HOD already set\");\n        onProject[_hod] = true;\n        HOD = _hod;\n        isHODSet = true;\n    }\n\n    // unhold unholds a project from the hold state given (address of sender: _from)\n    function unhold(address _from) public onlyOwner {\n        require(onProject[_from] && state == States.HOLD, \"not on team\");\n        onHold = false;\n        state = States(uint(heldState));\n    }\n\n    // hold holds a project from an investment state given (address of sender: _from)\n    function hold(address _from) public onlyOwner {\n        require(onProject[_from] && state != States.HOLD, \"must be on team\");\n        onHold = true;\n        heldState = state;\n        state = States.HOLD;\n    }\n\n    // nextStage progresses the stage given state restrictions (address of sender: _from)\n    function nextStage(address _from) public onlyOwner{\n        require(uint(state) < uint(States.EXIT), \"Company already at exit state.\");\n        \n        if(teamCheck[_from] && (uint(state) == 0 || uint(state) == 1 || uint(state) == 4 || uint(state) == 7)){\n            state = States(uint(state) + 1);\n        }else if(_from == HOD && uint(state) == 2) {\n            state = States(uint(state) + 1);\n        }else if(icteamCheck[_from] && uint(state) == 3) {\n            state = States(uint(state) + 1);\n        }else{\n            revert(\"undefined rule\");\n        }\n    }\n}\n\n",
  "sourcePath": "/Users/innovation/Desktop/ConvictionEngine/contracts/KAICompany.sol",
  "compiler": {
    "name": "solc",
    "version": "0.4.24+commit.e67f0147.Emscripten.clang"
  },
  "schemaVersion": "2.0.1",
  "updatedAt": "2018-12-10T23:37:34.754Z"
}