{
  "contractName": "KAICompany",
  "abi": [
    {
      "constant": true,
      "inputs": [],
      "name": "name",
      "outputs": [
        {
          "name": "",
          "type": "bytes32"
        }
      ],
      "payable": false,
      "stateMutability": "view",
      "type": "function"
    },
    {
      "constant": true,
      "inputs": [
        {
          "name": "",
          "type": "address"
        }
      ],
      "name": "teamCheck",
      "outputs": [
        {
          "name": "",
          "type": "bool"
        }
      ],
      "payable": false,
      "stateMutability": "view",
      "type": "function"
    },
    {
      "constant": true,
      "inputs": [
        {
          "name": "",
          "type": "address"
        }
      ],
      "name": "icteamCheck",
      "outputs": [
        {
          "name": "",
          "type": "bool"
        }
      ],
      "payable": false,
      "stateMutability": "view",
      "type": "function"
    },
    {
      "constant": true,
      "inputs": [
        {
          "name": "",
          "type": "uint256"
        }
      ],
      "name": "teamList",
      "outputs": [
        {
          "name": "",
          "type": "address"
        }
      ],
      "payable": false,
      "stateMutability": "view",
      "type": "function"
    },
    {
      "constant": true,
      "inputs": [],
      "name": "contractInitiated",
      "outputs": [
        {
          "name": "",
          "type": "address"
        }
      ],
      "payable": false,
      "stateMutability": "view",
      "type": "function"
    },
    {
      "constant": true,
      "inputs": [
        {
          "name": "",
          "type": "address"
        }
      ],
      "name": "nconvictionList",
      "outputs": [
        {
          "name": "",
          "type": "uint256"
        }
      ],
      "payable": false,
      "stateMutability": "view",
      "type": "function"
    },
    {
      "constant": true,
      "inputs": [
        {
          "name": "",
          "type": "address"
        }
      ],
      "name": "convictionList",
      "outputs": [
        {
          "name": "",
          "type": "uint256"
        }
      ],
      "payable": false,
      "stateMutability": "view",
      "type": "function"
    },
    {
      "constant": true,
      "inputs": [],
      "name": "initiator",
      "outputs": [
        {
          "name": "",
          "type": "address"
        }
      ],
      "payable": false,
      "stateMutability": "view",
      "type": "function"
    },
    {
      "constant": true,
      "inputs": [],
      "name": "heldState",
      "outputs": [
        {
          "name": "",
          "type": "uint8"
        }
      ],
      "payable": false,
      "stateMutability": "view",
      "type": "function"
    },
    {
      "constant": true,
      "inputs": [],
      "name": "onHold",
      "outputs": [
        {
          "name": "",
          "type": "bool"
        }
      ],
      "payable": false,
      "stateMutability": "view",
      "type": "function"
    },
    {
      "constant": true,
      "inputs": [],
      "name": "HOD",
      "outputs": [
        {
          "name": "",
          "type": "address"
        }
      ],
      "payable": false,
      "stateMutability": "view",
      "type": "function"
    },
    {
      "constant": true,
      "inputs": [],
      "name": "icteamListLength",
      "outputs": [
        {
          "name": "",
          "type": "uint256"
        }
      ],
      "payable": false,
      "stateMutability": "view",
      "type": "function"
    },
    {
      "constant": true,
      "inputs": [],
      "name": "totalnConviction",
      "outputs": [
        {
          "name": "",
          "type": "uint256"
        }
      ],
      "payable": false,
      "stateMutability": "view",
      "type": "function"
    },
    {
      "constant": true,
      "inputs": [
        {
          "name": "",
          "type": "uint256"
        }
      ],
      "name": "icteamList",
      "outputs": [
        {
          "name": "",
          "type": "address"
        }
      ],
      "payable": false,
      "stateMutability": "view",
      "type": "function"
    },
    {
      "constant": true,
      "inputs": [],
      "name": "id",
      "outputs": [
        {
          "name": "",
          "type": "uint256"
        }
      ],
      "payable": false,
      "stateMutability": "view",
      "type": "function"
    },
    {
      "constant": true,
      "inputs": [],
      "name": "state",
      "outputs": [
        {
          "name": "",
          "type": "uint8"
        }
      ],
      "payable": false,
      "stateMutability": "view",
      "type": "function"
    },
    {
      "constant": true,
      "inputs": [
        {
          "name": "",
          "type": "address"
        }
      ],
      "name": "onProject",
      "outputs": [
        {
          "name": "",
          "type": "bool"
        }
      ],
      "payable": false,
      "stateMutability": "view",
      "type": "function"
    },
    {
      "constant": true,
      "inputs": [],
      "name": "teamListLength",
      "outputs": [
        {
          "name": "",
          "type": "uint256"
        }
      ],
      "payable": false,
      "stateMutability": "view",
      "type": "function"
    },
    {
      "constant": true,
      "inputs": [],
      "name": "totalConviction",
      "outputs": [
        {
          "name": "",
          "type": "uint256"
        }
      ],
      "payable": false,
      "stateMutability": "view",
      "type": "function"
    },
    {
      "constant": true,
      "inputs": [],
      "name": "isHODSet",
      "outputs": [
        {
          "name": "",
          "type": "bool"
        }
      ],
      "payable": false,
      "stateMutability": "view",
      "type": "function"
    },
    {
      "inputs": [
        {
          "name": "_amount",
          "type": "uint256"
        },
        {
          "name": "_name",
          "type": "bytes32"
        },
        {
          "name": "_from",
          "type": "address"
        },
        {
          "name": "_id",
          "type": "uint256"
        },
        {
          "name": "_rank",
          "type": "uint256"
        }
      ],
      "payable": false,
      "stateMutability": "nonpayable",
      "type": "constructor"
    },
    {
      "constant": false,
      "inputs": [
        {
          "name": "_adder",
          "type": "address"
        },
        {
          "name": "_addee",
          "type": "address"
        }
      ],
      "name": "addTeam",
      "outputs": [],
      "payable": false,
      "stateMutability": "nonpayable",
      "type": "function"
    },
    {
      "constant": false,
      "inputs": [
        {
          "name": "_from",
          "type": "address"
        },
        {
          "name": "_amount",
          "type": "uint256"
        }
      ],
      "name": "addConviction",
      "outputs": [],
      "payable": false,
      "stateMutability": "nonpayable",
      "type": "function"
    },
    {
      "constant": false,
      "inputs": [
        {
          "name": "_from",
          "type": "address"
        },
        {
          "name": "_amount",
          "type": "uint256"
        }
      ],
      "name": "addnConviction",
      "outputs": [],
      "payable": false,
      "stateMutability": "nonpayable",
      "type": "function"
    },
    {
      "constant": false,
      "inputs": [
        {
          "name": "_from",
          "type": "address"
        },
        {
          "name": "_hod",
          "type": "address"
        }
      ],
      "name": "setHOD",
      "outputs": [],
      "payable": false,
      "stateMutability": "nonpayable",
      "type": "function"
    },
    {
      "constant": false,
      "inputs": [
        {
          "name": "_from",
          "type": "address"
        }
      ],
      "name": "unhold",
      "outputs": [],
      "payable": false,
      "stateMutability": "nonpayable",
      "type": "function"
    },
    {
      "constant": false,
      "inputs": [
        {
          "name": "_from",
          "type": "address"
        }
      ],
      "name": "hold",
      "outputs": [],
      "payable": false,
      "stateMutability": "nonpayable",
      "type": "function"
    },
    {
      "constant": false,
      "inputs": [
        {
          "name": "_from",
          "type": "address"
        }
      ],
      "name": "nextStage",
      "outputs": [],
      "payable": false,
      "stateMutability": "nonpayable",
      "type": "function"
    }
  ],
  "bytecode": "0x608060405234801561001057600080fd5b5060405160a080612404833981018060405281019080805190602001909291908051906020019092919080519060200190929190805190602001909291908051906020019092919050505033600260006101000a81548173ffffffffffffffffffffffffffffffffffffffff021916908373ffffffffffffffffffffffffffffffffffffffff16021790555082600160006101000a81548173ffffffffffffffffffffffffffffffffffffffff021916908373ffffffffffffffffffffffffffffffffffffffff160217905550836000816000191690555084600460008573ffffffffffffffffffffffffffffffffffffffff1673ffffffffffffffffffffffffffffffffffffffff16815260200190815260200160002081905550846005819055506000600f60006101000a81548160ff0219169083600981111561015257fe5b0217905550816010819055506001600360008573ffffffffffffffffffffffffffffffffffffffff1673ffffffffffffffffffffffffffffffffffffffff16815260200190815260200160002060006101000a81548160ff0219169083151502179055506001600860008573ffffffffffffffffffffffffffffffffffffffff1673ffffffffffffffffffffffffffffffffffffffff16815260200190815260200160002060006101000a81548160ff02191690831515021790555060098390806001815401808255809150509060018203906000526020600020016000909192909190916101000a81548173ffffffffffffffffffffffffffffffffffffffff021916908373ffffffffffffffffffffffffffffffffffffffff160217905550506001600a60008282540192505081905550505050505061216b806102996000396000f30060806040526004361061015f576000357c0100000000000000000000000000000000000000000000000000000000900463ffffffff16806304ad640d1461016457806306fdde03146101b157806317e75750146101e45780631834972f1461023f57806319aa69b91461029a57806340b274a214610307578063554a3b631461035e5780635930cf43146103b55780635c39fcc11461040c5780636381ed81146104635780637065fdaf146104a6578063730a0d80146104df5780637fc50545146105225780637ffe8500146105515780638d42d633146105a857806398d6bdad1461060b578063a1d76add14610636578063a7e21e8014610661578063a852a881146106a4578063af640d0f14610711578063c19d93fb1461073c578063d10ee4c914610775578063d4ca094f146107d0578063e12ced1314610833578063e45f885e1461085e578063ee8c1aca14610889578063f5798fde146108d6575b600080fd5b34801561017057600080fd5b506101af600480360381019080803573ffffffffffffffffffffffffffffffffffffffff16906020019092919080359060200190929190505050610905565b005b3480156101bd57600080fd5b506101c6610b12565b60405180826000191660001916815260200191505060405180910390f35b3480156101f057600080fd5b50610225600480360381019080803573ffffffffffffffffffffffffffffffffffffffff169060200190929190505050610b18565b604051808215151515815260200191505060405180910390f35b34801561024b57600080fd5b50610280600480360381019080803573ffffffffffffffffffffffffffffffffffffffff169060200190929190505050610b38565b604051808215151515815260200191505060405180910390f35b3480156102a657600080fd5b506102c560048036038101908080359060200190929190505050610b58565b604051808273ffffffffffffffffffffffffffffffffffffffff1673ffffffffffffffffffffffffffffffffffffffff16815260200191505060405180910390f35b34801561031357600080fd5b5061031c610b96565b604051808273ffffffffffffffffffffffffffffffffffffffff1673ffffffffffffffffffffffffffffffffffffffff16815260200191505060405180910390f35b34801561036a57600080fd5b5061039f600480360381019080803573ffffffffffffffffffffffffffffffffffffffff169060200190929190505050610bbc565b6040518082815260200191505060405180910390f35b3480156103c157600080fd5b506103f6600480360381019080803573ffffffffffffffffffffffffffffffffffffffff169060200190929190505050610bd4565b6040518082815260200191505060405180910390f35b34801561041857600080fd5b50610421610bec565b604051808273ffffffffffffffffffffffffffffffffffffffff1673ffffffffffffffffffffffffffffffffffffffff16815260200191505060405180910390f35b34801561046f57600080fd5b506104a4600480360381019080803573ffffffffffffffffffffffffffffffffffffffff169060200190929190505050610c12565b005b3480156104b257600080fd5b506104bb6110d8565b604051808260098111156104cb57fe5b60ff16815260200191505060405180910390f35b3480156104eb57600080fd5b50610520600480360381019080803573ffffffffffffffffffffffffffffffffffffffff1690602001909291905050506110eb565b005b34801561052e57600080fd5b5061053761132d565b604051808215151515815260200191505060405180910390f35b34801561055d57600080fd5b50610566611340565b604051808273ffffffffffffffffffffffffffffffffffffffff1673ffffffffffffffffffffffffffffffffffffffff16815260200191505060405180910390f35b3480156105b457600080fd5b50610609600480360381019080803573ffffffffffffffffffffffffffffffffffffffff169060200190929190803573ffffffffffffffffffffffffffffffffffffffff169060200190929190505050611366565b005b34801561061757600080fd5b506106206115e3565b6040518082815260200191505060405180910390f35b34801561064257600080fd5b5061064b6115e9565b6040518082815260200191505060405180910390f35b34801561066d57600080fd5b506106a2600480360381019080803573ffffffffffffffffffffffffffffffffffffffff1690602001909291905050506115ef565b005b3480156106b057600080fd5b506106cf60048036038101908080359060200190929190505050611840565b604051808273ffffffffffffffffffffffffffffffffffffffff1673ffffffffffffffffffffffffffffffffffffffff16815260200191505060405180910390f35b34801561071d57600080fd5b5061072661187e565b6040518082815260200191505060405180910390f35b34801561074857600080fd5b50610751611884565b6040518082600981111561076157fe5b60ff16815260200191505060405180910390f35b34801561078157600080fd5b506107b6600480360381019080803573ffffffffffffffffffffffffffffffffffffffff169060200190929190505050611897565b604051808215151515815260200191505060405180910390f35b3480156107dc57600080fd5b50610831600480360381019080803573ffffffffffffffffffffffffffffffffffffffff169060200190929190803573ffffffffffffffffffffffffffffffffffffffff1690602001909291905050506118b7565b005b34801561083f57600080fd5b50610848611bb4565b6040518082815260200191505060405180910390f35b34801561086a57600080fd5b50610873611bba565b6040518082815260200191505060405180910390f35b34801561089557600080fd5b506108d4600480360381019080803573ffffffffffffffffffffffffffffffffffffffff16906020019092919080359060200190929190505050611bc0565b005b3480156108e257600080fd5b506108eb61212c565b604051808215151515815260200191505060405180910390f35b600260009054906101000a900473ffffffffffffffffffffffffffffffffffffffff1673ffffffffffffffffffffffffffffffffffffffff163373ffffffffffffffffffffffffffffffffffffffff161415156109f0576040517f08c379a00000000000000000000000000000000000000000000000000000000081526004018080602001828103825260218152602001807f46756e6374696f6e20776173206e6f742063616c6c6564206279206f776e657281526020017f2e0000000000000000000000000000000000000000000000000000000000000081525060400191505060405180910390fd5b600860008373ffffffffffffffffffffffffffffffffffffffff1673ffffffffffffffffffffffffffffffffffffffff16815260200190815260200160002060009054906101000a900460ff161515610ab1576040517f08c379a00000000000000000000000000000000000000000000000000000000081526004018080602001828103825260138152602001807f6d757374206265206f6e20746865207465616d0000000000000000000000000081525060200191505060405180910390fd5b80600660008473ffffffffffffffffffffffffffffffffffffffff1673ffffffffffffffffffffffffffffffffffffffff16815260200190815260200160002060008282540192505081905550806007600082825401925050819055505050565b60005481565b60086020528060005260406000206000915054906101000a900460ff1681565b600c6020528060005260406000206000915054906101000a900460ff1681565b600981815481101515610b6757fe5b906000526020600020016000915054906101000a900473ffffffffffffffffffffffffffffffffffffffff1681565b600260009054906101000a900473ffffffffffffffffffffffffffffffffffffffff1681565b60066020528060005260406000206000915090505481565b60046020528060005260406000206000915090505481565b600160009054906101000a900473ffffffffffffffffffffffffffffffffffffffff1681565b600260009054906101000a900473ffffffffffffffffffffffffffffffffffffffff1673ffffffffffffffffffffffffffffffffffffffff163373ffffffffffffffffffffffffffffffffffffffff16141515610cfd576040517f08c379a00000000000000000000000000000000000000000000000000000000081526004018080602001828103825260218152602001807f46756e6374696f6e20776173206e6f742063616c6c6564206279206f776e657281526020017f2e0000000000000000000000000000000000000000000000000000000000000081525060400191505060405180910390fd5b60086009811115610d0a57fe5b600f60009054906101000a900460ff166009811115610d2557fe5b101515610d9a576040517f08c379a000000000000000000000000000000000000000000000000000000000815260040180806020018281038252601e8152602001807f436f6d70616e7920616c726561647920617420657869742073746174652e000081525060200191505060405180910390fd5b600860008273ffffffffffffffffffffffffffffffffffffffff1673ffffffffffffffffffffffffffffffffffffffff16815260200190815260200160002060009054906101000a900460ff168015610e7c57506000600f60009054906101000a900460ff166009811115610e0b57fe5b1480610e3157506001600f60009054906101000a900460ff166009811115610e2f57fe5b145b80610e5657506004600f60009054906101000a900460ff166009811115610e5457fe5b145b80610e7b57506007600f60009054906101000a900460ff166009811115610e7957fe5b145b5b15610ed1576001600f60009054906101000a900460ff166009811115610e9e57fe5b016009811115610eaa57fe5b600f60006101000a81548160ff02191690836009811115610ec757fe5b02179055506110d5565b600b60009054906101000a900473ffffffffffffffffffffffffffffffffffffffff1673ffffffffffffffffffffffffffffffffffffffff168173ffffffffffffffffffffffffffffffffffffffff16148015610f4857506002600f60009054906101000a900460ff166009811115610f4657fe5b145b15610f9d576001600f60009054906101000a900460ff166009811115610f6a57fe5b016009811115610f7657fe5b600f60006101000a81548160ff02191690836009811115610f9357fe5b02179055506110d4565b600c60008273ffffffffffffffffffffffffffffffffffffffff1673ffffffffffffffffffffffffffffffffffffffff16815260200190815260200160002060009054906101000a900460ff16801561101057506003600f60009054906101000a900460ff16600981111561100e57fe5b145b15611065576001600f60009054906101000a900460ff16600981111561103257fe5b01600981111561103e57fe5b600f60006101000a81548160ff0219169083600981111561105b57fe5b02179055506110d3565b6040517f08c379a000000000000000000000000000000000000000000000000000000000815260040180806020018281038252600e8152602001807f756e646566696e65642072756c6500000000000000000000000000000000000081525060200191505060405180910390fd5b5b5b50565b600f60029054906101000a900460ff1681565b600260009054906101000a900473ffffffffffffffffffffffffffffffffffffffff1673ffffffffffffffffffffffffffffffffffffffff163373ffffffffffffffffffffffffffffffffffffffff161415156111d6576040517f08c379a00000000000000000000000000000000000000000000000000000000081526004018080602001828103825260218152602001807f46756e6374696f6e20776173206e6f742063616c6c6564206279206f776e657281526020017f2e0000000000000000000000000000000000000000000000000000000000000081525060400191505060405180910390fd5b600360008273ffffffffffffffffffffffffffffffffffffffff1673ffffffffffffffffffffffffffffffffffffffff16815260200190815260200160002060009054906101000a900460ff168015611253575060098081111561123657fe5b600f60009054906101000a900460ff16600981111561125157fe5b145b15156112c7576040517f08c379a000000000000000000000000000000000000000000000000000000000815260040180806020018281038252600b8152602001807f6e6f74206f6e207465616d00000000000000000000000000000000000000000081525060200191505060405180910390fd5b6000600f60016101000a81548160ff021916908315150217905550600f60029054906101000a900460ff1660098111156112fd57fe5b600981111561130857fe5b600f60006101000a81548160ff0219169083600981111561132557fe5b021790555050565b600f60019054906101000a900460ff1681565b600b60009054906101000a900473ffffffffffffffffffffffffffffffffffffffff1681565b600260009054906101000a900473ffffffffffffffffffffffffffffffffffffffff1673ffffffffffffffffffffffffffffffffffffffff163373ffffffffffffffffffffffffffffffffffffffff16141515611451576040517f08c379a00000000000000000000000000000000000000000000000000000000081526004018080602001828103825260218152602001807f46756e6374696f6e20776173206e6f742063616c6c6564206279206f776e657281526020017f2e0000000000000000000000000000000000000000000000000000000000000081525060400191505060405180910390fd5b600b60149054906101000a900460ff161580156114b75750600360008373ffffffffffffffffffffffffffffffffffffffff1673ffffffffffffffffffffffffffffffffffffffff16815260200190815260200160002060009054906101000a900460ff165b151561152b576040517f08c379a000000000000000000000000000000000000000000000000000000000815260040180806020018281038252600f8152602001807f484f4420616c726561647920736574000000000000000000000000000000000081525060200191505060405180910390fd5b6001600360008373ffffffffffffffffffffffffffffffffffffffff1673ffffffffffffffffffffffffffffffffffffffff16815260200190815260200160002060006101000a81548160ff02191690831515021790555080600b60006101000a81548173ffffffffffffffffffffffffffffffffffffffff021916908373ffffffffffffffffffffffffffffffffffffffff1602179055506001600b60146101000a81548160ff0219169083151502179055505050565b600e5481565b60075481565b600260009054906101000a900473ffffffffffffffffffffffffffffffffffffffff1673ffffffffffffffffffffffffffffffffffffffff163373ffffffffffffffffffffffffffffffffffffffff161415156116da576040517f08c379a00000000000000000000000000000000000000000000000000000000081526004018080602001828103825260218152602001807f46756e6374696f6e20776173206e6f742063616c6c6564206279206f776e657281526020017f2e0000000000000000000000000000000000000000000000000000000000000081525060400191505060405180910390fd5b600360008273ffffffffffffffffffffffffffffffffffffffff1673ffffffffffffffffffffffffffffffffffffffff16815260200190815260200160002060009054906101000a900460ff168015611758575060098081111561173a57fe5b600f60009054906101000a900460ff16600981111561175557fe5b14155b15156117cc576040517f08c379a000000000000000000000000000000000000000000000000000000000815260040180806020018281038252600f8152602001807f6d757374206265206f6e207465616d000000000000000000000000000000000081525060200191505060405180910390fd5b6001600f60016101000a81548160ff021916908315150217905550600f60009054906101000a900460ff16600f60026101000a81548160ff0219169083600981111561181457fe5b02179055506009600f60006101000a81548160ff0219169083600981111561183857fe5b021790555050565b600d8181548110151561184f57fe5b906000526020600020016000915054906101000a900473ffffffffffffffffffffffffffffffffffffffff1681565b60105481565b600f60009054906101000a900460ff1681565b60036020528060005260406000206000915054906101000a900460ff1681565b600260009054906101000a900473ffffffffffffffffffffffffffffffffffffffff1673ffffffffffffffffffffffffffffffffffffffff163373ffffffffffffffffffffffffffffffffffffffff161415156119a2576040517f08c379a00000000000000000000000000000000000000000000000000000000081526004018080602001828103825260218152602001807f46756e6374696f6e20776173206e6f742063616c6c6564206279206f776e657281526020017f2e0000000000000000000000000000000000000000000000000000000000000081525060400191505060405180910390fd5b600860008373ffffffffffffffffffffffffffffffffffffffff1673ffffffffffffffffffffffffffffffffffffffff16815260200190815260200160002060009054906101000a900460ff161515611a89576040517f08c379a00000000000000000000000000000000000000000000000000000000081526004018080602001828103825260328152602001807f596f75206d757374206265206f6e20746865207465616d20746f20616464207081526020017f656f706c6520746f20746865207465616d2e000000000000000000000000000081525060400191505060405180910390fd5b6001600360008373ffffffffffffffffffffffffffffffffffffffff1673ffffffffffffffffffffffffffffffffffffffff16815260200190815260200160002060006101000a81548160ff0219169083151502179055506001600860008373ffffffffffffffffffffffffffffffffffffffff1673ffffffffffffffffffffffffffffffffffffffff16815260200190815260200160002060006101000a81548160ff02191690831515021790555060098190806001815401808255809150509060018203906000526020600020016000909192909190916101000a81548173ffffffffffffffffffffffffffffffffffffffff021916908373ffffffffffffffffffffffffffffffffffffffff160217905550506001600a600082825401925050819055505050565b600a5481565b60055481565b600260009054906101000a900473ffffffffffffffffffffffffffffffffffffffff1673ffffffffffffffffffffffffffffffffffffffff163373ffffffffffffffffffffffffffffffffffffffff16141515611cab576040517f08c379a00000000000000000000000000000000000000000000000000000000081526004018080602001828103825260218152602001807f46756e6374696f6e20776173206e6f742063616c6c6564206279206f776e657281526020017f2e0000000000000000000000000000000000000000000000000000000000000081525060400191505060405180910390fd5b600860008373ffffffffffffffffffffffffffffffffffffffff1673ffffffffffffffffffffffffffffffffffffffff16815260200190815260200160002060009054906101000a900460ff168015611d4357506000600f60009054906101000a900460ff166009811115611d1c57fe5b1480611d4257506004600f60009054906101000a900460ff166009811115611d4057fe5b145b5b1515611db7576040517f08c379a00000000000000000000000000000000000000000000000000000000081526004018080602001828103825260138152602001807f6d757374206265206f6e20746865207465616d0000000000000000000000000081525060200191505060405180910390fd5b600860008373ffffffffffffffffffffffffffffffffffffffff1673ffffffffffffffffffffffffffffffffffffffff16815260200190815260200160002060009054906101000a900460ff168015611e9957506000600f60009054906101000a900460ff166009811115611e2857fe5b1480611e4e57506001600f60009054906101000a900460ff166009811115611e4c57fe5b145b80611e7357506004600f60009054906101000a900460ff166009811115611e7157fe5b145b80611e9857506007600f60009054906101000a900460ff166009811115611e9657fe5b145b5b15611f005780600460008473ffffffffffffffffffffffffffffffffffffffff1673ffffffffffffffffffffffffffffffffffffffff1681526020019081526020016000206000828254019250508190555080600560008282540192505081905550612128565b600b60009054906101000a900473ffffffffffffffffffffffffffffffffffffffff1673ffffffffffffffffffffffffffffffffffffffff168273ffffffffffffffffffffffffffffffffffffffff16148015611f7757506002600f60009054906101000a900460ff166009811115611f7557fe5b145b15611fde5780600460008473ffffffffffffffffffffffffffffffffffffffff1673ffffffffffffffffffffffffffffffffffffffff1681526020019081526020016000206000828254019250508190555080600560008282540192505081905550612127565b600c60008373ffffffffffffffffffffffffffffffffffffffff1673ffffffffffffffffffffffffffffffffffffffff16815260200190815260200160002060009054906101000a900460ff16801561205157506003600f60009054906101000a900460ff16600981111561204f57fe5b145b156120b85780600460008473ffffffffffffffffffffffffffffffffffffffff1673ffffffffffffffffffffffffffffffffffffffff1681526020019081526020016000206000828254019250508190555080600560008282540192505081905550612126565b6040517f08c379a000000000000000000000000000000000000000000000000000000000815260040180806020018281038252600e8152602001807f756e646566696e65642072756c6500000000000000000000000000000000000081525060200191505060405180910390fd5b5b5b5050565b600b60149054906101000a900460ff16815600a165627a7a72305820fa7395f28f63e52eaebe10c424b996fd2720926494a6acb230fadd8a1e39818d0029",
  "source": "pragma solidity ^0.4.24;\n\ncontract KAICompany {\n    // Company name and address of who did BD\n    bytes32 public name;\n    address public initiator;\n    address public contractInitiated;\n\n    mapping(address => bool) public onProject;\n\n    // Conviction list for the company\n    mapping(address => uint256) public convictionList;\n    uint256 public totalConviction;\n\n    // Negative Conviction List for the company\n    mapping(address => uint256) public nconvictionList;\n    uint256 public totalnConviction;\n\n    // BD team\n    mapping(address => bool) public teamCheck;\n    address[] public teamList;\n    uint256 public teamListLength;\n\n    // HOD address\n    address public HOD;\n    bool public isHODSet;\n\n    // IC team\n    mapping(address => bool) public icteamCheck;\n    address[] public icteamList;\n    uint256 public icteamListLength;\n\n    // Investment stages\n    enum States { ZERO, ONE, TWO, THREE, FOUR, FIVE, SIX, SEVEN, EXIT, HOLD }\n    States public state;\n    bool public onHold;\n\n    // HOLD state\n    States public heldState;\n\n    uint256 public id;\n\n    modifier onlyOwner() {\n        if (msg.sender != contractInitiated) {\n            revert(\"Function was not called by owner.\");\n        }\n\n        _; // continue executing rest of method body\n    }\n\n    constructor(uint256 _amount, bytes32 _name, address _from, uint256 _id, uint256 _rank) public {\n        contractInitiated = msg.sender;\n        initiator = _from;\n        name = _name;\n        convictionList[_from] = _amount;\n        totalConviction = _amount;\n        state = States.ZERO;\n        id = _id;\n\n        // Add user to the project\n        onProject[_from] = true;\n\n        // Add user to the team\n        teamCheck[_from] = true;\n        teamList.push(_from);\n        teamListLength += 1;\n    }\n\n    function addTeam(address _adder, address _addee) public onlyOwner {\n        require(teamCheck[_adder], \"You must be on the team to add people to the team.\");\n        onProject[_addee] = true;\n        // User Management\n        teamCheck[_addee] = true;\n        teamList.push(_addee);\n        teamListLength += 1;\n    }\n\n    function addConviction(address _from, uint256 _amount) public onlyOwner {\n        require(teamCheck[_from] && (uint(state) == 0 || uint(state) == 4),\"must be on the team\");\n\n        if(teamCheck[_from] && (uint(state) == 0 || uint(state) == 1 || uint(state) == 4 || uint(state) == 7)){\n            convictionList[_from] += _amount;\n            totalConviction += _amount;\n        }else if(_from == HOD && uint(state) == 2){\n            convictionList[_from] += _amount;\n            totalConviction += _amount;\n        }else if (icteamCheck[_from] && uint(state) == 3){\n            convictionList[_from] += _amount;\n            totalConviction += _amount;\n        }else{\n            revert(\"undefined rule\");\n        }\n    }\n\n    function addnConviction(address _from, uint256 _amount) public onlyOwner {\n        require(teamCheck[_from],\"must be on the team\");\n        nconvictionList[_from] += _amount;\n        totalnConviction += _amount;\n    }\n\n    function setHOD(address _from, address _hod) public onlyOwner{\n        require(!isHODSet && onProject[_from], \"HOD already set\");\n        onProject[_hod] = true;\n        HOD = _hod;\n        isHODSet = true;\n    }\n\n    function unhold(address _from) public onlyOwner {\n        require(onProject[_from] && state == States.HOLD, \"not on team\");\n        onHold = false;\n        state = States(uint(heldState));\n    }\n\n    function hold(address _from) public onlyOwner {\n        require(onProject[_from] && state != States.HOLD, \"must be on team\");\n        onHold = true;\n        heldState = state;\n        state = States.HOLD;\n    }\n\n    function nextStage(address _from) public onlyOwner{\n        require(uint(state) < uint(States.EXIT), \"Company already at exit state.\");\n        \n        if(teamCheck[_from] && (uint(state) == 0 || uint(state) == 1 || uint(state) == 4 || uint(state) == 7)){\n            state = States(uint(state) + 1);\n        }else if(_from == HOD && uint(state) == 2) {\n            state = States(uint(state) + 1);\n        }else if(icteamCheck[_from] && uint(state) == 3) {\n            state = States(uint(state) + 1);\n        }else{\n            revert(\"undefined rule\");\n        }\n    }\n}\n\n",
  "sourcePath": "/Users/innovation/Desktop/ConvictionEngine/contracts/KAICompany.sol",
  "compiler": {
    "name": "solc",
    "version": "0.4.24+commit.e67f0147.Emscripten.clang"
  },
  "schemaVersion": "2.0.1",
  "updatedAt": "2018-12-04T01:37:47.417Z"
}