{
  "contractName": "KAICompany",
  "abi": [
    {
      "constant": true,
      "inputs": [],
      "name": "name",
      "outputs": [
        {
          "name": "",
          "type": "bytes32"
        }
      ],
      "payable": false,
      "stateMutability": "view",
      "type": "function"
    },
    {
      "constant": true,
      "inputs": [
        {
          "name": "",
          "type": "address"
        }
      ],
      "name": "teamCheck",
      "outputs": [
        {
          "name": "",
          "type": "bool"
        }
      ],
      "payable": false,
      "stateMutability": "view",
      "type": "function"
    },
    {
      "constant": true,
      "inputs": [
        {
          "name": "",
          "type": "address"
        }
      ],
      "name": "icteamCheck",
      "outputs": [
        {
          "name": "",
          "type": "bool"
        }
      ],
      "payable": false,
      "stateMutability": "view",
      "type": "function"
    },
    {
      "constant": true,
      "inputs": [
        {
          "name": "",
          "type": "uint256"
        }
      ],
      "name": "teamList",
      "outputs": [
        {
          "name": "",
          "type": "address"
        }
      ],
      "payable": false,
      "stateMutability": "view",
      "type": "function"
    },
    {
      "constant": true,
      "inputs": [],
      "name": "contractInitiated",
      "outputs": [
        {
          "name": "",
          "type": "address"
        }
      ],
      "payable": false,
      "stateMutability": "view",
      "type": "function"
    },
    {
      "constant": true,
      "inputs": [
        {
          "name": "",
          "type": "address"
        }
      ],
      "name": "convictionList",
      "outputs": [
        {
          "name": "",
          "type": "uint256"
        }
      ],
      "payable": false,
      "stateMutability": "view",
      "type": "function"
    },
    {
      "constant": true,
      "inputs": [],
      "name": "initiator",
      "outputs": [
        {
          "name": "",
          "type": "address"
        }
      ],
      "payable": false,
      "stateMutability": "view",
      "type": "function"
    },
    {
      "constant": true,
      "inputs": [],
      "name": "HOD",
      "outputs": [
        {
          "name": "",
          "type": "address"
        }
      ],
      "payable": false,
      "stateMutability": "view",
      "type": "function"
    },
    {
      "constant": true,
      "inputs": [],
      "name": "icteamListLength",
      "outputs": [
        {
          "name": "",
          "type": "uint256"
        }
      ],
      "payable": false,
      "stateMutability": "view",
      "type": "function"
    },
    {
      "constant": true,
      "inputs": [
        {
          "name": "",
          "type": "uint256"
        }
      ],
      "name": "icteamList",
      "outputs": [
        {
          "name": "",
          "type": "address"
        }
      ],
      "payable": false,
      "stateMutability": "view",
      "type": "function"
    },
    {
      "constant": true,
      "inputs": [],
      "name": "id",
      "outputs": [
        {
          "name": "",
          "type": "uint256"
        }
      ],
      "payable": false,
      "stateMutability": "view",
      "type": "function"
    },
    {
      "constant": true,
      "inputs": [],
      "name": "state",
      "outputs": [
        {
          "name": "",
          "type": "uint8"
        }
      ],
      "payable": false,
      "stateMutability": "view",
      "type": "function"
    },
    {
      "constant": true,
      "inputs": [],
      "name": "teamListLength",
      "outputs": [
        {
          "name": "",
          "type": "uint256"
        }
      ],
      "payable": false,
      "stateMutability": "view",
      "type": "function"
    },
    {
      "inputs": [
        {
          "name": "_amount",
          "type": "uint256"
        },
        {
          "name": "_name",
          "type": "bytes32"
        },
        {
          "name": "_from",
          "type": "address"
        },
        {
          "name": "_id",
          "type": "uint256"
        }
      ],
      "payable": false,
      "stateMutability": "nonpayable",
      "type": "constructor"
    },
    {
      "constant": false,
      "inputs": [
        {
          "name": "_adder",
          "type": "address"
        },
        {
          "name": "_addee",
          "type": "address"
        }
      ],
      "name": "addTeam",
      "outputs": [],
      "payable": false,
      "stateMutability": "nonpayable",
      "type": "function"
    },
    {
      "constant": false,
      "inputs": [
        {
          "name": "_amount",
          "type": "uint256"
        }
      ],
      "name": "addConviction",
      "outputs": [],
      "payable": false,
      "stateMutability": "nonpayable",
      "type": "function"
    },
    {
      "constant": false,
      "inputs": [
        {
          "name": "_rank",
          "type": "uint256"
        }
      ],
      "name": "nextStage",
      "outputs": [],
      "payable": false,
      "stateMutability": "nonpayable",
      "type": "function"
    }
  ],
  "bytecode": "0x608060405234801561001057600080fd5b50604051608080610f8083398101806040528101908080519060200190929190805190602001909291908051906020019092919080519060200190929190505050600032905033600260006101000a81548173ffffffffffffffffffffffffffffffffffffffff021916908373ffffffffffffffffffffffffffffffffffffffff16021790555082600160006101000a81548173ffffffffffffffffffffffffffffffffffffffff021916908373ffffffffffffffffffffffffffffffffffffffff160217905550836000816000191690555084600360008373ffffffffffffffffffffffffffffffffffffffff1673ffffffffffffffffffffffffffffffffffffffff168152602001908152602001600020819055506000600b60006101000a81548160ff0219169083600581111561014657fe5b021790555081600c819055506001600460008373ffffffffffffffffffffffffffffffffffffffff1673ffffffffffffffffffffffffffffffffffffffff16815260200190815260200160002060006101000a81548160ff02191690831515021790555060058190806001815401808255809150509060018203906000526020600020016000909192909190916101000a81548173ffffffffffffffffffffffffffffffffffffffff021916908373ffffffffffffffffffffffffffffffffffffffff1602179055505060016006600082825401925050819055505050505050610d4b806102356000396000f3006080604052600436106100e6576000357c0100000000000000000000000000000000000000000000000000000000900463ffffffff16806306fdde03146100eb57806317e757501461011e5780631834972f14610179578063191f72aa146101d457806319aa69b91461020157806340b274a21461026e5780635930cf43146102c55780635c39fcc11461031c5780637ffe850014610373578063894edcd4146103ca57806398d6bdad146103f7578063a852a88114610422578063af640d0f1461048f578063c19d93fb146104ba578063d4ca094f146104f3578063e12ced1314610556575b600080fd5b3480156100f757600080fd5b50610100610581565b60405180826000191660001916815260200191505060405180910390f35b34801561012a57600080fd5b5061015f600480360381019080803573ffffffffffffffffffffffffffffffffffffffff169060200190929190505050610587565b604051808215151515815260200191505060405180910390f35b34801561018557600080fd5b506101ba600480360381019080803573ffffffffffffffffffffffffffffffffffffffff1690602001909291905050506105a7565b604051808215151515815260200191505060405180910390f35b3480156101e057600080fd5b506101ff600480360381019080803590602001909291905050506105c7565b005b34801561020d57600080fd5b5061022c60048036038101908080359060200190929190505050610702565b604051808273ffffffffffffffffffffffffffffffffffffffff1673ffffffffffffffffffffffffffffffffffffffff16815260200191505060405180910390f35b34801561027a57600080fd5b50610283610740565b604051808273ffffffffffffffffffffffffffffffffffffffff1673ffffffffffffffffffffffffffffffffffffffff16815260200191505060405180910390f35b3480156102d157600080fd5b50610306600480360381019080803573ffffffffffffffffffffffffffffffffffffffff169060200190929190505050610766565b6040518082815260200191505060405180910390f35b34801561032857600080fd5b5061033161077e565b604051808273ffffffffffffffffffffffffffffffffffffffff1673ffffffffffffffffffffffffffffffffffffffff16815260200191505060405180910390f35b34801561037f57600080fd5b506103886107a4565b604051808273ffffffffffffffffffffffffffffffffffffffff1673ffffffffffffffffffffffffffffffffffffffff16815260200191505060405180910390f35b3480156103d657600080fd5b506103f5600480360381019080803590602001909291905050506107ca565b005b34801561040357600080fd5b5061040c610a17565b6040518082815260200191505060405180910390f35b34801561042e57600080fd5b5061044d60048036038101908080359060200190929190505050610a1d565b604051808273ffffffffffffffffffffffffffffffffffffffff1673ffffffffffffffffffffffffffffffffffffffff16815260200191505060405180910390f35b34801561049b57600080fd5b506104a4610a5b565b6040518082815260200191505060405180910390f35b3480156104c657600080fd5b506104cf610a61565b604051808260058111156104df57fe5b60ff16815260200191505060405180910390f35b3480156104ff57600080fd5b50610554600480360381019080803573ffffffffffffffffffffffffffffffffffffffff169060200190929190803573ffffffffffffffffffffffffffffffffffffffff169060200190929190505050610a74565b005b34801561056257600080fd5b5061056b610d19565b6040518082815260200191505060405180910390f35b60005481565b60046020528060005260406000206000915054906101000a900460ff1681565b60086020528060005260406000206000915054906101000a900460ff1681565b600260009054906101000a900473ffffffffffffffffffffffffffffffffffffffff1673ffffffffffffffffffffffffffffffffffffffff163373ffffffffffffffffffffffffffffffffffffffff161415156106b2576040517f08c379a00000000000000000000000000000000000000000000000000000000081526004018080602001828103825260218152602001807f46756e6374696f6e20776173206e6f742063616c6c6564206279206f776e657281526020017f2e0000000000000000000000000000000000000000000000000000000000000081525060400191505060405180910390fd5b80600360003273ffffffffffffffffffffffffffffffffffffffff1673ffffffffffffffffffffffffffffffffffffffff1681526020019081526020016000206000828254019250508190555050565b60058181548110151561071157fe5b906000526020600020016000915054906101000a900473ffffffffffffffffffffffffffffffffffffffff1681565b600260009054906101000a900473ffffffffffffffffffffffffffffffffffffffff1681565b60036020528060005260406000206000915090505481565b600160009054906101000a900473ffffffffffffffffffffffffffffffffffffffff1681565b600760009054906101000a900473ffffffffffffffffffffffffffffffffffffffff1681565b600260009054906101000a900473ffffffffffffffffffffffffffffffffffffffff1673ffffffffffffffffffffffffffffffffffffffff163373ffffffffffffffffffffffffffffffffffffffff161415156108b5576040517f08c379a00000000000000000000000000000000000000000000000000000000081526004018080602001828103825260218152602001807f46756e6374696f6e20776173206e6f742063616c6c6564206279206f776e657281526020017f2e0000000000000000000000000000000000000000000000000000000000000081525060400191505060405180910390fd5b6005808111156108c157fe5b600b60009054906101000a900460ff1660058111156108dc57fe5b101515610951576040517f08c379a000000000000000000000000000000000000000000000000000000000815260040180806020018281038252601e8152602001807f436f6d70616e7920616c726561647920617420657869742073746174652e000081525060200191505060405180910390fd5b6000811115156109c9576040517f08c379a000000000000000000000000000000000000000000000000000000000815260040180806020018281038252600e8152602001807f556e646566696e65642072616e6b00000000000000000000000000000000000081525060200191505060405180910390fd5b6001600b60009054906101000a900460ff1660058111156109e657fe5b0160058111156109f257fe5b600b60006101000a81548160ff02191690836005811115610a0f57fe5b021790555050565b600a5481565b600981815481101515610a2c57fe5b906000526020600020016000915054906101000a900473ffffffffffffffffffffffffffffffffffffffff1681565b600c5481565b600b60009054906101000a900460ff1681565b600260009054906101000a900473ffffffffffffffffffffffffffffffffffffffff1673ffffffffffffffffffffffffffffffffffffffff163373ffffffffffffffffffffffffffffffffffffffff16141515610b5f576040517f08c379a00000000000000000000000000000000000000000000000000000000081526004018080602001828103825260218152602001807f46756e6374696f6e20776173206e6f742063616c6c6564206279206f776e657281526020017f2e0000000000000000000000000000000000000000000000000000000000000081525060400191505060405180910390fd5b600460008373ffffffffffffffffffffffffffffffffffffffff1673ffffffffffffffffffffffffffffffffffffffff16815260200190815260200160002060009054906101000a900460ff161515610c46576040517f08c379a00000000000000000000000000000000000000000000000000000000081526004018080602001828103825260328152602001807f596f75206d757374206265206f6e20746865207465616d20746f20616464207081526020017f656f706c6520746f20746865207465616d2e000000000000000000000000000081525060400191505060405180910390fd5b6001600460008373ffffffffffffffffffffffffffffffffffffffff1673ffffffffffffffffffffffffffffffffffffffff16815260200190815260200160002060006101000a81548160ff02191690831515021790555060053390806001815401808255809150509060018203906000526020600020016000909192909190916101000a81548173ffffffffffffffffffffffffffffffffffffffff021916908373ffffffffffffffffffffffffffffffffffffffff1602179055505060016006600082825401925050819055505050565b600654815600a165627a7a723058202f8e1b93a8016ea79440cdc7ba638d3cf172763076bf102e7477917306bc2b5e0029",
  "source": "pragma solidity ^0.4.24;\n\ncontract KAICompany {\n    // Company name and address of who did BD\n    bytes32 public name;\n    address public initiator;\n    address public contractInitiated;\n\n    // Conviction list for the company\n    mapping(address => uint256) public convictionList;\n\n    // BD team\n    mapping(address => bool) public teamCheck;\n    address[] public teamList;\n    uint256 public teamListLength;\n\n    // HOD address\n    address public HOD;\n\n    // IC team\n    mapping(address => bool) public icteamCheck;\n    address[] public icteamList;\n    uint256 public icteamListLength;\n\n    // Investment stages\n    enum States { ZERO, ONE, TWO, THREE, FOUR, EXIT }\n    States public state;\n\n    uint256 public id;\n\n    modifier onlyOwner() {\n        if (msg.sender != contractInitiated) {\n            revert(\"Function was not called by owner.\");\n        }\n\n        _; // continue executing rest of method body\n    }\n\n    constructor(uint256 _amount, bytes32 _name, address _from, uint256 _id) public {\n        address user = tx.origin;\n\n        contractInitiated = msg.sender;\n        initiator = _from;\n        name = _name;\n        convictionList[user] = _amount;\n        state = States.ZERO;\n        id = _id;\n        // Add user to the team\n        teamCheck[user] = true;\n        teamList.push(user);\n        teamListLength += 1;\n    }\n\n    function addTeam(address _adder, address _addee) public onlyOwner {\n        require(teamCheck[_adder], \"You must be on the team to add people to the team.\");\n        // User Management\n        teamCheck[_addee] = true;\n        teamList.push(msg.sender);\n        teamListLength += 1;\n    }\n\n    function addConviction(uint256 _amount) public onlyOwner {\n        convictionList[tx.origin] += _amount;\n    }\n\n    function nextStage(uint256 _rank) public onlyOwner{\n        require(uint(state) < uint(States.EXIT), \"Company already at exit state.\");\n        require(_rank > 0, \"Undefined rank\");\n\n        state = States(uint(state) + 1);\n    }\n\n}\n\n",
  "sourcePath": "/Users/innovation/Desktop/ConvictionEngine/contracts/KAICompany.sol",
  "compiler": {
    "name": "solc",
    "version": "0.4.24+commit.e67f0147.Emscripten.clang"
  },
  "schemaVersion": "2.0.1",
  "updatedAt": "2018-11-21T19:43:22.994Z"
}